{
  "address": "0xb76e0ef9a6831fe74306e0d104f2df93304d7885",
  "abi": [
    {
      "inputs": [
        {
          "internalType": "address",
          "name": "_treasury",
          "type": "address"
        },
        {
          "internalType": "address",
          "name": "_router",
          "type": "address"
        }
      ],
      "stateMutability": "nonpayable",
      "type": "constructor"
    },
    {
      "inputs": [
        {
          "internalType": "address",
          "name": "spender",
          "type": "address"
        },
        {
          "internalType": "uint256",
          "name": "allowance",
          "type": "uint256"
        },
        {
          "internalType": "uint256",
          "name": "needed",
          "type": "uint256"
        }
      ],
      "name": "ERC20InsufficientAllowance",
      "type": "error"
    },
    {
      "inputs": [
        {
          "internalType": "address",
          "name": "sender",
          "type": "address"
        },
        {
          "internalType": "uint256",
          "name": "balance",
          "type": "uint256"
        },
        {
          "internalType": "uint256",
          "name": "needed",
          "type": "uint256"
        }
      ],
      "name": "ERC20InsufficientBalance",
      "type": "error"
    },
    {
      "inputs": [
        {
          "internalType": "address",
          "name": "approver",
          "type": "address"
        }
      ],
      "name": "ERC20InvalidApprover",
      "type": "error"
    },
    {
      "inputs": [
        {
          "internalType": "address",
          "name": "receiver",
          "type": "address"
        }
      ],
      "name": "ERC20InvalidReceiver",
      "type": "error"
    },
    {
      "inputs": [
        {
          "internalType": "address",
          "name": "sender",
          "type": "address"
        }
      ],
      "name": "ERC20InvalidSender",
      "type": "error"
    },
    {
      "inputs": [
        {
          "internalType": "address",
          "name": "spender",
          "type": "address"
        }
      ],
      "name": "ERC20InvalidSpender",
      "type": "error"
    },
    {
      "inputs": [],
      "name": "EnforcedPause",
      "type": "error"
    },
    {
      "inputs": [],
      "name": "ExceedsMiningPool",
      "type": "error"
    },
    {
      "inputs": [],
      "name": "ExpectedPause",
      "type": "error"
    },
    {
      "inputs": [],
      "name": "OnlyMinter",
      "type": "error"
    },
    {
      "inputs": [],
      "name": "OnlySelf",
      "type": "error"
    },
    {
      "inputs": [
        {
          "internalType": "address",
          "name": "owner",
          "type": "address"
        }
      ],
      "name": "OwnableInvalidOwner",
      "type": "error"
    },
    {
      "inputs": [
        {
          "internalType": "address",
          "name": "account",
          "type": "address"
        }
      ],
      "name": "OwnableUnauthorizedAccount",
      "type": "error"
    },
    {
      "inputs": [],
      "name": "SwapThresholdTooHigh",
      "type": "error"
    },
    {
      "inputs": [],
      "name": "SwapThresholdTooLow",
      "type": "error"
    },
    {
      "inputs": [],
      "name": "TaxTooHigh",
      "type": "error"
    },
    {
      "inputs": [],
      "name": "ZeroAddress",
      "type": "error"
    },
    {
      "anonymous": false,
      "inputs": [
        {
          "indexed": true,
          "internalType": "address",
          "name": "owner",
          "type": "address"
        },
        {
          "indexed": true,
          "internalType": "address",
          "name": "spender",
          "type": "address"
        },
        {
          "indexed": false,
          "internalType": "uint256",
          "name": "value",
          "type": "uint256"
        }
      ],
      "name": "Approval",
      "type": "event"
    },
    {
      "anonymous": false,
      "inputs": [
        {
          "indexed": true,
          "internalType": "address",
          "name": "minter",
          "type": "address"
        }
      ],
      "name": "MinterSet",
      "type": "event"
    },
    {
      "anonymous": false,
      "inputs": [
        {
          "indexed": true,
          "internalType": "address",
          "name": "previousOwner",
          "type": "address"
        },
        {
          "indexed": true,
          "internalType": "address",
          "name": "newOwner",
          "type": "address"
        }
      ],
      "name": "OwnershipTransferred",
      "type": "event"
    },
    {
      "anonymous": false,
      "inputs": [
        {
          "indexed": false,
          "internalType": "address",
          "name": "account",
          "type": "address"
        }
      ],
      "name": "Paused",
      "type": "event"
    },
    {
      "anonymous": false,
      "inputs": [
        {
          "indexed": true,
          "internalType": "address",
          "name": "newRouter",
          "type": "address"
        }
      ],
      "name": "RouterUpdated",
      "type": "event"
    },
    {
      "anonymous": false,
      "inputs": [
        {
          "indexed": false,
          "internalType": "bool",
          "name": "enabled",
          "type": "bool"
        }
      ],
      "name": "SwapEnabledUpdated",
      "type": "event"
    },
    {
      "anonymous": false,
      "inputs": [
        {
          "indexed": false,
          "internalType": "uint256",
          "name": "newThreshold",
          "type": "uint256"
        }
      ],
      "name": "SwapThresholdUpdated",
      "type": "event"
    },
    {
      "anonymous": false,
      "inputs": [
        {
          "indexed": false,
          "internalType": "uint256",
          "name": "newBps",
          "type": "uint256"
        }
      ],
      "name": "TaxBpsUpdated",
      "type": "event"
    },
    {
      "anonymous": false,
      "inputs": [
        {
          "indexed": true,
          "internalType": "address",
          "name": "account",
          "type": "address"
        },
        {
          "indexed": false,
          "internalType": "bool",
          "name": "exempt",
          "type": "bool"
        }
      ],
      "name": "TaxExemptSet",
      "type": "event"
    },
    {
      "anonymous": false,
      "inputs": [
        {
          "indexed": false,
          "internalType": "uint256",
          "name": "afgAmount",
          "type": "uint256"
        },
        {
          "indexed": false,
          "internalType": "uint256",
          "name": "bnbAmount",
          "type": "uint256"
        }
      ],
      "name": "TaxSwapped",
      "type": "event"
    },
    {
      "anonymous": false,
      "inputs": [
        {
          "indexed": true,
          "internalType": "address",
          "name": "from",
          "type": "address"
        },
        {
          "indexed": true,
          "internalType": "address",
          "name": "to",
          "type": "address"
        },
        {
          "indexed": false,
          "internalType": "uint256",
          "name": "value",
          "type": "uint256"
        }
      ],
      "name": "Transfer",
      "type": "event"
    },
    {
      "anonymous": false,
      "inputs": [
        {
          "indexed": false,
          "internalType": "address",
          "name": "account",
          "type": "address"
        }
      ],
      "name": "Unpaused",
      "type": "event"
    },
    {
      "inputs": [],
      "name": "INITIAL_REWARD_PER_ROUND",
      "outputs": [
        {
          "internalType": "uint256",
          "name": "",
          "type": "uint256"
        }
      ],
      "stateMutability": "view",
      "type": "function"
    },
    {
      "inputs": [],
      "name": "MAX_SUPPLY",
      "outputs": [
        {
          "internalType": "uint256",
          "name": "",
          "type": "uint256"
        }
      ],
      "stateMutability": "view",
      "type": "function"
    },
    {
      "inputs": [],
      "name": "MAX_SWAP_THRESHOLD",
      "outputs": [
        {
          "internalType": "uint256",
          "name": "",
          "type": "uint256"
        }
      ],
      "stateMutability": "view",
      "type": "function"
    },
    {
      "inputs": [],
      "name": "MAX_TAX_BPS",
      "outputs": [
        {
          "internalType": "uint256",
          "name": "",
          "type": "uint256"
        }
      ],
      "stateMutability": "view",
      "type": "function"
    },
    {
      "inputs": [],
      "name": "MINING_POOL",
      "outputs": [
        {
          "internalType": "uint256",
          "name": "",
          "type": "uint256"
        }
      ],
      "stateMutability": "view",
      "type": "function"
    },
    {
      "inputs": [],
      "name": "MIN_SWAP_THRESHOLD",
      "outputs": [
        {
          "internalType": "uint256",
          "name": "",
          "type": "uint256"
        }
      ],
      "stateMutability": "view",
      "type": "function"
    },
    {
      "inputs": [],
      "name": "ROUNDS_PER_HALVING",
      "outputs": [
        {
          "internalType": "uint256",
          "name": "",
          "type": "uint256"
        }
      ],
      "stateMutability": "view",
      "type": "function"
    },
    {
      "inputs": [],
      "name": "ROUND_DURATION",
      "outputs": [
        {
          "internalType": "uint256",
          "name": "",
          "type": "uint256"
        }
      ],
      "stateMutability": "view",
      "type": "function"
    },
    {
      "inputs": [],
      "name": "TREASURY_PREMINT",
      "outputs": [
        {
          "internalType": "uint256",
          "name": "",
          "type": "uint256"
        }
      ],
      "stateMutability": "view",
      "type": "function"
    },
    {
      "inputs": [
        {
          "internalType": "address",
          "name": "owner",
          "type": "address"
        },
        {
          "internalType": "address",
          "name": "spender",
          "type": "address"
        }
      ],
      "name": "allowance",
      "outputs": [
        {
          "internalType": "uint256",
          "name": "",
          "type": "uint256"
        }
      ],
      "stateMutability": "view",
      "type": "function"
    },
    {
      "inputs": [
        {
          "internalType": "address",
          "name": "spender",
          "type": "address"
        },
        {
          "internalType": "uint256",
          "name": "value",
          "type": "uint256"
        }
      ],
      "name": "approve",
      "outputs": [
        {
          "internalType": "bool",
          "name": "",
          "type": "bool"
        }
      ],
      "stateMutability": "nonpayable",
      "type": "function"
    },
    {
      "inputs": [
        {
          "internalType": "address",
          "name": "account",
          "type": "address"
        }
      ],
      "name": "balanceOf",
      "outputs": [
        {
          "internalType": "uint256",
          "name": "",
          "type": "uint256"
        }
      ],
      "stateMutability": "view",
      "type": "function"
    },
    {
      "inputs": [],
      "name": "currentRewardPerRound",
      "outputs": [
        {
          "internalType": "uint256",
          "name": "",
          "type": "uint256"
        }
      ],
      "stateMutability": "view",
      "type": "function"
    },
    {
      "inputs": [],
      "name": "decimals",
      "outputs": [
        {
          "internalType": "uint8",
          "name": "",
          "type": "uint8"
        }
      ],
      "stateMutability": "view",
      "type": "function"
    },
    {
      "inputs": [],
      "name": "deployedAt",
      "outputs": [
        {
          "internalType": "uint256",
          "name": "",
          "type": "uint256"
        }
      ],
      "stateMutability": "view",
      "type": "function"
    },
    {
      "inputs": [
        {
          "internalType": "uint256",
          "name": "amount",
          "type": "uint256"
        }
      ],
      "name": "executeSwap",
      "outputs": [],
      "stateMutability": "nonpayable",
      "type": "function"
    },
    {
      "inputs": [
        {
          "internalType": "address",
          "name": "",
          "type": "address"
        }
      ],
      "name": "isTaxExempt",
      "outputs": [
        {
          "internalType": "bool",
          "name": "",
          "type": "bool"
        }
      ],
      "stateMutability": "view",
      "type": "function"
    },
    {
      "inputs": [
        {
          "internalType": "address",
          "name": "to",
          "type": "address"
        },
        {
          "internalType": "uint256",
          "name": "amount",
          "type": "uint256"
        }
      ],
      "name": "mint",
      "outputs": [],
      "stateMutability": "nonpayable",
      "type": "function"
    },
    {
      "inputs": [],
      "name": "minter",
      "outputs": [
        {
          "internalType": "address",
          "name": "",
          "type": "address"
        }
      ],
      "stateMutability": "view",
      "type": "function"
    },
    {
      "inputs": [],
      "name": "name",
      "outputs": [
        {
          "internalType": "string",
          "name": "",
          "type": "string"
        }
      ],
      "stateMutability": "view",
      "type": "function"
    },
    {
      "inputs": [],
      "name": "owner",
      "outputs": [
        {
          "internalType": "address",
          "name": "",
          "type": "address"
        }
      ],
      "stateMutability": "view",
      "type": "function"
    },
    {
      "inputs": [],
      "name": "pause",
      "outputs": [],
      "stateMutability": "nonpayable",
      "type": "function"
    },
    {
      "inputs": [],
      "name": "paused",
      "outputs": [
        {
          "internalType": "bool",
          "name": "",
          "type": "bool"
        }
      ],
      "stateMutability": "view",
      "type": "function"
    },
    {
      "inputs": [],
      "name": "renounceOwnership",
      "outputs": [],
      "stateMutability": "nonpayable",
      "type": "function"
    },
    {
      "inputs": [],
      "name": "router",
      "outputs": [
        {
          "internalType": "contract IUniswapV2Router02",
          "name": "",
          "type": "address"
        }
      ],
      "stateMutability": "view",
      "type": "function"
    },
    {
      "inputs": [
        {
          "internalType": "address",
          "name": "_minter",
          "type": "address"
        }
      ],
      "name": "setMinter",
      "outputs": [],
      "stateMutability": "nonpayable",
      "type": "function"
    },
    {
      "inputs": [
        {
          "internalType": "address",
          "name": "_router",
          "type": "address"
        }
      ],
      "name": "setRouter",
      "outputs": [],
      "stateMutability": "nonpayable",
      "type": "function"
    },
    {
      "inputs": [
        {
          "internalType": "bool",
          "name": "_enabled",
          "type": "bool"
        }
      ],
      "name": "setSwapEnabled",
      "outputs": [],
      "stateMutability": "nonpayable",
      "type": "function"
    },
    {
      "inputs": [
        {
          "internalType": "uint256",
          "name": "_threshold",
          "type": "uint256"
        }
      ],
      "name": "setSwapThreshold",
      "outputs": [],
      "stateMutability": "nonpayable",
      "type": "function"
    },
    {
      "inputs": [
        {
          "internalType": "uint256",
          "name": "_bps",
          "type": "uint256"
        }
      ],
      "name": "setTaxBps",
      "outputs": [],
      "stateMutability": "nonpayable",
      "type": "function"
    },
    {
      "inputs": [
        {
          "internalType": "address",
          "name": "account",
          "type": "address"
        },
        {
          "internalType": "bool",
          "name": "exempt",
          "type": "bool"
        }
      ],
      "name": "setTaxExempt",
      "outputs": [],
      "stateMutability": "nonpayable",
      "type": "function"
    },
    {
      "inputs": [],
      "name": "swapEnabled",
      "outputs": [
        {
          "internalType": "bool",
          "name": "",
          "type": "bool"
        }
      ],
      "stateMutability": "view",
      "type": "function"
    },
    {
      "inputs": [],
      "name": "swapThreshold",
      "outputs": [
        {
          "internalType": "uint256",
          "name": "",
          "type": "uint256"
        }
      ],
      "stateMutability": "view",
      "type": "function"
    },
    {
      "inputs": [],
      "name": "symbol",
      "outputs": [
        {
          "internalType": "string",
          "name": "",
          "type": "string"
        }
      ],
      "stateMutability": "view",
      "type": "function"
    },
    {
      "inputs": [],
      "name": "taxBps",
      "outputs": [
        {
          "internalType": "uint256",
          "name": "",
          "type": "uint256"
        }
      ],
      "stateMutability": "view",
      "type": "function"
    },
    {
      "inputs": [],
      "name": "totalMined",
      "outputs": [
        {
          "internalType": "uint256",
          "name": "",
          "type": "uint256"
        }
      ],
      "stateMutability": "view",
      "type": "function"
    },
    {
      "inputs": [],
      "name": "totalSupply",
      "outputs": [
        {
          "internalType": "uint256",
          "name": "",
          "type": "uint256"
        }
      ],
      "stateMutability": "view",
      "type": "function"
    },
    {
      "inputs": [
        {
          "internalType": "address",
          "name": "to",
          "type": "address"
        },
        {
          "internalType": "uint256",
          "name": "value",
          "type": "uint256"
        }
      ],
      "name": "transfer",
      "outputs": [
        {
          "internalType": "bool",
          "name": "",
          "type": "bool"
        }
      ],
      "stateMutability": "nonpayable",
      "type": "function"
    },
    {
      "inputs": [
        {
          "internalType": "address",
          "name": "from",
          "type": "address"
        },
        {
          "internalType": "address",
          "name": "to",
          "type": "address"
        },
        {
          "internalType": "uint256",
          "name": "value",
          "type": "uint256"
        }
      ],
      "name": "transferFrom",
      "outputs": [
        {
          "internalType": "bool",
          "name": "",
          "type": "bool"
        }
      ],
      "stateMutability": "nonpayable",
      "type": "function"
    },
    {
      "inputs": [
        {
          "internalType": "address",
          "name": "newOwner",
          "type": "address"
        }
      ],
      "name": "transferOwnership",
      "outputs": [],
      "stateMutability": "nonpayable",
      "type": "function"
    },
    {
      "inputs": [],
      "name": "treasury",
      "outputs": [
        {
          "internalType": "address",
          "name": "",
          "type": "address"
        }
      ],
      "stateMutability": "view",
      "type": "function"
    },
    {
      "inputs": [],
      "name": "unpause",
      "outputs": [],
      "stateMutability": "nonpayable",
      "type": "function"
    },
    {
      "stateMutability": "payable",
      "type": "receive"
    }
  ],
  "contractName": "AFGToken",
  "sourceName": "contracts/AFGToken.sol",
  "bytecode": "0x60c080604052346105af57604081611ebd803803809161001f82856105b3565b8339810103126105af5761003e6020610037836105d6565b92016105d6565b6040519161004d6040846105b3565b600a8352694167656e74466f72676560b01b6020840152604051916100736040846105b3565b600383526241464760e81b602084015283516001600160401b0381116104b557600354600181811c911680156105a5575b602082101461049757601f8111610537575b50602094601f82116001146104d4579481929394955f926104c9575b50508160011b915f199060031b1c1916176003555b82516001600160401b0381116104b557600454600181811c911680156104ab575b602082101461049757601f8111610429575b506020601f82116001146103c657819293945f926103bb575b50508160011b915f199060031b1c1916176004555b33156103a85760058054336001600160a01b0319821681179092556001600160a01b03167f8be0079c531659141344cd1fd0a4f28419497f9722a3daafe3b4186f6b6457e05f80a361012c600a5569021e19e0c9bab2400000600b55600c805460ff191660011790556001600160a01b038216908115610399576001600160a01b03169182156103995760a052600680546001600160a01b03191683179055426080526a084595161401484a0000005f600254918083018093116103855760207fddf252ad1be2c89b69c2b068fc378daa952ba7f163c4a11628f55a4df523b3ef918594600255846103705780600254036002555b604051908152a35f52600960205260405f20600160ff19825416179055335f52600960205260405f20600160ff19825416179055305f52600960205260405f20600160ff19825416179055301561035d57305f52600160205260405f20815f5260205260405f205f1990556040515f1981527f8c5be1e5ebec7d5bd14f71427d1e84f3dd0314c0f7b2291e5b200ac8c7c3b92560203092a360055460ff8160a01c1661034e5760ff60a01b1916600160a01b176005556040513381527f62e78cea01bee320cd4e420270b5ea74000d11b0c9f74754ebdbfc544b05a25890602090a16040516118d290816105eb823960805181818161037f0152611456015260a0518181816106a20152610c580152f35b63d93c066560e01b5f5260045ffd5b63e602df0560e01b5f525f60045260245ffd5b845f525f825260405f2081815401905561023d565b634e487b7160e01b5f52601160045260245ffd5b63d92e233d60e01b5f5260045ffd5b631e4fbdf760e01b5f525f60045260245ffd5b015190505f80610133565b601f1982169060045f52805f20915f5b818110610411575095836001959697106103f9575b505050811b01600455610148565b01515f1960f88460031b161c191690555f80806103eb565b9192602060018192868b0151815501940192016103d6565b8181111561011a5760045f52601f820160051c7f8a35acfbc15ff81a39ae7d344fd709f28e8600b4aa8c65c6b64bfe7fe36bd19b6020841061048f575b81601f9101920160051c03905f5b82811061048257505061011a565b5f82820155600101610474565b5f9150610466565b634e487b7160e01b5f52602260045260245ffd5b90607f1690610108565b634e487b7160e01b5f52604160045260245ffd5b015190505f806100d2565b601f1982169560035f52805f20915f5b88811061051f57508360019596979810610507575b505050811b016003556100e7565b01515f1960f88460031b161c191690555f80806104f9565b919260206001819286850151815501940192016104e4565b818111156100b65760035f52601f820160051c7fc2575a0e9e593c00f959f8c92f12db2869c3395a3b0502d05e2516446f71f85b6020841061059d575b81601f9101920160051c03905f5b8281106105905750506100b6565b5f82820155600101610582565b5f9150610574565b90607f16906100a4565b5f80fd5b601f909101601f19168101906001600160401b038211908210176104b557604052565b51906001600160a01b03821682036105af5756fe608080604052600436101561001c575b50361561001a575f80fd5b005b5f905f3560e01c9081630445b667146113765750806306fdde03146112bb5780630754617214611295578063095ea7b31461121357806316c2be6b146111d657806318160ddd146111b95780631bb9b0a3146111945780631dc61040146110e757806323b872dd14610fb75780632c597de914610f9b578063313ce56714610f8057806332cb6b0c14610f5b5780633352eb8c14610f385780633c96b08f14610f135780633eacd2f814610ef65780633f4ba83a14610e5657806340c10f1914610d615780635556db6514610d44578063598d7d0f14610d1f5780635c975abb14610cfa57806360f71a0e14610c7c57806361d027b314610c395780636641ea0814610c1d5780636ddd171314610bfb57806370a0823114610bc4578063715018a614610b5e5780638456cb5914610ad35780638da5cb5b14610aad5780638e4fab8014610a8b57806395d89b41146109875780639d0014b1146108c9578063a51f0c32146108ad578063a9059cbb1461087c578063a9ab232b146105f9578063c0d786551461047d578063dbdfca6c14610458578063dd62ed3e1461040a578063e01af92c146103a2578063eae4c19f14610367578063f2fde38b146102ba578063f887ea40146102935763fca3b5aa0361000f5734610290576020600319360112610290576001600160a01b036102136113ba565b61021b61149a565b168015610268578073ffffffffffffffffffffffffffffffffffffffff1960085416176008557f726b590ef91a8c76ad05bbe91a57ef84605276528f49cd47d787f558a4e755b68280a280f35b6004827fd92e233d000000000000000000000000000000000000000000000000000000008152fd5b80fd5b503461029057806003193601126102905760206001600160a01b0360065416604051908152f35b5034610290576020600319360112610290576001600160a01b036102dc6113ba565b6102e461149a565b16801561033b576001600160a01b036005548273ffffffffffffffffffffffffffffffffffffffff19821617600555167f8be0079c531659141344cd1fd0a4f28419497f9722a3daafe3b4186f6b6457e08380a380f35b6024827f1e4fbdf700000000000000000000000000000000000000000000000000000000815280600452fd5b503461029057806003193601126102905760206040517f00000000000000000000000000000000000000000000000000000000000000008152f35b5034610290576020600319360112610290576004358015158091036104065760207f436b6cf978c7b6998fcce43dfe4d37e3a0dc2bb780144a2eb55d7138201e8a12916103ed61149a565b60ff19600c541660ff821617600c55604051908152a180f35b5080fd5b5034610290576040600319360112610290576001600160a01b03604061042e6113ba565b92826104386113d0565b9416815260016020522091165f52602052602060405f2054604051908152f35b5034610290578060031936011261029057602060405169d3c21bcecceda10000008152f35b5034610290576020600319360112610290576001600160a01b0361049f6113ba565b6104a761149a565b168015610268576001600160a01b036006541630156105cd5780156105a1573083526001602052604083206001600160a01b0382165f526020528260405f20556040518381527f8c5be1e5ebec7d5bd14f71427d1e84f3dd0314c0f7b2291e5b200ac8c7c3b92560203092a38073ffffffffffffffffffffffffffffffffffffffff196006541617600655308252600160205260408220815f5260205260405f205f199055806040515f1981527f8c5be1e5ebec7d5bd14f71427d1e84f3dd0314c0f7b2291e5b200ac8c7c3b92560203092a37f7aed1d3e8155a07ccf395e44ea3109a0e2d6c9b29bbbe9f142d9790596f4dc808280a280f35b6024837f94280d6200000000000000000000000000000000000000000000000000000000815280600452fd5b6024837fe602df0500000000000000000000000000000000000000000000000000000000815280600452fd5b50346107fa5760206003193601126107fa57600435303303610854576040516106236060826113e6565b60028152602081019060403683378051156107fe573082526001600160a01b0360065416906040517fad5c4648000000000000000000000000000000000000000000000000000000008152602081600481865afa9081156107cd575f91610812575b508151600110156107fe576001600160a01b0360408301911690527f000000000000000000000000000000000000000000000000000000000000000091823193813b156107fa57916040519283917f791ac94700000000000000000000000000000000000000000000000000000000835260a48301908860048501525f602485015260a060448501525180915260c4830191905f5b8181106107d85750505091815f8181956001600160a01b038916606483015242608483015203925af180156107cd5761078c575b509161077e6040927fe033f4ee00e9ef0d0e3de2d027fba8dafe3a3d8af9ee6a4f30a0122fc1a190cf943161143e565b82519182526020820152a180f35b7fe033f4ee00e9ef0d0e3de2d027fba8dafe3a3d8af9ee6a4f30a0122fc1a190cf939194506040926107c15f61077e936113e6565b5f95929450925061074e565b6040513d5f823e3d90fd5b82516001600160a01b031684528694506020938401939092019160010161071a565b5f80fd5b634e487b7160e01b5f52603260045260245ffd5b90506020813d60201161084c575b8161082d602093836113e6565b810103126107fa57516001600160a01b03811681036107fa575f610685565b3d9150610820565b7f14d4a4e8000000000000000000000000000000000000000000000000000000005f5260045ffd5b346107fa5760406003193601126107fa576108a26108986113ba565b60243590336114da565b602060405160018152f35b346107fa575f6003193601126107fa5760206040516107e08152f35b346107fa5760206003193601126107fa576004356108e561149a565b69d3c21bcecceda1000000811161095f5768056bc75e2d631000008110610937576020817f18ff2fc8464635e4f668567019152095047e34d7a2ab4b97661ba4dc7fd0647692600b55604051908152a1005b7f6255fd8d000000000000000000000000000000000000000000000000000000005f5260045ffd5b7f18dcc43e000000000000000000000000000000000000000000000000000000005f5260045ffd5b346107fa575f6003193601126107fa576040515f6004548060011c90600181168015610a81575b602083108114610a6d57828552908115610a4957506001146109eb575b6109e7836109db818503826113e6565b60405191829182611390565b0390f35b91905060045f527f8a35acfbc15ff81a39ae7d344fd709f28e8600b4aa8c65c6b64bfe7fe36bd19b915f905b808210610a2f575090915081016020016109db6109cb565b919260018160209254838588010152019101909291610a17565b60ff191660208086019190915291151560051b840190910191506109db90506109cb565b634e487b7160e01b5f52602260045260245ffd5b91607f16916109ae565b346107fa575f6003193601126107fa576020610aa561144b565b604051908152f35b346107fa575f6003193601126107fa5760206001600160a01b0360055416604051908152f35b346107fa575f6003193601126107fa57610aeb61149a565b610af3611531565b740100000000000000000000000000000000000000007fffffffffffffffffffffff00ffffffffffffffffffffffffffffffffffffffff60055416176005557f62e78cea01bee320cd4e420270b5ea74000d11b0c9f74754ebdbfc544b05a2586020604051338152a1005b346107fa575f6003193601126107fa57610b7661149a565b5f6001600160a01b0360055473ffffffffffffffffffffffffffffffffffffffff198116600555167f8be0079c531659141344cd1fd0a4f28419497f9722a3daafe3b4186f6b6457e08280a3005b346107fa5760206003193601126107fa576001600160a01b03610be56113ba565b165f525f602052602060405f2054604051908152f35b346107fa575f6003193601126107fa57602060ff600c54166040519015158152f35b346107fa575f6003193601126107fa57602060405161012c8152f35b346107fa575f6003193601126107fa5760206040516001600160a01b037f0000000000000000000000000000000000000000000000000000000000000000168152f35b346107fa5760206003193601126107fa57600435610c9861149a565b6103e88111610cd2576020817f4adfa0b8d8d98f0bc07d5fb9eb0ca7ae9c93eedaabb7a8fa8af77e270ab7081292600a55604051908152a1005b7faf1ee134000000000000000000000000000000000000000000000000000000005f5260045ffd5b346107fa575f6003193601126107fa57602060ff60055460a01c166040519015158152f35b346107fa575f6003193601126107fa5760206040516a4a723dc6b40b8a9a0000008152f35b346107fa575f6003193601126107fa576020600754604051908152f35b346107fa5760406003193601126107fa57610d7a6113ba565b6024356001600160a01b03600854163303610e2e57610d97611531565b6007546a4a723dc6b40b8a9a000000610db0838361141d565b11610e065781610dbf9161141d565b6007556001600160a01b03821615610dda5761001a91611568565b7fec442f05000000000000000000000000000000000000000000000000000000005f525f60045260245ffd5b7ff5329087000000000000000000000000000000000000000000000000000000005f5260045ffd5b7f9cdc2ed5000000000000000000000000000000000000000000000000000000005f5260045ffd5b346107fa575f6003193601126107fa57610e6e61149a565b60055460ff8160a01c1615610ece577fffffffffffffffffffffff00ffffffffffffffffffffffffffffffffffffffff166005557f5db9ee0a495bf2e6ff9c91a7834c1ba4fdd244a5e8aa4e537bd38aeae4b073aa6020604051338152a1005b7f8dfc202b000000000000000000000000000000000000000000000000000000005f5260045ffd5b346107fa575f6003193601126107fa576020600a54604051908152f35b346107fa575f6003193601126107fa5760206040516a084595161401484a0000008152f35b346107fa575f6003193601126107fa57602060405168056bc75e2d631000008152f35b346107fa575f6003193601126107fa5760206040516a52b7d2dcc80cd2e40000008152f35b346107fa575f6003193601126107fa57602060405160128152f35b346107fa575f6003193601126107fa5760206040516103e88152f35b346107fa5760606003193601126107fa57610fd06113ba565b610fd86113d0565b604435906001600160a01b03831692835f52600160205260405f206001600160a01b0333165f5260205260405f20545f19811061101b575b506108a293506114da565b8381106110b357841561108757331561105b576108a2945f52600160205260405f206001600160a01b0333165f526020528360405f209103905584611010565b7f94280d62000000000000000000000000000000000000000000000000000000005f525f60045260245ffd5b7fe602df05000000000000000000000000000000000000000000000000000000005f525f60045260245ffd5b83907ffb8f41b2000000000000000000000000000000000000000000000000000000005f523360045260245260445260645ffd5b346107fa5760406003193601126107fa576111006113ba565b602435908115158092036107fa576001600160a01b039061111f61149a565b1690811561116c5760207f8af52ca6865dd040a1247f4d247e92db436b658abb69ed82e9efa8a7de0602e991835f526009825260405f2060ff1981541660ff8316179055604051908152a2005b7fd92e233d000000000000000000000000000000000000000000000000000000005f5260045ffd5b346107fa575f6003193601126107fa57602069097418193b6f2e0b6db6604051908152f35b346107fa575f6003193601126107fa576020600254604051908152f35b346107fa5760206003193601126107fa576001600160a01b036111f76113ba565b165f526009602052602060ff60405f2054166040519015158152f35b346107fa5760406003193601126107fa5761122c6113ba565b602435903315611087576001600160a01b031690811561105b57335f52600160205260405f20825f526020528060405f20556040519081527f8c5be1e5ebec7d5bd14f71427d1e84f3dd0314c0f7b2291e5b200ac8c7c3b92560203392a3602060405160018152f35b346107fa575f6003193601126107fa5760206001600160a01b0360085416604051908152f35b346107fa575f6003193601126107fa576040515f6003548060011c9060018116801561136c575b602083108114610a6d57828552908115610a49575060011461130e576109e7836109db818503826113e6565b91905060035f527fc2575a0e9e593c00f959f8c92f12db2869c3395a3b0502d05e2516446f71f85b915f905b808210611352575090915081016020016109db6109cb565b91926001816020925483858801015201910190929161133a565b91607f16916112e2565b346107fa575f6003193601126107fa57602090600b548152f35b601f19601f602060409481855280519182918282880152018686015e5f8582860101520116010190565b600435906001600160a01b03821682036107fa57565b602435906001600160a01b03821682036107fa57565b90601f601f19910116810190811067ffffffffffffffff82111761140957604052565b634e487b7160e01b5f52604160045260245ffd5b9190820180921161142a57565b634e487b7160e01b5f52601160045260245ffd5b9190820391821161142a57565b6107e061012c61147b7f00000000000000000000000000000000000000000000000000000000000000004261143e565b0404601481116114955769097418193b6f2e0b6db6901c90565b505f90565b6001600160a01b036005541633036114ae57565b7f118cdaa7000000000000000000000000000000000000000000000000000000005f523360045260245ffd5b91906001600160a01b03831615611505576001600160a01b03811615610dda57611503926116df565b565b7f96c6fd1e000000000000000000000000000000000000000000000000000000005f525f60045260245ffd5b60ff60055460a01c1661154057565b7fd93c0665000000000000000000000000000000000000000000000000000000005f5260045ffd5b811591905f8315806116d8575b806116c6575b61158a575b611503935061179d565b5f805260096020527fec8156718a8372b1db44bb411437d0870f3e3790d4a08526d024ce1b0b668f6b5460ff1615806116a6575b156115805750600a54928383029383850414171561142a576115f36115eb6127106115f99504809461143e565b92305f61179d565b5f61179d565b600c5460ff811680611698575b80611681575b6116135750565b61ff00191661010017600c55600b54303b156107fa57604051907fa9ab232b00000000000000000000000000000000000000000000000000000000825260048201525f8160248183305af1611671575b5061ff0019600c5416600c55565b5f61167b916113e6565b5f611663565b50305f525f60205260405f2054600b54111561160c565b5060ff8160081c1615611606565b506001600160a01b0382165f52600960205260ff60405f205416156115be565b506001600160a01b038216151561157b565b505f611575565b919081159283158061178b575b80611779575b61170057611503935061179d565b6001600160a01b0381165f52600960205260ff60405f2054161580611759575b1561158057600a54938484029484860414171561142a5761175461174c6127106115f99604809561143e565b93308361179d565b61179d565b506001600160a01b0382165f52600960205260ff60405f20541615611720565b506001600160a01b03821615156116f2565b506001600160a01b03811615156116ec565b6001600160a01b031690816118165760206001600160a01b037fddf252ad1be2c89b69c2b068fc378daa952ba7f163c4a11628f55a4df523b3ef926117e48660025461141d565b6002555b1693846118015780600254036002555b604051908152a3565b845f525f825260405f208181540190556117f8565b815f525f60205260405f2054838110611868576001600160a01b037fddf252ad1be2c89b69c2b068fc378daa952ba7f163c4a11628f55a4df523b3ef9285602093865f525f85520360405f20556117e8565b9190507fe450d38c000000000000000000000000000000000000000000000000000000005f5260045260245260445260645ffdfea26469706673582212209c6a86fb6287be5feaa975a12a79efa4e04b8a2aa7809adcdacd04dc6a3328d164736f6c63430008210033",
  "linkReferences": {},
  "deployedLinkReferences": {},
  "immutableReferences": {
    "7413": [
      {
        "length": 32,
        "start": 895
      },
      {
        "length": 32,
        "start": 5206
      }
    ],
    "7415": [
      {
        "length": 32,
        "start": 1698
      },
      {
        "length": 32,
        "start": 3160
      }
    ]
  },
  "inputSourceName": "project/contracts/AFGToken.sol",
  "devdoc": {
    "errors": {
      "ERC20InsufficientAllowance(address,uint256,uint256)": [
        {
          "details": "Indicates a failure with the `spender`’s `allowance`. Used in transfers.",
          "params": {
            "allowance": "Amount of tokens a `spender` is allowed to operate with.",
            "needed": "Minimum amount required to perform a transfer.",
            "spender": "Address that may be allowed to operate on tokens without being their owner."
          }
        }
      ],
      "ERC20InsufficientBalance(address,uint256,uint256)": [
        {
          "details": "Indicates an error related to the current `balance` of a `sender`. Used in transfers.",
          "params": {
            "balance": "Current balance for the interacting account.",
            "needed": "Minimum amount required to perform a transfer.",
            "sender": "Address whose tokens are being transferred."
          }
        }
      ],
      "ERC20InvalidApprover(address)": [
        {
          "details": "Indicates a failure with the `approver` of a token to be approved. Used in approvals.",
          "params": {
            "approver": "Address initiating an approval operation."
          }
        }
      ],
      "ERC20InvalidReceiver(address)": [
        {
          "details": "Indicates a failure with the token `receiver`. Used in transfers.",
          "params": {
            "receiver": "Address to which tokens are being transferred."
          }
        }
      ],
      "ERC20InvalidSender(address)": [
        {
          "details": "Indicates a failure with the token `sender`. Used in transfers.",
          "params": {
            "sender": "Address whose tokens are being transferred."
          }
        }
      ],
      "ERC20InvalidSpender(address)": [
        {
          "details": "Indicates a failure with the `spender` to be approved. Used in approvals.",
          "params": {
            "spender": "Address that may be allowed to operate on tokens without being their owner."
          }
        }
      ],
      "EnforcedPause()": [
        {
          "details": "The operation failed because the contract is paused."
        }
      ],
      "ExpectedPause()": [
        {
          "details": "The operation failed because the contract is not paused."
        }
      ],
      "OwnableInvalidOwner(address)": [
        {
          "details": "The owner is not a valid owner account. (eg. `address(0)`)"
        }
      ],
      "OwnableUnauthorizedAccount(address)": [
        {
          "details": "The caller account is not authorized to perform an operation."
        }
      ]
    },
    "events": {
      "Approval(address,address,uint256)": {
        "details": "Emitted when the allowance of a `spender` for an `owner` is set by a call to {approve}. `value` is the new allowance."
      },
      "Paused(address)": {
        "details": "Emitted when the pause is triggered by `account`."
      },
      "Transfer(address,address,uint256)": {
        "details": "Emitted when `value` tokens are moved from one account (`from`) to another (`to`). Note that `value` may be zero."
      },
      "Unpaused(address)": {
        "details": "Emitted when the pause is lifted by `account`."
      }
    },
    "kind": "dev",
    "methods": {
      "allowance(address,address)": {
        "details": "Returns the remaining number of tokens that `spender` will be allowed to spend on behalf of `owner` through {transferFrom}. This is zero by default. This value changes when {approve} or {transferFrom} are called."
      },
      "approve(address,uint256)": {
        "details": "See {IERC20-approve}. NOTE: If `value` is the maximum `uint256`, the allowance is not updated on `transferFrom`. This is semantically equivalent to an infinite approval. Requirements: - `spender` cannot be the zero address."
      },
      "balanceOf(address)": {
        "details": "Returns the value of tokens owned by `account`."
      },
      "currentRewardPerRound()": {
        "details": "Uses bit-shift for halving: reward >> halvingCount"
      },
      "decimals()": {
        "details": "Returns the number of decimals used to get its user representation. For example, if `decimals` equals `2`, a balance of `505` tokens should be displayed to a user as `5.05` (`505 / 10 ** 2`). Tokens usually opt for a value of 18, imitating the relationship between Ether and Wei. This is the default value returned by this function, unless it's overridden. NOTE: This information is only used for _display_ purposes: it in no way affects any of the arithmetic of the contract, including {IERC20-balanceOf} and {IERC20-transfer}."
      },
      "executeSwap(uint256)": {
        "details": "External so it can be wrapped in try-catch within _update [C-01 fix]"
      },
      "name()": {
        "details": "Returns the name of the token."
      },
      "owner()": {
        "details": "Returns the address of the current owner."
      },
      "paused()": {
        "details": "Returns true if the contract is paused, and false otherwise."
      },
      "renounceOwnership()": {
        "details": "Leaves the contract without owner. It will not be possible to call `onlyOwner` functions. Can only be called by the current owner. NOTE: Renouncing ownership will leave the contract without an owner, thereby disabling any functionality that is only available to the owner."
      },
      "symbol()": {
        "details": "Returns the symbol of the token, usually a shorter version of the name."
      },
      "totalSupply()": {
        "details": "Returns the value of tokens in existence."
      },
      "transfer(address,uint256)": {
        "details": "See {IERC20-transfer}. Requirements: - `to` cannot be the zero address. - the caller must have a balance of at least `value`."
      },
      "transferFrom(address,address,uint256)": {
        "details": "See {IERC20-transferFrom}. Skips emitting an {Approval} event indicating an allowance update. This is not required by the ERC. See {xref-ERC20-_approve-address-address-uint256-bool-}[_approve]. NOTE: Does not update the allowance if the current allowance is the maximum `uint256`. Requirements: - `from` and `to` cannot be the zero address. - `from` must have a balance of at least `value`. - the caller must have allowance for ``from``'s tokens of at least `value`."
      },
      "transferOwnership(address)": {
        "details": "Transfers ownership of the contract to a new account (`newOwner`). Can only be called by the current owner."
      }
    },
    "stateVariables": {
      "_swapping": {
        "details": "Reentrancy lock for swap operations"
      }
    },
    "title": "AFGToken",
    "version": 1
  },
  "evm": {
    "gasEstimates": {
      "creation": {
        "codeDepositCost": "1270800",
        "executionCost": "infinite",
        "totalCost": "infinite"
      },
      "external": {
        "INITIAL_REWARD_PER_ROUND()": "293",
        "MAX_SUPPLY()": "400",
        "MAX_SWAP_THRESHOLD()": "931",
        "MAX_TAX_BPS()": "356",
        "MINING_POOL()": "554",
        "MIN_SWAP_THRESHOLD()": "422",
        "ROUNDS_PER_HALVING()": "840",
        "ROUND_DURATION()": "642",
        "TREASURY_PREMINT()": "444",
        "allowance(address,address)": "3350",
        "approve(address,uint256)": "24374",
        "balanceOf(address)": "2938",
        "currentRewardPerRound()": "infinite",
        "decimals()": "378",
        "deployedAt()": "infinite",
        "executeSwap(uint256)": "infinite",
        "isTaxExempt(address)": "2511",
        "mint(address,uint256)": "infinite",
        "minter()": "2323",
        "name()": "infinite",
        "owner()": "2873",
        "pause()": "30271",
        "paused()": "2697",
        "renounceOwnership()": "28594",
        "router()": "3162",
        "setMinter(address)": "28664",
        "setRouter(address)": "61630",
        "setSwapEnabled(bool)": "28417",
        "setSwapThreshold(uint256)": "26150",
        "setTaxBps(uint256)": "25908",
        "setTaxExempt(address,bool)": "28310",
        "swapEnabled()": "2779",
        "swapThreshold()": "2253",
        "symbol()": "infinite",
        "taxBps()": "2569",
        "totalMined()": "2635",
        "totalSupply()": "2371",
        "transfer(address,uint256)": "infinite",
        "transferFrom(address,address,uint256)": "infinite",
        "transferOwnership(address)": "29022",
        "treasury()": "infinite",
        "unpause()": "27902"
      },
      "internal": {
        "_update(address,address,uint256)": "infinite"
      }
    }
  },
  "storageLayout": {
    "storage": [
      {
        "astId": 307,
        "contract": "project/contracts/AFGToken.sol:AFGToken",
        "label": "_balances",
        "offset": 0,
        "slot": "0",
        "type": "t_mapping(t_address,t_uint256)"
      },
      {
        "astId": 313,
        "contract": "project/contracts/AFGToken.sol:AFGToken",
        "label": "_allowances",
        "offset": 0,
        "slot": "1",
        "type": "t_mapping(t_address,t_mapping(t_address,t_uint256))"
      },
      {
        "astId": 315,
        "contract": "project/contracts/AFGToken.sol:AFGToken",
        "label": "_totalSupply",
        "offset": 0,
        "slot": "2",
        "type": "t_uint256"
      },
      {
        "astId": 317,
        "contract": "project/contracts/AFGToken.sol:AFGToken",
        "label": "_name",
        "offset": 0,
        "slot": "3",
        "type": "t_string_storage"
      },
      {
        "astId": 319,
        "contract": "project/contracts/AFGToken.sol:AFGToken",
        "label": "_symbol",
        "offset": 0,
        "slot": "4",
        "type": "t_string_storage"
      },
      {
        "astId": 8,
        "contract": "project/contracts/AFGToken.sol:AFGToken",
        "label": "_owner",
        "offset": 0,
        "slot": "5",
        "type": "t_address"
      },
      {
        "astId": 2220,
        "contract": "project/contracts/AFGToken.sol:AFGToken",
        "label": "_paused",
        "offset": 20,
        "slot": "5",
        "type": "t_bool"
      },
      {
        "astId": 7418,
        "contract": "project/contracts/AFGToken.sol:AFGToken",
        "label": "router",
        "offset": 0,
        "slot": "6",
        "type": "t_contract(IUniswapV2Router02)7381"
      },
      {
        "astId": 7421,
        "contract": "project/contracts/AFGToken.sol:AFGToken",
        "label": "totalMined",
        "offset": 0,
        "slot": "7",
        "type": "t_uint256"
      },
      {
        "astId": 7424,
        "contract": "project/contracts/AFGToken.sol:AFGToken",
        "label": "minter",
        "offset": 0,
        "slot": "8",
        "type": "t_address"
      },
      {
        "astId": 7429,
        "contract": "project/contracts/AFGToken.sol:AFGToken",
        "label": "isTaxExempt",
        "offset": 0,
        "slot": "9",
        "type": "t_mapping(t_address,t_bool)"
      },
      {
        "astId": 7433,
        "contract": "project/contracts/AFGToken.sol:AFGToken",
        "label": "taxBps",
        "offset": 0,
        "slot": "10",
        "type": "t_uint256"
      },
      {
        "astId": 7441,
        "contract": "project/contracts/AFGToken.sol:AFGToken",
        "label": "swapThreshold",
        "offset": 0,
        "slot": "11",
        "type": "t_uint256"
      },
      {
        "astId": 7453,
        "contract": "project/contracts/AFGToken.sol:AFGToken",
        "label": "swapEnabled",
        "offset": 0,
        "slot": "12",
        "type": "t_bool"
      },
      {
        "astId": 7456,
        "contract": "project/contracts/AFGToken.sol:AFGToken",
        "label": "_swapping",
        "offset": 1,
        "slot": "12",
        "type": "t_bool"
      }
    ],
    "types": {
      "t_address": {
        "encoding": "inplace",
        "label": "address",
        "numberOfBytes": "20"
      },
      "t_bool": {
        "encoding": "inplace",
        "label": "bool",
        "numberOfBytes": "1"
      },
      "t_contract(IUniswapV2Router02)7381": {
        "encoding": "inplace",
        "label": "contract IUniswapV2Router02",
        "numberOfBytes": "20"
      },
      "t_mapping(t_address,t_bool)": {
        "encoding": "mapping",
        "key": "t_address",
        "label": "mapping(address => bool)",
        "numberOfBytes": "32",
        "value": "t_bool"
      },
      "t_mapping(t_address,t_mapping(t_address,t_uint256))": {
        "encoding": "mapping",
        "key": "t_address",
        "label": "mapping(address => mapping(address => uint256))",
        "numberOfBytes": "32",
        "value": "t_mapping(t_address,t_uint256)"
      },
      "t_mapping(t_address,t_uint256)": {
        "encoding": "mapping",
        "key": "t_address",
        "label": "mapping(address => uint256)",
        "numberOfBytes": "32",
        "value": "t_uint256"
      },
      "t_string_storage": {
        "encoding": "bytes",
        "label": "string",
        "numberOfBytes": "32"
      },
      "t_uint256": {
        "encoding": "inplace",
        "label": "uint256",
        "numberOfBytes": "32"
      }
    }
  },
  "userdoc": {
    "kind": "user",
    "methods": {
      "INITIAL_REWARD_PER_ROUND()": {
        "notice": "Initial reward per round: 90M / 2,016 ≈ 44,642 AFG"
      },
      "MAX_SWAP_THRESHOLD()": {
        "notice": "Maximum allowed swap threshold"
      },
      "MAX_TAX_BPS()": {
        "notice": "Maximum allowed tax rate (10%)"
      },
      "MIN_SWAP_THRESHOLD()": {
        "notice": "Minimum allowed swap threshold"
      },
      "ROUNDS_PER_HALVING()": {
        "notice": "Number of rounds per halving period (7 days * 288 rounds/day = 2,016)"
      },
      "ROUND_DURATION()": {
        "notice": "Round duration: 5 minutes"
      },
      "currentRewardPerRound()": {
        "notice": "Current reward per round based on halving schedule"
      },
      "executeSwap(uint256)": {
        "notice": "Execute auto-swap of accumulated AFG tax to BNB. Only callable by this contract."
      },
      "isTaxExempt(address)": {
        "notice": "Addresses exempt from transfer tax (protocol contracts, treasury, etc.)"
      },
      "mint(address,uint256)": {
        "notice": "Mint AFG rewards — only callable by RewardDistributor"
      },
      "minter()": {
        "notice": "Only this address can call mint() — set to RewardDistributor"
      },
      "swapEnabled()": {
        "notice": "Whether auto-swap is enabled"
      },
      "swapThreshold()": {
        "notice": "Minimum accumulated tax to trigger auto-swap"
      },
      "taxBps()": {
        "notice": "Transfer tax rate in basis points (default 300 = 3%, max 1000 = 10%)"
      },
      "totalMined()": {
        "notice": "Total AFG minted via mining"
      }
    },
    "notice": "ERC-20 token for AgentForge protocol   - Total supply cap: 100,000,000 AFG   - 10% (10M) pre-minted to treasury at deploy   - 90% (90M) released via problem-solving mining   - Configurable transfer tax (default 3%), with exempt addresses for protocol contracts   - Halving schedule based on elapsed time since deployment   - Auto-swap: accumulated tax AFG → BNB via PancakeSwap when threshold is reached",
    "version": 1
  },
  "argsData": "0x000000000000000000000000c3fa77c9d5cb9f1bb50d4c05a86d4a24cf4563e8000000000000000000000000d99d1c33f9fc3444f8101754abc46c52416550d1",
  "transaction": {
    "hash": "0x80512478b7bb4de7d206da6edfab9ff3311cf77e35c1f6b2da7d067f5ea03541",
    "nonce": "0x83c",
    "origin": "0xc3fa77c9d5cb9f1bb50d4c05a86d4a24cf4563e8"
  }
}