{
  "address": "0xeec290cbfca23ceac33650d94b6a8086f259b357",
  "abi": [
    {
      "inputs": [
        {
          "internalType": "uint256",
          "name": "_mintPrice",
          "type": "uint256"
        }
      ],
      "stateMutability": "nonpayable",
      "type": "constructor"
    },
    {
      "inputs": [
        {
          "internalType": "address",
          "name": "sender",
          "type": "address"
        },
        {
          "internalType": "uint256",
          "name": "tokenId",
          "type": "uint256"
        },
        {
          "internalType": "address",
          "name": "owner",
          "type": "address"
        }
      ],
      "name": "ERC721IncorrectOwner",
      "type": "error"
    },
    {
      "inputs": [
        {
          "internalType": "address",
          "name": "operator",
          "type": "address"
        },
        {
          "internalType": "uint256",
          "name": "tokenId",
          "type": "uint256"
        }
      ],
      "name": "ERC721InsufficientApproval",
      "type": "error"
    },
    {
      "inputs": [
        {
          "internalType": "address",
          "name": "approver",
          "type": "address"
        }
      ],
      "name": "ERC721InvalidApprover",
      "type": "error"
    },
    {
      "inputs": [
        {
          "internalType": "address",
          "name": "operator",
          "type": "address"
        }
      ],
      "name": "ERC721InvalidOperator",
      "type": "error"
    },
    {
      "inputs": [
        {
          "internalType": "address",
          "name": "owner",
          "type": "address"
        }
      ],
      "name": "ERC721InvalidOwner",
      "type": "error"
    },
    {
      "inputs": [
        {
          "internalType": "address",
          "name": "receiver",
          "type": "address"
        }
      ],
      "name": "ERC721InvalidReceiver",
      "type": "error"
    },
    {
      "inputs": [
        {
          "internalType": "address",
          "name": "sender",
          "type": "address"
        }
      ],
      "name": "ERC721InvalidSender",
      "type": "error"
    },
    {
      "inputs": [
        {
          "internalType": "uint256",
          "name": "tokenId",
          "type": "uint256"
        }
      ],
      "name": "ERC721NonexistentToken",
      "type": "error"
    },
    {
      "inputs": [],
      "name": "EnforcedPause",
      "type": "error"
    },
    {
      "inputs": [],
      "name": "ExpectedPause",
      "type": "error"
    },
    {
      "inputs": [],
      "name": "InsufficientPayment",
      "type": "error"
    },
    {
      "inputs": [],
      "name": "NotGameMaster",
      "type": "error"
    },
    {
      "inputs": [
        {
          "internalType": "address",
          "name": "owner",
          "type": "address"
        }
      ],
      "name": "OwnableInvalidOwner",
      "type": "error"
    },
    {
      "inputs": [
        {
          "internalType": "address",
          "name": "account",
          "type": "address"
        }
      ],
      "name": "OwnableUnauthorizedAccount",
      "type": "error"
    },
    {
      "inputs": [],
      "name": "ReentrancyGuardReentrantCall",
      "type": "error"
    },
    {
      "inputs": [],
      "name": "TokenDoesNotExist",
      "type": "error"
    },
    {
      "inputs": [],
      "name": "ZeroAddress",
      "type": "error"
    },
    {
      "anonymous": false,
      "inputs": [
        {
          "indexed": true,
          "internalType": "uint256",
          "name": "tokenId",
          "type": "uint256"
        },
        {
          "indexed": true,
          "internalType": "address",
          "name": "to",
          "type": "address"
        },
        {
          "indexed": false,
          "internalType": "uint8",
          "name": "intelligence",
          "type": "uint8"
        },
        {
          "indexed": false,
          "internalType": "uint8",
          "name": "speed",
          "type": "uint8"
        },
        {
          "indexed": false,
          "internalType": "uint8",
          "name": "specialization",
          "type": "uint8"
        },
        {
          "indexed": false,
          "internalType": "uint8",
          "name": "talentRarity",
          "type": "uint8"
        }
      ],
      "name": "AgentMinted",
      "type": "event"
    },
    {
      "anonymous": false,
      "inputs": [
        {
          "indexed": true,
          "internalType": "address",
          "name": "owner",
          "type": "address"
        },
        {
          "indexed": true,
          "internalType": "address",
          "name": "approved",
          "type": "address"
        },
        {
          "indexed": true,
          "internalType": "uint256",
          "name": "tokenId",
          "type": "uint256"
        }
      ],
      "name": "Approval",
      "type": "event"
    },
    {
      "anonymous": false,
      "inputs": [
        {
          "indexed": true,
          "internalType": "address",
          "name": "owner",
          "type": "address"
        },
        {
          "indexed": true,
          "internalType": "address",
          "name": "operator",
          "type": "address"
        },
        {
          "indexed": false,
          "internalType": "bool",
          "name": "approved",
          "type": "bool"
        }
      ],
      "name": "ApprovalForAll",
      "type": "event"
    },
    {
      "anonymous": false,
      "inputs": [
        {
          "indexed": true,
          "internalType": "uint256",
          "name": "tokenId",
          "type": "uint256"
        },
        {
          "indexed": false,
          "internalType": "string",
          "name": "experience",
          "type": "string"
        }
      ],
      "name": "ExperienceUpdated",
      "type": "event"
    },
    {
      "anonymous": false,
      "inputs": [
        {
          "indexed": true,
          "internalType": "address",
          "name": "account",
          "type": "address"
        },
        {
          "indexed": false,
          "internalType": "bool",
          "name": "enabled",
          "type": "bool"
        }
      ],
      "name": "GameMasterSet",
      "type": "event"
    },
    {
      "anonymous": false,
      "inputs": [
        {
          "indexed": false,
          "internalType": "uint256",
          "name": "newPrice",
          "type": "uint256"
        }
      ],
      "name": "MintPriceUpdated",
      "type": "event"
    },
    {
      "anonymous": false,
      "inputs": [
        {
          "indexed": true,
          "internalType": "address",
          "name": "previousOwner",
          "type": "address"
        },
        {
          "indexed": true,
          "internalType": "address",
          "name": "newOwner",
          "type": "address"
        }
      ],
      "name": "OwnershipTransferred",
      "type": "event"
    },
    {
      "anonymous": false,
      "inputs": [
        {
          "indexed": false,
          "internalType": "address",
          "name": "account",
          "type": "address"
        }
      ],
      "name": "Paused",
      "type": "event"
    },
    {
      "anonymous": false,
      "inputs": [
        {
          "indexed": true,
          "internalType": "address",
          "name": "newRenderer",
          "type": "address"
        }
      ],
      "name": "RendererUpdated",
      "type": "event"
    },
    {
      "anonymous": false,
      "inputs": [
        {
          "indexed": true,
          "internalType": "address",
          "name": "from",
          "type": "address"
        },
        {
          "indexed": true,
          "internalType": "address",
          "name": "to",
          "type": "address"
        },
        {
          "indexed": true,
          "internalType": "uint256",
          "name": "tokenId",
          "type": "uint256"
        }
      ],
      "name": "Transfer",
      "type": "event"
    },
    {
      "anonymous": false,
      "inputs": [
        {
          "indexed": false,
          "internalType": "address",
          "name": "account",
          "type": "address"
        }
      ],
      "name": "Unpaused",
      "type": "event"
    },
    {
      "anonymous": false,
      "inputs": [
        {
          "indexed": true,
          "internalType": "uint256",
          "name": "tokenId",
          "type": "uint256"
        },
        {
          "indexed": false,
          "internalType": "string",
          "name": "uri",
          "type": "string"
        },
        {
          "indexed": false,
          "internalType": "bytes32",
          "name": "hash",
          "type": "bytes32"
        }
      ],
      "name": "VaultUpdated",
      "type": "event"
    },
    {
      "anonymous": false,
      "inputs": [
        {
          "indexed": true,
          "internalType": "uint256",
          "name": "tokenId",
          "type": "uint256"
        },
        {
          "indexed": false,
          "internalType": "uint64",
          "name": "amount",
          "type": "uint64"
        },
        {
          "indexed": false,
          "internalType": "uint8",
          "name": "newLevel",
          "type": "uint8"
        }
      ],
      "name": "XPGranted",
      "type": "event"
    },
    {
      "inputs": [
        {
          "internalType": "address",
          "name": "to",
          "type": "address"
        },
        {
          "internalType": "uint256",
          "name": "tokenId",
          "type": "uint256"
        }
      ],
      "name": "approve",
      "outputs": [],
      "stateMutability": "nonpayable",
      "type": "function"
    },
    {
      "inputs": [
        {
          "internalType": "address",
          "name": "owner",
          "type": "address"
        }
      ],
      "name": "balanceOf",
      "outputs": [
        {
          "internalType": "uint256",
          "name": "",
          "type": "uint256"
        }
      ],
      "stateMutability": "view",
      "type": "function"
    },
    {
      "inputs": [
        {
          "internalType": "uint256",
          "name": "tokenId",
          "type": "uint256"
        }
      ],
      "name": "burn",
      "outputs": [],
      "stateMutability": "nonpayable",
      "type": "function"
    },
    {
      "inputs": [
        {
          "internalType": "uint256",
          "name": "",
          "type": "uint256"
        }
      ],
      "name": "experience",
      "outputs": [
        {
          "internalType": "string",
          "name": "",
          "type": "string"
        }
      ],
      "stateMutability": "view",
      "type": "function"
    },
    {
      "inputs": [
        {
          "internalType": "uint256",
          "name": "tokenId",
          "type": "uint256"
        }
      ],
      "name": "getApproved",
      "outputs": [
        {
          "internalType": "address",
          "name": "",
          "type": "address"
        }
      ],
      "stateMutability": "view",
      "type": "function"
    },
    {
      "inputs": [
        {
          "internalType": "uint256",
          "name": "tokenId",
          "type": "uint256"
        }
      ],
      "name": "getLevel",
      "outputs": [
        {
          "internalType": "uint8",
          "name": "",
          "type": "uint8"
        }
      ],
      "stateMutability": "view",
      "type": "function"
    },
    {
      "inputs": [
        {
          "internalType": "uint256",
          "name": "tokenId",
          "type": "uint256"
        }
      ],
      "name": "getStats",
      "outputs": [
        {
          "components": [
            {
              "internalType": "uint64",
              "name": "xp",
              "type": "uint64"
            },
            {
              "internalType": "uint8",
              "name": "level",
              "type": "uint8"
            },
            {
              "internalType": "uint32",
              "name": "problemsSolved",
              "type": "uint32"
            },
            {
              "internalType": "uint32",
              "name": "problemsAttempted",
              "type": "uint32"
            },
            {
              "internalType": "uint64",
              "name": "mintedAt",
              "type": "uint64"
            }
          ],
          "internalType": "struct AgentNFA.AgentStats",
          "name": "",
          "type": "tuple"
        }
      ],
      "stateMutability": "view",
      "type": "function"
    },
    {
      "inputs": [
        {
          "internalType": "uint256",
          "name": "tokenId",
          "type": "uint256"
        }
      ],
      "name": "getTier",
      "outputs": [
        {
          "internalType": "uint8",
          "name": "",
          "type": "uint8"
        }
      ],
      "stateMutability": "view",
      "type": "function"
    },
    {
      "inputs": [
        {
          "internalType": "uint256",
          "name": "tokenId",
          "type": "uint256"
        }
      ],
      "name": "getTraits",
      "outputs": [
        {
          "components": [
            {
              "internalType": "uint8",
              "name": "intelligence",
              "type": "uint8"
            },
            {
              "internalType": "uint8",
              "name": "speed",
              "type": "uint8"
            },
            {
              "internalType": "enum AgentNFA.Specialization",
              "name": "specialization",
              "type": "uint8"
            },
            {
              "internalType": "enum AgentNFA.TalentRarity",
              "name": "talentRarity",
              "type": "uint8"
            }
          ],
          "internalType": "struct AgentNFA.AgentTraits",
          "name": "",
          "type": "tuple"
        }
      ],
      "stateMutability": "view",
      "type": "function"
    },
    {
      "inputs": [
        {
          "internalType": "uint256",
          "name": "tokenId",
          "type": "uint256"
        },
        {
          "internalType": "uint64",
          "name": "amount",
          "type": "uint64"
        }
      ],
      "name": "grantXP",
      "outputs": [],
      "stateMutability": "nonpayable",
      "type": "function"
    },
    {
      "inputs": [
        {
          "internalType": "address",
          "name": "owner",
          "type": "address"
        },
        {
          "internalType": "address",
          "name": "operator",
          "type": "address"
        }
      ],
      "name": "isApprovedForAll",
      "outputs": [
        {
          "internalType": "bool",
          "name": "",
          "type": "bool"
        }
      ],
      "stateMutability": "view",
      "type": "function"
    },
    {
      "inputs": [
        {
          "internalType": "uint256",
          "name": "tokenId",
          "type": "uint256"
        }
      ],
      "name": "isEligible",
      "outputs": [
        {
          "internalType": "bool",
          "name": "",
          "type": "bool"
        }
      ],
      "stateMutability": "view",
      "type": "function"
    },
    {
      "inputs": [
        {
          "internalType": "address",
          "name": "",
          "type": "address"
        }
      ],
      "name": "isGameMaster",
      "outputs": [
        {
          "internalType": "bool",
          "name": "",
          "type": "bool"
        }
      ],
      "stateMutability": "view",
      "type": "function"
    },
    {
      "inputs": [
        {
          "internalType": "uint256",
          "name": "",
          "type": "uint256"
        }
      ],
      "name": "levelThresholds",
      "outputs": [
        {
          "internalType": "uint64",
          "name": "",
          "type": "uint64"
        }
      ],
      "stateMutability": "view",
      "type": "function"
    },
    {
      "inputs": [],
      "name": "metadataRenderer",
      "outputs": [
        {
          "internalType": "contract IMetadataRenderer",
          "name": "",
          "type": "address"
        }
      ],
      "stateMutability": "view",
      "type": "function"
    },
    {
      "inputs": [],
      "name": "mint",
      "outputs": [
        {
          "internalType": "uint256",
          "name": "",
          "type": "uint256"
        }
      ],
      "stateMutability": "payable",
      "type": "function"
    },
    {
      "inputs": [],
      "name": "mintPrice",
      "outputs": [
        {
          "internalType": "uint256",
          "name": "",
          "type": "uint256"
        }
      ],
      "stateMutability": "view",
      "type": "function"
    },
    {
      "inputs": [],
      "name": "name",
      "outputs": [
        {
          "internalType": "string",
          "name": "",
          "type": "string"
        }
      ],
      "stateMutability": "view",
      "type": "function"
    },
    {
      "inputs": [],
      "name": "owner",
      "outputs": [
        {
          "internalType": "address",
          "name": "",
          "type": "address"
        }
      ],
      "stateMutability": "view",
      "type": "function"
    },
    {
      "inputs": [
        {
          "internalType": "uint256",
          "name": "tokenId",
          "type": "uint256"
        }
      ],
      "name": "ownerOf",
      "outputs": [
        {
          "internalType": "address",
          "name": "",
          "type": "address"
        }
      ],
      "stateMutability": "view",
      "type": "function"
    },
    {
      "inputs": [],
      "name": "pause",
      "outputs": [],
      "stateMutability": "nonpayable",
      "type": "function"
    },
    {
      "inputs": [],
      "name": "paused",
      "outputs": [
        {
          "internalType": "bool",
          "name": "",
          "type": "bool"
        }
      ],
      "stateMutability": "view",
      "type": "function"
    },
    {
      "inputs": [
        {
          "internalType": "uint256",
          "name": "tokenId",
          "type": "uint256"
        }
      ],
      "name": "recordAttempt",
      "outputs": [],
      "stateMutability": "nonpayable",
      "type": "function"
    },
    {
      "inputs": [
        {
          "internalType": "uint256",
          "name": "tokenId",
          "type": "uint256"
        }
      ],
      "name": "recordSolve",
      "outputs": [],
      "stateMutability": "nonpayable",
      "type": "function"
    },
    {
      "inputs": [],
      "name": "renounceOwnership",
      "outputs": [],
      "stateMutability": "nonpayable",
      "type": "function"
    },
    {
      "inputs": [
        {
          "internalType": "address",
          "name": "from",
          "type": "address"
        },
        {
          "internalType": "address",
          "name": "to",
          "type": "address"
        },
        {
          "internalType": "uint256",
          "name": "tokenId",
          "type": "uint256"
        }
      ],
      "name": "safeTransferFrom",
      "outputs": [],
      "stateMutability": "nonpayable",
      "type": "function"
    },
    {
      "inputs": [
        {
          "internalType": "address",
          "name": "from",
          "type": "address"
        },
        {
          "internalType": "address",
          "name": "to",
          "type": "address"
        },
        {
          "internalType": "uint256",
          "name": "tokenId",
          "type": "uint256"
        },
        {
          "internalType": "bytes",
          "name": "data",
          "type": "bytes"
        }
      ],
      "name": "safeTransferFrom",
      "outputs": [],
      "stateMutability": "nonpayable",
      "type": "function"
    },
    {
      "inputs": [
        {
          "internalType": "address",
          "name": "operator",
          "type": "address"
        },
        {
          "internalType": "bool",
          "name": "approved",
          "type": "bool"
        }
      ],
      "name": "setApprovalForAll",
      "outputs": [],
      "stateMutability": "nonpayable",
      "type": "function"
    },
    {
      "inputs": [
        {
          "internalType": "uint256",
          "name": "tokenId",
          "type": "uint256"
        },
        {
          "internalType": "string",
          "name": "_experience",
          "type": "string"
        }
      ],
      "name": "setExperience",
      "outputs": [],
      "stateMutability": "nonpayable",
      "type": "function"
    },
    {
      "inputs": [
        {
          "internalType": "address",
          "name": "account",
          "type": "address"
        },
        {
          "internalType": "bool",
          "name": "enabled",
          "type": "bool"
        }
      ],
      "name": "setGameMaster",
      "outputs": [],
      "stateMutability": "nonpayable",
      "type": "function"
    },
    {
      "inputs": [
        {
          "internalType": "address",
          "name": "_renderer",
          "type": "address"
        }
      ],
      "name": "setMetadataRenderer",
      "outputs": [],
      "stateMutability": "nonpayable",
      "type": "function"
    },
    {
      "inputs": [
        {
          "internalType": "uint256",
          "name": "_mintPrice",
          "type": "uint256"
        }
      ],
      "name": "setMintPrice",
      "outputs": [],
      "stateMutability": "nonpayable",
      "type": "function"
    },
    {
      "inputs": [
        {
          "internalType": "uint256",
          "name": "tokenId",
          "type": "uint256"
        },
        {
          "internalType": "string",
          "name": "_uri",
          "type": "string"
        },
        {
          "internalType": "bytes32",
          "name": "_hash",
          "type": "bytes32"
        }
      ],
      "name": "setVault",
      "outputs": [],
      "stateMutability": "nonpayable",
      "type": "function"
    },
    {
      "inputs": [
        {
          "internalType": "uint256",
          "name": "",
          "type": "uint256"
        }
      ],
      "name": "stats",
      "outputs": [
        {
          "internalType": "uint64",
          "name": "xp",
          "type": "uint64"
        },
        {
          "internalType": "uint8",
          "name": "level",
          "type": "uint8"
        },
        {
          "internalType": "uint32",
          "name": "problemsSolved",
          "type": "uint32"
        },
        {
          "internalType": "uint32",
          "name": "problemsAttempted",
          "type": "uint32"
        },
        {
          "internalType": "uint64",
          "name": "mintedAt",
          "type": "uint64"
        }
      ],
      "stateMutability": "view",
      "type": "function"
    },
    {
      "inputs": [
        {
          "internalType": "bytes4",
          "name": "interfaceId",
          "type": "bytes4"
        }
      ],
      "name": "supportsInterface",
      "outputs": [
        {
          "internalType": "bool",
          "name": "",
          "type": "bool"
        }
      ],
      "stateMutability": "view",
      "type": "function"
    },
    {
      "inputs": [],
      "name": "symbol",
      "outputs": [
        {
          "internalType": "string",
          "name": "",
          "type": "string"
        }
      ],
      "stateMutability": "view",
      "type": "function"
    },
    {
      "inputs": [
        {
          "internalType": "uint256",
          "name": "tokenId",
          "type": "uint256"
        }
      ],
      "name": "tokenURI",
      "outputs": [
        {
          "internalType": "string",
          "name": "",
          "type": "string"
        }
      ],
      "stateMutability": "view",
      "type": "function"
    },
    {
      "inputs": [],
      "name": "totalSupply",
      "outputs": [
        {
          "internalType": "uint256",
          "name": "",
          "type": "uint256"
        }
      ],
      "stateMutability": "view",
      "type": "function"
    },
    {
      "inputs": [
        {
          "internalType": "uint256",
          "name": "",
          "type": "uint256"
        }
      ],
      "name": "traits",
      "outputs": [
        {
          "internalType": "uint8",
          "name": "intelligence",
          "type": "uint8"
        },
        {
          "internalType": "uint8",
          "name": "speed",
          "type": "uint8"
        },
        {
          "internalType": "enum AgentNFA.Specialization",
          "name": "specialization",
          "type": "uint8"
        },
        {
          "internalType": "enum AgentNFA.TalentRarity",
          "name": "talentRarity",
          "type": "uint8"
        }
      ],
      "stateMutability": "view",
      "type": "function"
    },
    {
      "inputs": [
        {
          "internalType": "address",
          "name": "from",
          "type": "address"
        },
        {
          "internalType": "address",
          "name": "to",
          "type": "address"
        },
        {
          "internalType": "uint256",
          "name": "tokenId",
          "type": "uint256"
        }
      ],
      "name": "transferFrom",
      "outputs": [],
      "stateMutability": "nonpayable",
      "type": "function"
    },
    {
      "inputs": [
        {
          "internalType": "address",
          "name": "newOwner",
          "type": "address"
        }
      ],
      "name": "transferOwnership",
      "outputs": [],
      "stateMutability": "nonpayable",
      "type": "function"
    },
    {
      "inputs": [],
      "name": "unpause",
      "outputs": [],
      "stateMutability": "nonpayable",
      "type": "function"
    },
    {
      "inputs": [
        {
          "internalType": "uint256",
          "name": "",
          "type": "uint256"
        }
      ],
      "name": "vaultHash",
      "outputs": [
        {
          "internalType": "bytes32",
          "name": "",
          "type": "bytes32"
        }
      ],
      "stateMutability": "view",
      "type": "function"
    },
    {
      "inputs": [
        {
          "internalType": "uint256",
          "name": "",
          "type": "uint256"
        }
      ],
      "name": "vaultURI",
      "outputs": [
        {
          "internalType": "string",
          "name": "",
          "type": "string"
        }
      ],
      "stateMutability": "view",
      "type": "function"
    },
    {
      "inputs": [],
      "name": "withdraw",
      "outputs": [],
      "stateMutability": "nonpayable",
      "type": "function"
    }
  ],
  "contractName": "AgentNFA",
  "sourceName": "contracts/AgentNFA.sol",
  "bytecode": "0x60806040523461048957612c196020813803918261001c8161048d565b9384928339810103126104895751610034604061048d565b90600e82526d4167656e74466f726765204e464160901b602083015261005a604061048d565b60058152641051d1539560da1b602082015282519091906001600160401b038111610392575f54600181811c9116801561047f575b602082101461037457601f8111610412575b506020601f82116001146103b157819293945f926103a6575b50508160011b915f199060031b1c1916175f555b81516001600160401b03811161039257600154600181811c91168015610388575b602082101461037457601f8111610306575b50602092601f82116001146102a557928192935f9261029a575b50508160011b915f199060031b1c1916176001555b33156102875760068054336001600160a01b0319821681179092556001600160a01b03167f8be0079c531659141344cd1fd0a4f28419497f9722a3daafe3b4186f6b6457e05f80a360016007819055600991909155600855790258000000000000012c00000000000000640000000000000000601155790af0000000000000083400000000000005dc00000000000003e86012557919c8000000000000157c00000000000011940000000000000e10601355792ee00000000000002904000000000000238c0000000000001e78601455794a3800000000000042cc0000000000003bc4000000000000352060155560065460a081901c60ff166102785760ff60a01b1916600160a01b176006556040513381527f62e78cea01bee320cd4e420270b5ea74000d11b0c9f74754ebdbfc544b05a25890602090a160405161276690816104b38239f35b63d93c066560e01b5f5260045ffd5b631e4fbdf760e01b5f525f60045260245ffd5b015190505f8061011b565b601f1982169360015f52805f20915f5b8681106102ee57508360019596106102d6575b505050811b01600155610130565b01515f1960f88460031b161c191690555f80806102c8565b919260206001819286850151815501940192016102b5565b818111156101015760015f52601f820160051c7fb10e2d527612073b26eecdfd717e6a320cf44b4afac2b0732d9fcbe2b7fa0cf66020841061036c575b81601f9101920160051c03905f5b82811061035f575050610101565b5f82820155600101610351565b5f9150610343565b634e487b7160e01b5f52602260045260245ffd5b90607f16906100ef565b634e487b7160e01b5f52604160045260245ffd5b015190505f806100ba565b601f198216905f8052805f20915f5b8181106103fa575095836001959697106103e2575b505050811b015f556100ce565b01515f1960f88460031b161c191690555f80806103d5565b9192602060018192868b0151815501940192016103c0565b818111156100a1575f8052601f820160051c7f290decd9548b62a8d60345a988386fc84ba6bc95484008f6362f93160ef3e56360208410610477575b81601f9101920160051c03905f5b82811061046a5750506100a1565b5f8282015560010161045c565b5f915061044e565b90607f169061008f565b5f80fd5b6040519190601f01601f191682016001600160401b038111838210176103925760405256fe6080806040526004361015610012575f80fd5b5f3560e01c90816301ffc9a714611e1c57508063053b56c014611de757806306fdde0314611d45578063081812fc14611d08578063095ea7b314611c035780630c9d332c14611bd95780631249c58b146115cf57806318160ddd146115a657806323b872dd1461158f5780632d72225b14611531578063344afaa6146113b65780633ccfd60b1461137a5780633f4ba83a146112da57806342842e0e146112ab57806342966c681461128e5780634f062c5a146112655780635c445412146112245780635c975abb146111ff5780636352211e146111d057806365de1b5b146111585780636817c76c1461113b578063703199701461111557806370a08231146110ab578063715018a6146110525780637974b06f14610fb85780637a35696c14610dbb5780637b30396514610cee5780638456cb5914610c6357806386481d4014610c295780638da5cb5b14610c035780638deddd8f14610bc657806395d89b4114610afc57806398bc057214610a4c578063a22cb465146109a5578063ad217ae51461093c578063b88d4fde146108a6578063c87b56dd14610737578063d3e971651461070d578063dc27522b146106cb578063dcf8d0ce146104aa578063e1dc0761146103e2578063e985e9c514610389578063f2fde38b146102eb578063f4a0a5281461029f5763fd4fe8a81461020b575f80fd5b3461029b57602060031936011261029b576001600160a01b0361022c611f10565b6102346125b1565b16801561027357806001600160a01b031960105416176010557f482cbbbcf912da3be80deb8503ae1e94c0b7d5d1d0ec0af3d9d6403e06e609ee5f80a2005b7fd92e233d000000000000000000000000000000000000000000000000000000005f5260045ffd5b5f80fd5b3461029b57602060031936011261029b577f525b762709cc2a983aec5ccdfd807a061f993c91090b5bcd7da92ca254976aaa60206004356102de6125b1565b80600955604051908152a1005b3461029b57602060031936011261029b576001600160a01b0361030c611f10565b6103146125b1565b16801561035d576001600160a01b03600654826001600160a01b0319821617600655167f8be0079c531659141344cd1fd0a4f28419497f9722a3daafe3b4186f6b6457e05f80a3005b7f1e4fbdf7000000000000000000000000000000000000000000000000000000005f525f60045260245ffd5b3461029b57604060031936011261029b576103a2611f10565b6001600160a01b036103b2611f26565b91165f5260056020526001600160a01b0360405f2091165f52602052602060ff60405f2054166040519015158152f35b3461029b57602060031936011261029b576004356103fe61216b565b50610408816123fe565b505f52600a60205260405f206040519061042182612038565b549060ff821681526020810160ff8360081c16815260ff604083019361044c828260101c168661218f565b60181c1690606083019060058310156104965760809460ff6104899261049495855281604051975116875251166020860152516040850190611f76565b516060830190611f83565bf35b634e487b7160e01b5f52602160045260245ffd5b3461029b57604060031936011261029b5760043560243567ffffffffffffffff811161029b576104de903690600401611fee565b9190335f52600f60205260ff60405f20541615806106b6575b61068e57610504826123fe565b50815f52600c60205260405f209267ffffffffffffffff811161067a5761052b8454612093565b601f8111610629575b505f93601f82116001146105a757817f9b733fa59050934675fbe328b148d6732ed27369457a9afa81215063207c8e9c94955f9161059c575b508260011b905f198460031b1c19161790555b6105976040519283926020845260208401916123de565b0390a2005b90508301358661056d565b601f19821694815f5260205f20905f5b8781106106115750837f9b733fa59050934675fbe328b148d6732ed27369457a9afa81215063207c8e9c9697106105f8575b5050600182811b019055610580565b8401355f19600385901b60f8161c1916905585806105e9565b909160206001819285890135815501930191016105b7565b8181111561053457845f5260205f20601f830160051c9060208410610672575b81601f9101920160051c03905f5b828110610665575050610534565b5f82820155600101610657565b5f9150610649565b634e487b7160e01b5f52604160045260245ffd5b7f921fd1d6000000000000000000000000000000000000000000000000000000005f5260045ffd5b506001600160a01b03600654163314156104f7565b3461029b57602060031936011261029b576004355f52600d6020526107096106f560405f206120cb565b604051918291602083526020830190611eeb565b0390f35b3461029b57602060031936011261029b576004355f52600c6020526107096106f560405f206120cb565b3461029b57602060031936011261029b57600435610754816123fe565b506001600160a01b0360105416908115610848575f906024604051809481937f894b4c2e00000000000000000000000000000000000000000000000000000000835260048301525afa801561083d575f906107c2575b61070990604051918291602083526020830190611eeb565b503d805f833e6107d28183612054565b81019060208183031261029b5780519067ffffffffffffffff821161029b57019080601f8301121561029b57815161080981612077565b916108176040519384612054565b8183526020828501011161029b576020815f928261070996018386015e830101526107aa565b6040513d5f823e3d90fd5b60646040517f08c379a000000000000000000000000000000000000000000000000000000000815260206004820152601060248201527f52656e6465726572206e6f7420736574000000000000000000000000000000006044820152fd5b3461029b57608060031936011261029b576108bf611f10565b6108c7611f26565b906044356064359267ffffffffffffffff841161029b573660238501121561029b578360040135926108f884612077565b936109066040519586612054565b808552366024828801011161029b576020815f92602461093a9901838901378601015261093483838361219b565b336125f1565b005b3461029b57602060031936011261029b576004355f52600b60205260a060405f205467ffffffffffffffff60405191818116835260ff8160401c16602084015263ffffffff8160481c16604084015263ffffffff8160681c16606084015260881c166080820152f35b3461029b576001600160a01b036109bb36611fbf565b9116908115610a2057335f52600560205260405f20825f526020526109f08160405f209060ff60ff1983541691151516179055565b60405190151581527f17307eab39ab6107e8899845ad3d59bd9653f200f220920489ca2b5937696c3160203392a3005b507f5b08ba18000000000000000000000000000000000000000000000000000000005f5260045260245ffd5b3461029b57602060031936011261029b57600435335f52600f60205260ff60405f2054161580610ae7575b61068e57610a84816123fe565b505f52600b60205261093a60405f20610aa663ffffffff825460681c166123c7565b7fffffffffffffffffffffffffffffff00000000ffffffffffffffffffffffffff70ffffffff0000000000000000000000000083549260681b169116179055565b506001600160a01b0360065416331415610a77565b3461029b575f60031936011261029b576040515f600154610b1c81612093565b8084529060018116908115610ba25750600114610b44575b610709836106f581850382612054565b60015f9081527fb10e2d527612073b26eecdfd717e6a320cf44b4afac2b0732d9fcbe2b7fa0cf6939250905b808210610b88575090915081016020016106f5610b34565b919260018160209254838588010152019101909291610b70565b60ff191660208086019190915291151560051b840190910191506106f59050610b34565b3461029b57602060031936011261029b576001600160a01b03610be7611f10565b165f52600f602052602060ff60405f2054166040519015158152f35b3461029b575f60031936011261029b5760206001600160a01b0360065416604051908152f35b3461029b57602060031936011261029b57600435610c46816123fe565b505f52600b602052602060ff60405f205460401c16604051908152f35b3461029b575f60031936011261029b57610c7b6125b1565b610c83612431565b740100000000000000000000000000000000000000007fffffffffffffffffffffff00ffffffffffffffffffffffffffffffffffffffff60065416176006557f62e78cea01bee320cd4e420270b5ea74000d11b0c9f74754ebdbfc544b05a2586020604051338152a1005b3461029b57602060031936011261029b576004355f6080604051610d118161201c565b8281528260208201528260408201528260608201520152610d31816123fe565b505f52600b60205260a060405f2067ffffffffffffffff60405191610d558361201c565b5463ffffffff82821693848152816020820160ff8560401c16815260ff6040840191838760481c1683528760806060870196868a60681c168852019760881c16875260405198895251166020880152511660408601525116606084015251166080820152f35b3461029b57606060031936011261029b5760043560243567ffffffffffffffff811161029b57610def903690600401611fee565b919060443592335f52600f60205260ff60405f2054161580610fa3575b61068e57610e19836123fe565b50825f52600d60205260405f209367ffffffffffffffff821161067a57610e408554612093565b601f8111610f52575b505f94601f8311600114610ed057827fd926875444bf5c47d2e39283ed8747c94409a837e1d52d151d8b3f8378b7f81895965f91610ec5575b508360011b905f198560031b1c19161790555b845f52600e6020528060405f2055610eba6040519384936040855260408501916123de565b9060208301520390a2005b905084013587610e82565b601f19831695815f5260205f20905f5b888110610f3a5750847fd926875444bf5c47d2e39283ed8747c94409a837e1d52d151d8b3f8378b7f818979810610f21575b5050600183811b019055610e95565b8501355f19600386901b60f8161c191690558680610f12565b9091602060018192858a013581550193019101610ee0565b82811115610e4957855f5260205f20601f840160051c9060208510610f9b575b81601f9101920160051c03905f5b828110610f8e575050610e49565b5f82820155600101610f80565b5f9150610f72565b506001600160a01b0360065416331415610e0c565b3461029b57602060031936011261029b57600435335f52600f60205260ff60405f205416158061103d575b61068e57610ff0816123fe565b505f52600b60205261093a60405f2061101263ffffffff825460481c166123c7565b6cffffffff000000000000000000196cffffffff00000000000000000083549260481b169116179055565b506001600160a01b0360065416331415610fe3565b3461029b575f60031936011261029b5761106a6125b1565b5f6001600160a01b036006546001600160a01b03198116600655167f8be0079c531659141344cd1fd0a4f28419497f9722a3daafe3b4186f6b6457e08280a3005b3461029b57602060031936011261029b576001600160a01b036110cc611f10565b1680156110e9575f526003602052602060405f2054604051908152f35b7f89c62b64000000000000000000000000000000000000000000000000000000005f525f60045260245ffd5b3461029b575f60031936011261029b5760206001600160a01b0360105416604051908152f35b3461029b575f60031936011261029b576020600954604051908152f35b3461029b576001600160a01b0361116e36611fbf565b91906111786125b1565b169081156102735760207f75a49e9684c6cd7e6220b264c906894a7a1a47a387375006e9edaec1282bf15f91835f52600f82526111c58160405f209060ff60ff1983541691151516179055565b6040519015158152a2005b3461029b57602060031936011261029b5760206111ee6004356123fe565b6001600160a01b0360405191168152f35b3461029b575f60031936011261029b57602060ff60065460a01c166040519015158152f35b3461029b57602060031936011261029b57600435601481101561029b5767ffffffffffffffff611255602092611f90565b90549060031b1c16604051908152f35b3461029b57602060031936011261029b57602061128360043561238b565b60ff60405191168152f35b3461029b57602060031936011261029b5761093a33600435612468565b3461029b5761093a6112bc36611f3c565b90604051926112cc602085612054565b5f845261093483838361219b565b3461029b575f60031936011261029b576112f26125b1565b60065460ff8160a01c1615611352577fffffffffffffffffffffff00ffffffffffffffffffffffffffffffffffffffff166006557f5db9ee0a495bf2e6ff9c91a7834c1ba4fdd244a5e8aa4e537bd38aeae4b073aa6020604051338152a1005b7f8dfc202b000000000000000000000000000000000000000000000000000000005f5260045ffd5b3461029b575f60031936011261029b576113926125b1565b5f8080806001600160a01b036006541647905af16113ae61235c565b501561029b57005b3461029b57604060031936011261029b576004356024359067ffffffffffffffff821680920361029b57335f52600f60205260ff60405f205416158061151c575b61068e57611404816123fe565b50805f52600b60205260405f20908267ffffffffffffffff8354160167ffffffffffffffff81116114a557825467ffffffffffffffff191667ffffffffffffffff909116908117808455909190849060401c60ff16805b60ff82169060148210156114b95767ffffffffffffffff61147b84611f90565b905460039190911b1c1686106114b9575060010160ff81116114a557600160ff919201169061145b565b634e487b7160e01b5f52601160045260245ffd5b90507fcb67ee35947d8a42d27eb1ce40298590a03f59f91afdf260f72ab74c0cb6a876945060ff915061150e81604095979068ff00000000000000001968ff000000000000000083549260401b169116179055565b8351928352166020820152a2005b506001600160a01b03600654163314156113f7565b3461029b57602060031936011261029b576004355f52600a602052608060405f20546104946040519160ff8116835260ff8160081c16602084015261157f6040840160ff8360101c16611f76565b60ff606084019160181c16611f83565b3461029b5761093a6115a036611f3c565b9161219b565b3461029b575f60031936011261029b576008545f1981019081116114a557602090604051908152f35b5f60031936011261029b576115e2612431565b600260075414611bb15760026007556009543410611b8957600854600181016008555f1943014381116114a55760405160208101914082524460408201523360601b60608201528260748201526074815261163e609482612054565b5190209061164a61216b565b91600b8106600801806008116114a55760ff168352600b8160081c0660080190816008116114a55760ff602085019216825260038160101c069060038210156104965760649061169e60408701938461218f565b60181c066032811015611b3d57505f60608501525b825f52600a60205260405f209060ff85511691805461ff00855160081b16938351906003821015610496576060890195865160058110156104965762ff0000927fffffffffffffffffffffffffffffffffffffffffffffffffffffffffff00000063ff0000007fffffffffffffffffffffffffffffffffffffffffffffffffffffffff00ffffff9360181b1696161716179160101b16171790556040516117598161201c565b5f81528461185563ffffffff602084016001815261181382604087015f81526117e760ff60608a01955f875260808b019967ffffffffffffffff42168b525f52600b60205267ffffffffffffffff8060405f209c51161667ffffffffffffffff198c5416178b555116899068ff00000000000000001968ff000000000000000083549260401b169116179055565b5187546cffffffff0000000000000000001916911660481b6cffffffff00000000000000000016178655565b5184547fffffffffffffffffffffffffffffff00000000ffffffffffffffffffffffffff16911660681b70ffffffff0000000000000000000000000016178355565b517fffffffffffffff0000000000000000ffffffffffffffffffffffffffffffffff78ffffffffffffffff000000000000000000000000000000000083549260881b1691161790556020946040516118ad8782612054565b5f81523315611b2a57855f52600287526001600160a01b0360405f2054168015159081611af4575b335f526003895260405f2060018154019055875f526002895260405f206001600160a01b0333166001600160a01b03198254161790558733827fddf252ad1be2c89b69c2b068fc378daa952ba7f163c4a11628f55a4df523b3ef5f80a450611ac8578690333b6119b1575b505060ff80915116935116905191600383101561049657519060058210156104965760ff92839160405195865287860152166040840152166060820152817fa846b2a975e745f55872d059f89c994ff81897e41126f626655f6f9e79995b9d60803393a36001600755604051908152f35b906119ea9160405180938192630a85bd0160e11b83523360048401525f60248401528a6044840152608060648401526084830190611eeb565b03815f335af15f9181611a70575b50611a255786611a0661235c565b8051919082611a2257633250574960e11b5f523360045260245ffd5b01fd5b7fffffffff00000000000000000000000000000000000000000000000000000000630a85bd0160e11b911603611a5d578560ff611940565b633250574960e11b5f523360045260245ffd5b9091508781813d8311611ac1575b611a888183612054565b8101031261029b57517fffffffff000000000000000000000000000000000000000000000000000000008116810361029b5790886119f8565b503d611a7e565b7f73c6ac6e000000000000000000000000000000000000000000000000000000005f525f60045260245ffd5b611b13885f52600460205260405f206001600160a01b03198154169055565b805f526003895260405f205f1981540190556118d5565b633250574960e11b5f525f60045260245ffd5b604b811015611b535750600160608501526116b3565b605a811015611b695750600260608501526116b3565b60621115611b7d57600360608501526116b3565b600460608501526116b3565b7fcd1c8867000000000000000000000000000000000000000000000000000000005f5260045ffd5b7f3ee5aeb5000000000000000000000000000000000000000000000000000000005f5260045ffd5b3461029b57602060031936011261029b576004355f52600e602052602060405f2054604051908152f35b3461029b57604060031936011261029b57611c1c611f10565b602435611c28816123fe565b33151580611cf5575b80611cc2575b611c965781906001600160a01b0380851691167f8c5be1e5ebec7d5bd14f71427d1e84f3dd0314c0f7b2291e5b200ac8c7c3b9255f80a45f5260046020526001600160a01b0360405f2091166001600160a01b03198254161790555f80f35b7fa9fbf51f000000000000000000000000000000000000000000000000000000005f523360045260245ffd5b506001600160a01b0381165f52600560205260405f206001600160a01b0333165f5260205260ff60405f20541615611c37565b50336001600160a01b0382161415611c31565b3461029b57602060031936011261029b57600435611d25816123fe565b505f52600460205260206001600160a01b0360405f205416604051908152f35b3461029b575f60031936011261029b576040515f5f54611d6481612093565b8084529060018116908115610ba25750600114611d8b57610709836106f581850382612054565b5f8080527f290decd9548b62a8d60345a988386fc84ba6bc95484008f6362f93160ef3e563939250905b808210611dcd575090915081016020016106f5610b34565b919260018160209254838588010152019101909291611db5565b3461029b57602060031936011261029b576004355f52600260205260206001600160a01b0360405f2054161515604051908152f35b3461029b57602060031936011261029b57600435907fffffffff00000000000000000000000000000000000000000000000000000000821680920361029b57817f80ac58cd0000000000000000000000000000000000000000000000000000000060209314908115611ec1575b8115611e97575b5015158152f35b7f01ffc9a70000000000000000000000000000000000000000000000000000000091501483611e90565b7f5b5e139f0000000000000000000000000000000000000000000000000000000081149150611e89565b90601f19601f602080948051918291828752018686015e5f8582860101520116010190565b600435906001600160a01b038216820361029b57565b602435906001600160a01b038216820361029b57565b600319606091011261029b576004356001600160a01b038116810361029b57906024356001600160a01b038116810361029b579060443590565b9060038210156104965752565b9060058210156104965752565b906014821015611fab5760188260021c6011019260031b1690565b634e487b7160e01b5f52603260045260245ffd5b600319604091011261029b576004356001600160a01b038116810361029b5790602435801515810361029b5790565b9181601f8401121561029b5782359167ffffffffffffffff831161029b576020838186019501011161029b57565b60a0810190811067ffffffffffffffff82111761067a57604052565b6080810190811067ffffffffffffffff82111761067a57604052565b90601f601f19910116810190811067ffffffffffffffff82111761067a57604052565b67ffffffffffffffff811161067a57601f01601f191660200190565b90600182811c921680156120c1575b60208310146120ad57565b634e487b7160e01b5f52602260045260245ffd5b91607f16916120a2565b9060405191825f8254926120de84612093565b80845293600181169081156121495750600114612105575b5061210392500383612054565b565b90505f9291925260205f20905f915b81831061212d575050906020612103928201015f6120f6565b6020919350806001915483858901015201910190918492612114565b6020935061210395925060ff1991501682840152151560051b8201015f6120f6565b6040519061217882612038565b5f6060838281528260208201528260408201520152565b60038210156104965752565b91906001600160a01b03168015611b2a57815f5260026020526001600160a01b0360405f205416928233151592836122a7575b6001600160a01b03935085612270575b805f52600360205260405f2060018154019055815f52600260205260405f20816001600160a01b0319825416179055857fddf252ad1be2c89b69c2b068fc378daa952ba7f163c4a11628f55a4df523b3ef5f80a41680830361223f57505050565b7f64283d7b000000000000000000000000000000000000000000000000000000005f5260045260245260445260645ffd5b61228f825f52600460205260405f206001600160a01b03198154169055565b855f52600360205260405f205f1981540190556121de565b9192905080612305575b156122be578282916121ce565b82846122d657637e27328960e01b5f5260045260245ffd5b7f177e802f000000000000000000000000000000000000000000000000000000005f523360045260245260445ffd5b503384148015612333575b806122b15750825f526004602052336001600160a01b0360405f205416146122b1565b50835f52600560205260405f206001600160a01b0333165f5260205260ff60405f205416612310565b3d15612386573d9061236d82612077565b9161237b6040519384612054565b82523d5f602084013e565b606090565b612394816123fe565b505f52600b60205260ff60405f205460401c1660078111156123c257600e10156123bd57600290565b600190565b505f90565b63ffffffff1663ffffffff81146114a55760010190565b601f8260209493601f1993818652868601375f8582860101520116010190565b805f5260026020526001600160a01b0360405f20541690811561241f575090565b637e27328960e01b5f5260045260245ffd5b60ff60065460a01c1661244057565b7fd93c0665000000000000000000000000000000000000000000000000000000005f5260045ffd5b805f5260026020526001600160a01b038060405f20541692168015158061250c575b5050816124d5575b805f52600260205260405f206001600160a01b031981541690555f827fddf252ad1be2c89b69c2b068fc378daa952ba7f163c4a11628f55a4df523b3ef8280a490565b6124f4815f52600460205260405f206001600160a01b03198154169055565b815f52600360205260405f205f198154019055612492565b80612563575b1561251d578061248a565b826125355750637e27328960e01b5f5260045260245ffd5b7f177e802f000000000000000000000000000000000000000000000000000000005f5260045260245260445ffd5b508083148015612591575b806125125750815f526004602052806001600160a01b0360405f20541614612512565b50825f52600560205260405f20815f5260205260ff60405f20541661256e565b6001600160a01b036006541633036125c557565b7f118cdaa7000000000000000000000000000000000000000000000000000000005f523360045260245ffd5b93909293823b612603575b5050505050565b61264a6001600160a01b0392836020951696846040519788968796630a85bd0160e11b88521660048701521660248501526044840152608060648401526084830190611eeb565b03815f865af15f91816126d3575b50612686575061266661235c565b805190816126815782633250574960e11b5f5260045260245ffd5b602001fd5b7fffffffff00000000000000000000000000000000000000000000000000000000630a85bd0160e11b9116036126c157505f808080806125fc565b633250574960e11b5f5260045260245ffd5b9091506020813d602011612728575b816126ef60209383612054565b8101031261029b57517fffffffff000000000000000000000000000000000000000000000000000000008116810361029b57905f612658565b3d91506126e256fea2646970667358221220f38fb4004af00aa8d5c5b10a16cc523c11df790f131f7be518393c85e51c842564736f6c63430008210033",
  "linkReferences": {},
  "deployedLinkReferences": {},
  "immutableReferences": {},
  "inputSourceName": "project/contracts/AgentNFA.sol",
  "devdoc": {
    "errors": {
      "ERC721IncorrectOwner(address,uint256,address)": [
        {
          "details": "Indicates an error related to the ownership over a particular token. Used in transfers.",
          "params": {
            "owner": "Address of the current owner of a token.",
            "sender": "Address whose tokens are being transferred.",
            "tokenId": "Identifier number of a token."
          }
        }
      ],
      "ERC721InsufficientApproval(address,uint256)": [
        {
          "details": "Indicates a failure with the `operator`’s approval. Used in transfers.",
          "params": {
            "operator": "Address that may be allowed to operate on tokens without being their owner.",
            "tokenId": "Identifier number of a token."
          }
        }
      ],
      "ERC721InvalidApprover(address)": [
        {
          "details": "Indicates a failure with the `approver` of a token to be approved. Used in approvals.",
          "params": {
            "approver": "Address initiating an approval operation."
          }
        }
      ],
      "ERC721InvalidOperator(address)": [
        {
          "details": "Indicates a failure with the `operator` to be approved. Used in approvals.",
          "params": {
            "operator": "Address that may be allowed to operate on tokens without being their owner."
          }
        }
      ],
      "ERC721InvalidOwner(address)": [
        {
          "details": "Indicates that an address can't be an owner. For example, `address(0)` is a forbidden owner in ERC-20. Used in balance queries.",
          "params": {
            "owner": "Address of the current owner of a token."
          }
        }
      ],
      "ERC721InvalidReceiver(address)": [
        {
          "details": "Indicates a failure with the token `receiver`. Used in transfers.",
          "params": {
            "receiver": "Address to which tokens are being transferred."
          }
        }
      ],
      "ERC721InvalidSender(address)": [
        {
          "details": "Indicates a failure with the token `sender`. Used in transfers.",
          "params": {
            "sender": "Address whose tokens are being transferred."
          }
        }
      ],
      "ERC721NonexistentToken(uint256)": [
        {
          "details": "Indicates a `tokenId` whose `owner` is the zero address.",
          "params": {
            "tokenId": "Identifier number of a token."
          }
        }
      ],
      "EnforcedPause()": [
        {
          "details": "The operation failed because the contract is paused."
        }
      ],
      "ExpectedPause()": [
        {
          "details": "The operation failed because the contract is not paused."
        }
      ],
      "OwnableInvalidOwner(address)": [
        {
          "details": "The owner is not a valid owner account. (eg. `address(0)`)"
        }
      ],
      "OwnableUnauthorizedAccount(address)": [
        {
          "details": "The caller account is not authorized to perform an operation."
        }
      ],
      "ReentrancyGuardReentrantCall()": [
        {
          "details": "Unauthorized reentrant call."
        }
      ]
    },
    "events": {
      "Approval(address,address,uint256)": {
        "details": "Emitted when `owner` enables `approved` to manage the `tokenId` token."
      },
      "ApprovalForAll(address,address,bool)": {
        "details": "Emitted when `owner` enables or disables (`approved`) `operator` to manage all of its assets."
      },
      "Paused(address)": {
        "details": "Emitted when the pause is triggered by `account`."
      },
      "Transfer(address,address,uint256)": {
        "details": "Emitted when `tokenId` token is transferred from `from` to `to`."
      },
      "Unpaused(address)": {
        "details": "Emitted when the pause is lifted by `account`."
      }
    },
    "kind": "dev",
    "methods": {
      "approve(address,uint256)": {
        "details": "Gives permission to `to` to transfer `tokenId` token to another account. The approval is cleared when the token is transferred. Only a single account can be approved at a time, so approving the zero address clears previous approvals. Requirements: - The caller must own the token or be an approved operator. - `tokenId` must exist. Emits an {Approval} event."
      },
      "balanceOf(address)": {
        "details": "Returns the number of tokens in ``owner``'s account."
      },
      "burn(uint256)": {
        "details": "Burns `tokenId`. See {ERC721-_burn}. Requirements: - The caller must own `tokenId` or be an approved operator."
      },
      "getApproved(uint256)": {
        "details": "Returns the account approved for `tokenId` token. Requirements: - `tokenId` must exist."
      },
      "getTier(uint256)": {
        "returns": {
          "_0": "0 = Bronze (1-7), 1 = Silver (8-14), 2 = Gold (15-20)"
        }
      },
      "isApprovedForAll(address,address)": {
        "details": "Returns if the `operator` is allowed to manage all of the assets of `owner`. See {setApprovalForAll}"
      },
      "name()": {
        "details": "Returns the token collection name."
      },
      "owner()": {
        "details": "Returns the address of the current owner."
      },
      "ownerOf(uint256)": {
        "details": "Returns the owner of the `tokenId` token. Requirements: - `tokenId` must exist."
      },
      "paused()": {
        "details": "Returns true if the contract is paused, and false otherwise."
      },
      "renounceOwnership()": {
        "details": "Leaves the contract without owner. It will not be possible to call `onlyOwner` functions. Can only be called by the current owner. NOTE: Renouncing ownership will leave the contract without an owner, thereby disabling any functionality that is only available to the owner."
      },
      "safeTransferFrom(address,address,uint256)": {
        "details": "Safely transfers `tokenId` token from `from` to `to`, checking first that contract recipients are aware of the ERC-721 protocol to prevent tokens from being forever locked. Requirements: - `from` cannot be the zero address. - `to` cannot be the zero address. - `tokenId` token must exist and be owned by `from`. - If the caller is not `from`, it must have been allowed to move this token by either {approve} or   {setApprovalForAll}. - If `to` refers to a smart contract, it must implement {IERC721Receiver-onERC721Received}, which is called upon   a safe transfer. Emits a {Transfer} event."
      },
      "safeTransferFrom(address,address,uint256,bytes)": {
        "details": "Safely transfers `tokenId` token from `from` to `to`. Requirements: - `from` cannot be the zero address. - `to` cannot be the zero address. - `tokenId` token must exist and be owned by `from`. - If the caller is not `from`, it must be approved to move this token by either {approve} or {setApprovalForAll}. - If `to` refers to a smart contract, it must implement {IERC721Receiver-onERC721Received}, which is called upon   a safe transfer. Emits a {Transfer} event."
      },
      "setApprovalForAll(address,bool)": {
        "details": "Approve or remove `operator` as an operator for the caller. Operators can call {transferFrom} or {safeTransferFrom} for any token owned by the caller. Requirements: - The `operator` cannot be the address zero. Emits an {ApprovalForAll} event."
      },
      "supportsInterface(bytes4)": {
        "details": "Returns true if this contract implements the interface defined by `interfaceId`. See the corresponding https://eips.ethereum.org/EIPS/eip-165#how-interfaces-are-identified[ERC section] to learn more about how these ids are created. This function call must use less than 30 000 gas."
      },
      "symbol()": {
        "details": "Returns the token collection symbol."
      },
      "tokenURI(uint256)": {
        "details": "Returns the Uniform Resource Identifier (URI) for `tokenId` token."
      },
      "transferFrom(address,address,uint256)": {
        "details": "Transfers `tokenId` token from `from` to `to`. WARNING: Note that the caller is responsible to confirm that the recipient is capable of receiving ERC-721 or else they may be permanently lost. Usage of {safeTransferFrom} prevents loss, though the caller must understand this adds an external call which potentially creates a reentrancy vulnerability. Requirements: - `from` cannot be the zero address. - `to` cannot be the zero address. - `tokenId` token must be owned by `from`. - If the caller is not `from`, it must be approved to move this token by either {approve} or {setApprovalForAll}. Emits a {Transfer} event."
      },
      "transferOwnership(address)": {
        "details": "Transfers ownership of the contract to a new account (`newOwner`). Can only be called by the current owner."
      }
    },
    "title": "AgentNFA",
    "version": 1
  },
  "evm": {
    "gasEstimates": {
      "creation": {
        "codeDepositCost": "2017200",
        "executionCost": "infinite",
        "totalCost": "infinite"
      },
      "external": {
        "approve(address,uint256)": "31150",
        "balanceOf(address)": "2909",
        "burn(uint256)": "82026",
        "experience(uint256)": "infinite",
        "getApproved(uint256)": "4643",
        "getLevel(uint256)": "5187",
        "getStats(uint256)": "infinite",
        "getTier(uint256)": "4985",
        "getTraits(uint256)": "infinite",
        "grantXP(uint256,uint64)": "infinite",
        "isApprovedForAll(address,address)": "3475",
        "isEligible(uint256)": "2367",
        "isGameMaster(address)": "3078",
        "levelThresholds(uint256)": "2746",
        "metadataRenderer()": "2736",
        "mint()": "infinite",
        "mintPrice()": "2696",
        "name()": "infinite",
        "owner()": "2912",
        "ownerOf(uint256)": "2807",
        "pause()": "30288",
        "paused()": "2648",
        "recordAttempt(uint256)": "33905",
        "recordSolve(uint256)": "33732",
        "renounceOwnership()": "28557",
        "safeTransferFrom(address,address,uint256)": "infinite",
        "safeTransferFrom(address,address,uint256,bytes)": "infinite",
        "setApprovalForAll(address,bool)": "27181",
        "setExperience(uint256,string)": "infinite",
        "setGameMaster(address,bool)": "28602",
        "setMetadataRenderer(address)": "28734",
        "setMintPrice(uint256)": "26384",
        "setVault(uint256,string,bytes32)": "infinite",
        "stats(uint256)": "3195",
        "supportsInterface(bytes4)": "298",
        "symbol()": "infinite",
        "tokenURI(uint256)": "infinite",
        "totalSupply()": "2448",
        "traits(uint256)": "2736",
        "transferFrom(address,address,uint256)": "106440",
        "transferOwnership(address)": "29089",
        "unpause()": "27831",
        "vaultHash(uint256)": "2431",
        "vaultURI(uint256)": "infinite",
        "withdraw()": "infinite"
      }
    }
  },
  "storageLayout": {
    "storage": [
      {
        "astId": 936,
        "contract": "project/contracts/AgentNFA.sol:AgentNFA",
        "label": "_name",
        "offset": 0,
        "slot": "0",
        "type": "t_string_storage"
      },
      {
        "astId": 938,
        "contract": "project/contracts/AgentNFA.sol:AgentNFA",
        "label": "_symbol",
        "offset": 0,
        "slot": "1",
        "type": "t_string_storage"
      },
      {
        "astId": 942,
        "contract": "project/contracts/AgentNFA.sol:AgentNFA",
        "label": "_owners",
        "offset": 0,
        "slot": "2",
        "type": "t_mapping(t_uint256,t_address)"
      },
      {
        "astId": 946,
        "contract": "project/contracts/AgentNFA.sol:AgentNFA",
        "label": "_balances",
        "offset": 0,
        "slot": "3",
        "type": "t_mapping(t_address,t_uint256)"
      },
      {
        "astId": 950,
        "contract": "project/contracts/AgentNFA.sol:AgentNFA",
        "label": "_tokenApprovals",
        "offset": 0,
        "slot": "4",
        "type": "t_mapping(t_uint256,t_address)"
      },
      {
        "astId": 956,
        "contract": "project/contracts/AgentNFA.sol:AgentNFA",
        "label": "_operatorApprovals",
        "offset": 0,
        "slot": "5",
        "type": "t_mapping(t_address,t_mapping(t_address,t_bool))"
      },
      {
        "astId": 8,
        "contract": "project/contracts/AgentNFA.sol:AgentNFA",
        "label": "_owner",
        "offset": 0,
        "slot": "6",
        "type": "t_address"
      },
      {
        "astId": 2315,
        "contract": "project/contracts/AgentNFA.sol:AgentNFA",
        "label": "_paused",
        "offset": 20,
        "slot": "6",
        "type": "t_bool"
      },
      {
        "astId": 2425,
        "contract": "project/contracts/AgentNFA.sol:AgentNFA",
        "label": "_status",
        "offset": 0,
        "slot": "7",
        "type": "t_uint256"
      },
      {
        "astId": 7850,
        "contract": "project/contracts/AgentNFA.sol:AgentNFA",
        "label": "_tokenIdCounter",
        "offset": 0,
        "slot": "8",
        "type": "t_uint256"
      },
      {
        "astId": 7852,
        "contract": "project/contracts/AgentNFA.sol:AgentNFA",
        "label": "mintPrice",
        "offset": 0,
        "slot": "9",
        "type": "t_uint256"
      },
      {
        "astId": 7857,
        "contract": "project/contracts/AgentNFA.sol:AgentNFA",
        "label": "traits",
        "offset": 0,
        "slot": "10",
        "type": "t_mapping(t_uint256,t_struct(AgentTraits)7837_storage)"
      },
      {
        "astId": 7862,
        "contract": "project/contracts/AgentNFA.sol:AgentNFA",
        "label": "stats",
        "offset": 0,
        "slot": "11",
        "type": "t_mapping(t_uint256,t_struct(AgentStats)7848_storage)"
      },
      {
        "astId": 7867,
        "contract": "project/contracts/AgentNFA.sol:AgentNFA",
        "label": "experience",
        "offset": 0,
        "slot": "12",
        "type": "t_mapping(t_uint256,t_string_storage)"
      },
      {
        "astId": 7872,
        "contract": "project/contracts/AgentNFA.sol:AgentNFA",
        "label": "vaultURI",
        "offset": 0,
        "slot": "13",
        "type": "t_mapping(t_uint256,t_string_storage)"
      },
      {
        "astId": 7877,
        "contract": "project/contracts/AgentNFA.sol:AgentNFA",
        "label": "vaultHash",
        "offset": 0,
        "slot": "14",
        "type": "t_mapping(t_uint256,t_bytes32)"
      },
      {
        "astId": 7882,
        "contract": "project/contracts/AgentNFA.sol:AgentNFA",
        "label": "isGameMaster",
        "offset": 0,
        "slot": "15",
        "type": "t_mapping(t_address,t_bool)"
      },
      {
        "astId": 7885,
        "contract": "project/contracts/AgentNFA.sol:AgentNFA",
        "label": "metadataRenderer",
        "offset": 0,
        "slot": "16",
        "type": "t_contract(IMetadataRenderer)9186"
      },
      {
        "astId": 7889,
        "contract": "project/contracts/AgentNFA.sol:AgentNFA",
        "label": "levelThresholds",
        "offset": 0,
        "slot": "17",
        "type": "t_array(t_uint64)20_storage"
      }
    ],
    "types": {
      "t_address": {
        "encoding": "inplace",
        "label": "address",
        "numberOfBytes": "20"
      },
      "t_array(t_uint64)20_storage": {
        "base": "t_uint64",
        "encoding": "inplace",
        "label": "uint64[20]",
        "numberOfBytes": "160"
      },
      "t_bool": {
        "encoding": "inplace",
        "label": "bool",
        "numberOfBytes": "1"
      },
      "t_bytes32": {
        "encoding": "inplace",
        "label": "bytes32",
        "numberOfBytes": "32"
      },
      "t_contract(IMetadataRenderer)9186": {
        "encoding": "inplace",
        "label": "contract IMetadataRenderer",
        "numberOfBytes": "20"
      },
      "t_enum(Specialization)7820": {
        "encoding": "inplace",
        "label": "enum AgentNFA.Specialization",
        "numberOfBytes": "1"
      },
      "t_enum(TalentRarity)7826": {
        "encoding": "inplace",
        "label": "enum AgentNFA.TalentRarity",
        "numberOfBytes": "1"
      },
      "t_mapping(t_address,t_bool)": {
        "encoding": "mapping",
        "key": "t_address",
        "label": "mapping(address => bool)",
        "numberOfBytes": "32",
        "value": "t_bool"
      },
      "t_mapping(t_address,t_mapping(t_address,t_bool))": {
        "encoding": "mapping",
        "key": "t_address",
        "label": "mapping(address => mapping(address => bool))",
        "numberOfBytes": "32",
        "value": "t_mapping(t_address,t_bool)"
      },
      "t_mapping(t_address,t_uint256)": {
        "encoding": "mapping",
        "key": "t_address",
        "label": "mapping(address => uint256)",
        "numberOfBytes": "32",
        "value": "t_uint256"
      },
      "t_mapping(t_uint256,t_address)": {
        "encoding": "mapping",
        "key": "t_uint256",
        "label": "mapping(uint256 => address)",
        "numberOfBytes": "32",
        "value": "t_address"
      },
      "t_mapping(t_uint256,t_bytes32)": {
        "encoding": "mapping",
        "key": "t_uint256",
        "label": "mapping(uint256 => bytes32)",
        "numberOfBytes": "32",
        "value": "t_bytes32"
      },
      "t_mapping(t_uint256,t_string_storage)": {
        "encoding": "mapping",
        "key": "t_uint256",
        "label": "mapping(uint256 => string)",
        "numberOfBytes": "32",
        "value": "t_string_storage"
      },
      "t_mapping(t_uint256,t_struct(AgentStats)7848_storage)": {
        "encoding": "mapping",
        "key": "t_uint256",
        "label": "mapping(uint256 => struct AgentNFA.AgentStats)",
        "numberOfBytes": "32",
        "value": "t_struct(AgentStats)7848_storage"
      },
      "t_mapping(t_uint256,t_struct(AgentTraits)7837_storage)": {
        "encoding": "mapping",
        "key": "t_uint256",
        "label": "mapping(uint256 => struct AgentNFA.AgentTraits)",
        "numberOfBytes": "32",
        "value": "t_struct(AgentTraits)7837_storage"
      },
      "t_string_storage": {
        "encoding": "bytes",
        "label": "string",
        "numberOfBytes": "32"
      },
      "t_struct(AgentStats)7848_storage": {
        "encoding": "inplace",
        "label": "struct AgentNFA.AgentStats",
        "members": [
          {
            "astId": 7839,
            "contract": "project/contracts/AgentNFA.sol:AgentNFA",
            "label": "xp",
            "offset": 0,
            "slot": "0",
            "type": "t_uint64"
          },
          {
            "astId": 7841,
            "contract": "project/contracts/AgentNFA.sol:AgentNFA",
            "label": "level",
            "offset": 8,
            "slot": "0",
            "type": "t_uint8"
          },
          {
            "astId": 7843,
            "contract": "project/contracts/AgentNFA.sol:AgentNFA",
            "label": "problemsSolved",
            "offset": 9,
            "slot": "0",
            "type": "t_uint32"
          },
          {
            "astId": 7845,
            "contract": "project/contracts/AgentNFA.sol:AgentNFA",
            "label": "problemsAttempted",
            "offset": 13,
            "slot": "0",
            "type": "t_uint32"
          },
          {
            "astId": 7847,
            "contract": "project/contracts/AgentNFA.sol:AgentNFA",
            "label": "mintedAt",
            "offset": 17,
            "slot": "0",
            "type": "t_uint64"
          }
        ],
        "numberOfBytes": "32"
      },
      "t_struct(AgentTraits)7837_storage": {
        "encoding": "inplace",
        "label": "struct AgentNFA.AgentTraits",
        "members": [
          {
            "astId": 7828,
            "contract": "project/contracts/AgentNFA.sol:AgentNFA",
            "label": "intelligence",
            "offset": 0,
            "slot": "0",
            "type": "t_uint8"
          },
          {
            "astId": 7830,
            "contract": "project/contracts/AgentNFA.sol:AgentNFA",
            "label": "speed",
            "offset": 1,
            "slot": "0",
            "type": "t_uint8"
          },
          {
            "astId": 7833,
            "contract": "project/contracts/AgentNFA.sol:AgentNFA",
            "label": "specialization",
            "offset": 2,
            "slot": "0",
            "type": "t_enum(Specialization)7820"
          },
          {
            "astId": 7836,
            "contract": "project/contracts/AgentNFA.sol:AgentNFA",
            "label": "talentRarity",
            "offset": 3,
            "slot": "0",
            "type": "t_enum(TalentRarity)7826"
          }
        ],
        "numberOfBytes": "32"
      },
      "t_uint256": {
        "encoding": "inplace",
        "label": "uint256",
        "numberOfBytes": "32"
      },
      "t_uint32": {
        "encoding": "inplace",
        "label": "uint32",
        "numberOfBytes": "4"
      },
      "t_uint64": {
        "encoding": "inplace",
        "label": "uint64",
        "numberOfBytes": "8"
      },
      "t_uint8": {
        "encoding": "inplace",
        "label": "uint8",
        "numberOfBytes": "1"
      }
    }
  },
  "userdoc": {
    "kind": "user",
    "methods": {
      "experience(uint256)": {
        "notice": "BAP-578: experience text per token"
      },
      "getTier(uint256)": {
        "notice": "Get the tier for a given level"
      },
      "isGameMaster(address)": {
        "notice": "Addresses authorized to grant XP and update metadata"
      },
      "vaultHash(uint256)": {
        "notice": "BAP-578: vault hash per token"
      },
      "vaultURI(uint256)": {
        "notice": "BAP-578: vault URI per token"
      }
    },
    "notice": "ERC-721 + BAP-578 NFA for AgentForge AI Agents   - Mint NFA = register an AI Agent   - On-chain traits generated from blockhash + prevrandao   - XP / Level system updated by RewardDistributor   - BAP-578: experience, vaultURI, vaultHash",
    "version": 1
  },
  "argsData": "0x000000000000000000000000000000000000000000000000002386f26fc10000",
  "transaction": {
    "hash": "0x36db39558e7b5d782e1d2e53c6fcdd6e582b595661a03a9a62a04bd743c48472",
    "nonce": "0x7f5",
    "origin": "0xc3fa77c9d5cb9f1bb50d4c05a86d4a24cf4563e8"
  }
}