{
  "address": "0x94aa79a68fb517817c4d76a3c1023c23dc3a1855",
  "abi": [
    {
      "inputs": [
        {
          "internalType": "address",
          "name": "_agentNFA",
          "type": "address"
        }
      ],
      "stateMutability": "nonpayable",
      "type": "constructor"
    },
    {
      "inputs": [],
      "name": "agentNFA",
      "outputs": [
        {
          "internalType": "contract AgentNFA",
          "name": "",
          "type": "address"
        }
      ],
      "stateMutability": "view",
      "type": "function"
    },
    {
      "inputs": [
        {
          "internalType": "uint256",
          "name": "tokenId",
          "type": "uint256"
        }
      ],
      "name": "constructTokenURI",
      "outputs": [
        {
          "internalType": "string",
          "name": "",
          "type": "string"
        }
      ],
      "stateMutability": "view",
      "type": "function"
    }
  ],
  "contractName": "AgentNFARenderer",
  "sourceName": "contracts/AgentNFARenderer.sol",
  "bytecode": "0x60a034610ccf57601f613a9538819003918201601f19168301916001600160401b03831184841017610cd357808492602094604052833981010312610ccf57516001600160a01b03811690819003610ccf5760805261005e5f54610ce7565b601f8111610c7d575b5060086309ac2e8d60e31b015f5560015461008190610ce7565b601f8111610c48575b50600863436f646560e01b016001556002546100a590610ce7565b601f8111610c13575b50600c6554726976696160d01b016002556003546100cb90610ce7565b601f8111610bde575b50600c6521b7b6b6b7b760d11b016003556004546100f190610ce7565b601f8111610ba9575b506008635261726560e01b0160045560055461011590610ce7565b601f8111610b74575b506008634570696360e01b0160055560065461013990610ce7565b601f8111610b3f575b507f4c6567656e64617279000000000000000000000000000000000000000000001260065560075461017390610ce7565b601f8111610b0a575b50600c654d797468696360d01b0160075560085461019990610ce7565b601f8111610ad5575b50600c6542726f6e7a6560d01b016008556009546101bf90610ce7565b601f8111610aa0575b50600c6529b4b63b32b960d11b01600955600a546101e590610ce7565b601f8111610a6b575b5060086311dbdb1960e21b01600a55600b5461020990610ce7565b601f8111610a36575b50600e662334613866653760c81b01600b55600c5461023090610ce7565b601f8111610a01575b50600e662332656363373160c81b01600c55600d5461025790610ce7565b601f81116109cc575b50600e66119cb11a9cb11b60c91b01600d55600e5461027e90610ce7565b601f8111610997575b50600e662338656335666360c81b01600e55600f546102a590610ce7565b601f8111610962575b50600e662337646666623360c81b01600f556010546102cc90610ce7565b601f811161092d575b50600e6611b21a309ab33360c91b016010556011546102f390610ce7565b601f81116108f8575b50600e662331613361376160c81b0160115560125461031a90610ce7565b601f81116108c3575b50600e662330613662326160c81b0160125560135461034190610ce7565b601f811161088e575b50600e66119a3098b09b3160c91b0160135560145461036890610ce7565b601f8111610859575b50600e660233130313032360cc1b0160145560155461038f90610ce7565b601f8111610824575b50600e660233061316131360cc1b016015556016546103b690610ce7565b601f81116107ef575b50600e660233134306532360cc1b016016556017546103dd90610ce7565b601f81116107ba575b50600e6611a1a21ba3199960c91b0160175560185461040490610ce7565b601f8111610785575b50600e660234330433043360cc1b0160185560195461042b90610ce7565b601f8111610750575b50600e660234646443730360cc1b01601955601a5461045290610ce7565b601f811161071b575b507f262378303341333b000000000000000000000000000000000000000000000010601a55601b5461048c90610ce7565b601f81116106e6575b507f266c743b2f2667743b0000000000000000000000000000000000000000000012601b55601c546104c690610ce7565b601f81116106b1575b507f262378323733343b000000000000000000000000000000000000000000000010601c55601d5461050090610ce7565b601f811161067c575b50600461199b60f11b01601d55601e5461052290610ce7565b601f8111610647575b50600461064760f31b01601e55601f5461054490610ce7565b601f8111610612575b506004610ccd60f21b01601f5561056f610568602054610ce7565b6020610d1f565b600a6439b2b934b360d91b018060205561058a602154610ce7565b601f81116105dc575b506012686d6f6e6f737061636560b81b016021556105bc6105b5602254610ce7565b6022610d1f565b602255604051612d349081610d618239608051818181605e015260ae0152f35b60098111156105935760215f52601f60205f20910160051c905f5b828110610605575050610593565b5f828201556001016105f7565b600281111561054d57601f5f52601f60205f20910160051c5f5b81811061063a57505061054d565b5f8382015560010161062c565b600281111561052b57601e5f52601f60205f20910160051c5f5b81811061066f57505061052b565b5f83820155600101610661565b600281111561050957601d5f52601f60205f20910160051c5f5b8181106106a4575050610509565b5f83820155600101610696565b60088111156104cf57601c5f52601f60205f20910160051c5f5b8181106106d95750506104cf565b5f838201556001016106cb565b600981111561049557601b5f52601f60205f20910160051c5f5b81811061070e575050610495565b5f83820155600101610700565b600881111561045b57601a5f52601f60205f20910160051c5f5b81811061074357505061045b565b5f83820155600101610735565b60078111156104345760195f52601f60205f20910160051c5f5b818110610778575050610434565b5f8382015560010161076a565b600781111561040d5760185f52601f60205f20910160051c5f5b8181106107ad57505061040d565b5f8382015560010161079f565b60078111156103e65760175f52601f60205f20910160051c5f5b8181106107e25750506103e6565b5f838201556001016107d4565b60078111156103bf5760165f52601f60205f20910160051c5f5b8181106108175750506103bf565b5f83820155600101610809565b60078111156103985760155f52601f60205f20910160051c5f5b81811061084c575050610398565b5f8382015560010161083e565b60078111156103715760145f52601f60205f20910160051c5f5b818110610881575050610371565b5f83820155600101610873565b600781111561034a5760135f52601f60205f20910160051c5f5b8181106108b657505061034a565b5f838201556001016108a8565b60078111156103235760125f52601f60205f20910160051c5f5b8181106108eb575050610323565b5f838201556001016108dd565b60078111156102fc5760115f52601f60205f20910160051c5f5b8181106109205750506102fc565b5f83820155600101610912565b60078111156102d55760105f52601f60205f20910160051c5f5b8181106109555750506102d5565b5f83820155600101610947565b60078111156102ae57600f5f52601f60205f20910160051c5f5b81811061098a5750506102ae565b5f8382015560010161097c565b600781111561028757600e5f52601f60205f20910160051c5f5b8181106109bf575050610287565b5f838201556001016109b1565b600781111561026057600d5f52601f60205f20910160051c5f5b8181106109f4575050610260565b5f838201556001016109e6565b600781111561023957600c5f52601f60205f20910160051c5f5b818110610a29575050610239565b5f83820155600101610a1b565b600781111561021257600b5f52601f60205f20910160051c5f5b818110610a5e575050610212565b5f83820155600101610a50565b60048111156101ee57600a5f52601f60205f20910160051c5f5b818110610a935750506101ee565b5f83820155600101610a85565b60068111156101c85760095f52601f60205f20910160051c5f5b818110610ac85750506101c8565b5f83820155600101610aba565b60068111156101a25760085f52601f60205f20910160051c5f5b818110610afd5750506101a2565b5f83820155600101610aef565b600681111561017c5760075f52601f60205f20910160051c5f5b818110610b3257505061017c565b5f83820155600101610b24565b60098111156101425760065f52601f60205f20910160051c5f5b818110610b67575050610142565b5f83820155600101610b59565b600481111561011e5760055f52601f60205f20910160051c5f5b818110610b9c57505061011e565b5f83820155600101610b8e565b60048111156100fa5760045f52601f60205f20910160051c5f5b818110610bd15750506100fa565b5f83820155600101610bc3565b60068111156100d45760035f52601f60205f20910160051c5f5b818110610c065750506100d4565b5f83820155600101610bf8565b60068111156100ae5760025f52601f60205f20910160051c5f5b818110610c3b5750506100ae565b5f83820155600101610c2d565b600481111561008a5760015f52601f60205f20910160051c5f5b818110610c7057505061008a565b5f83820155600101610c62565b6004811115610067575f8080527f290decd9548b62a8d60345a988386fc84ba6bc95484008f6362f93160ef3e56391601f0160051c905b818110610cc2575050610067565b5f83820155600101610cb4565b5f80fd5b634e487b7160e01b5f52604160045260245ffd5b90600182811c92168015610d15575b6020831014610d0157565b634e487b7160e01b5f52602260045260245ffd5b91607f1691610cf6565b601f8211610d2b575050565b60058211610d37575050565b5f52601f60205f20910160051c905f5b828110610d5357505050565b5f82820155600101610d4756fe60e0806040526004361015610012575f80fd5b5f3560e01c908163894b4c2e14610086575063af9ce20514610032575f80fd5b34610082575f60031936011261008257602060405173ffffffffffffffffffffffffffffffffffffffff7f0000000000000000000000000000000000000000000000000000000000000000168152f35b5f80fd5b346100825760206003193601126100825773ffffffffffffffffffffffffffffffffffffffff7f000000000000000000000000000000000000000000000000000000000000000016907fe1dc07610000000000000000000000000000000000000000000000000000000081526004356004820152608081602481855afa908115612605575f91612705575b50604051907f7b303965000000000000000000000000000000000000000000000000000000008252600435600483015260a082602481865afa918215612605575f92612650575b50604051907f4f062c5a0000000000000000000000000000000000000000000000000000000082526004356004830152602082602481875afa918215612605575f92612610575b505f602494604051958680927fd3e9716500000000000000000000000000000000000000000000000000000000825260043560048301525afa938415612605575f94612589575b506040810151926003841015611a96575f94606083015160805260056080511015611a965760805160ff1660040361257557610220612b46565b86600460ff60805116145f146125605750610239612b81565b87600460ff60805116145f1461254a5750604051610258604082612797565b600781527f23366230613061000000000000000000000000000000000000000000000000006020820152905b88600460ff60805116145f1461253457506040516102a3604082612797565b600781527f23316130613061000000000000000000000000000000000000000000000000006020820152915b6003881015611aaa5760206108b0938195936106376101426023859760228f889960b68a6103008194601701612aa6565b996040519e8f977f3c73766720786d6c6e733d22687474703a2f2f7777772e77332e6f72672f3230828a01527f30302f737667222077696474683d2234303022206865696768743d223430302260408a01527f3e3c646566733e3c72616469616c4772616469656e742069643d226f2220637860608a01527f3d22343025222063793d223335252220723d22353525223e3c73746f70206f6660808a01527f667365743d223025222073746f702d636f6c6f723d220000000000000000000060a08a0152805191829101858a015e8701907f222f3e3c73746f70206f66667365743d22343025222073746f702d636f6c6f72848301527f3d2200000000000000000000000000000000000000000000000000000000000060d683015280519283910160d883015e0101907f222f3e3c73746f70206f66667365743d2231303025222073746f702d636f6c6f848301527f723d2200000000000000000000000000000000000000000000000000000000006042830152805192839101604583015e01017f222f3e3c2f72616469616c4772616469656e743e3c72616469616c4772616469838201527f656e742069643d2268222063783d22343525222063793d223430252220723d2260438201527f343025223e3c73746f70206f66667365743d223025222073746f702d636f6c6f60638201527f723d2223666666222073746f702d6f7061636974793d222e3135222f3e3c737460838201527f6f70206f66667365743d2231303025222073746f702d636f6c6f723d2223666660a38201527f66222073746f702d6f7061636974793d2230222f3e3c2f72616469616c47726160c38201527f6469656e743e3c66696c7465722069643d2267223e3c6665476175737369616e60e38201527f426c757220737464446576696174696f6e3d2233222f3e3c2f66696c7465723e6101038201527f3c66696c7465722069643d226732223e3c6665476175737369616e426c7572206101238201527f737464446576696174696f6e3d2238222f3e3c2f66696c7465723e3c2f6465666101438201527f733e0000000000000000000000000000000000000000000000000000000000006101638201520301610122810188520186612797565b604051916106d8600360458587808201957f3c726563742077696474683d2234303022206865696768743d2234303022206687526434b6361e9160d91b60408401528051918291018484015e81017f222f3e00000000000000000000000000000000000000000000000000000000008382015203017fffffffffffffffffffffffffffffffffffffffffffffffffffffffffffffffe3810186520184612797565b8260ff8d1660028103612251575050506022606c8493604761086e946040519683889451918291018a86015e8301907f3c7265637420783d22352220793d2235222077696474683d2233393022206865898301527f696768743d22333930222072783d223136222066696c6c3d226e6f6e652220736040830152663a3937b5b29e9160c91b6060830152888151818301938185606783015e0101907f22207374726f6b652d77696474683d22322e3522206f7061636974793d222e37848301527f222f3e3c7265637420783d2231322220793d223132222077696474683d22333760678301527f3622206865696768743d22333736222072783d223132222066696c6c3d226e6f60878301527f6e6522207374726f6b653d22000000000000000000000000000000000000000060a783015251809260b383015e01017f22207374726f6b652d77696474683d222e3822206f7061636974793d222e3322838201527f2f3e000000000000000000000000000000000000000000000000000000000000608c82015203016002810184520182612797565b600460ff608051161461211a575b6040519584879551918291018487015e8401908282015f8152815193849201905e01015f815203601f198101835282612797565b86600460ff60805116145f1461210557506108c9612b81565b87600460ff60805116145f146120ef57506108e2612b46565b965b60405160208101997f3c636972636c652063783d22323030222063793d223138352220723d223134308b527f222066696c6c3d220000000000000000000000000000000000000000000000006040830152610b3961010f604a846048885160208a0160c0528060c0518385015e82017f22206f7061636974793d222e3038222066696c7465723d2275726c2823673229828201527f222f3e3c636972636c652063783d22323030222063793d223138352220723d2260688201527f3735222066696c6c3d220000000000000000000000000000000000000000000060888201528951908160c051609283015e01017f22206f7061636974793d222e3132222066696c7465723d2275726c2823673229838201527f222f3e3c636972636c652063783d22323030222063793d223138352220723d22606a8201527f3635222066696c6c3d2275726c28236f29222f3e3c636972636c652063783d22608a8201527f323030222063793d223138352220723d223635222066696c6c3d2275726c282360aa8201527f6829222f3e3c656c6c697073652063783d22313832222063793d22313632222060ca8201527f72783d223238222072793d223230222066696c6c3d222366666622206f70616360ea8201527f6974793d222e3132222f3e3c656c6c697073652063783d22313738222063793d61010a8201527f22313538222072783d223132222072793d2238222066696c6c3d22236666662261012a8201527f206f7061636974793d222e32222f3e000000000000000000000000000000000061014a820152030160ef810185520183612797565b611aaa575f92604051809b6020820193518091855e7f3c7465787420783d223230302220793d22313935222066696c6c3d22236666666020918301918201527f2220666f6e742d73697a653d22000000000000000000000000000000000000006040820152610bae90604d01601d8601612a3c565b7f2220746578742d616e63686f723d226d6964646c652220666f6e742d66616d698152602081017f6c793d220000000000000000000000000000000000000000000000000000000090526024018460200190610c0991612a3c565b7f22206f7061636974793d222e35223e00000000000000000000000000000000008152610c3c90600f01601a8601612a3c565b7f3c2f746578743e0000000000000000000000000000000000000000000000000081520360181981018c52600701610c74908c612797565b604051602081019a7f3c672066696c6c3d226e6f6e6522207374726f6b653d220000000000000000008c528183518060c051603784015e7f22206f7061636974793d222e3235223e3c656c6c697073652063783d2232303090820160378101919091527f222063793d22313835222072783d22313230222072793d22333522207374726f60578201527f6b652d77696474683d222e3822207472616e73666f726d3d22726f746174652860778201527f2d32302c3230302c31383529222f3e0000000000000000000000000000000000609782015203608681018352610d5d9060a60183612797565b819b60805160ff16600211159283612026575b5050600360ff6080511610159283611f5e575b600460ff6080511610159081611e96575b60405160a05260a0516020018e819f51916020839201905e60a05101602081017f3c2f673e00000000000000000000000000000000000000000000000000000000905260a05190036020017fffffffffffffffffffffffffffffffffffffffffffffffffffffffffffffffe4810160a0515260040160a05190610e1691612797565b6040519460208601947f3c636972636c652063783d22333130222063793d223137302220723d223422208652604087017f66696c6c3d22000000000000000000000000000000000000000000000000000090528451958760208701978089604684015e8101604681017f222066696c7465723d2275726c2823672922206f7061636974793d222e37222f9052606681017f3e3c636972636c652063783d22333130222063793d223137302220723d2232229052608681017f2066696c6c3d222366666622206f7061636974793d222e39222f3e0000000000905203604601603b81018952605b01610f079089612797565b8760805160ff1660011115611db0575b5050611ccd575b611bce575b50611aea575b5050604051998a9260208401809d519182915e8301602081015f815260a051519283915e016020015f815281516020819301825e015f815203601f1981018952610f739089612797565b6020850198895160ff1660805160ff166004145f14611ad557610f94612b81565b905b60805160ff16600403611abe57604051610fb160e082612797565b60b981527f3c67206f7061636974793d222e35223e3c706f6c79676f6e20706f696e74733d60208201527f223137362c313030203138322c3832203139322c3936203230302c373220323060408201527f382c3936203231382c3832203232342c313030222066696c6c3d226e6f6e652260608201527f207374726f6b653d222346464437303022207374726f6b652d77696474683d2260808201527f312e35222f3e3c636972636c652063783d22323030222063793d22373222207260a08201527f3d2233222066696c6c3d2223464644373030222f3e3c2f673e0000000000000060c0820152945b604051809660208201947f3c656c6c697073652063783d22323030222063793d22333130222072783d22368652604083017f30222072793d2238222066696c6c3d2200000000000000000000000000000000905280516020819201605085015e8201605081017f22206f7061636974793d222e3036222066696c7465723d2275726c28236732299052607081017f222f3e0000000000000000000000000000000000000000000000000000000000905281516020819301607383015e01605001602381015f905203602301601f19810187526111779087612797565b61118360178c01612aa6565b9061118f60043561283b565b92604051809460208201947f3c7465787420783d223230302220793d22333530222066696c6c3d2200000000865280516020819201603c85015e8201603c81017f2220666f6e742d73697a653d2231352220746578742d616e63686f723d226d699052605c81017f64646c652220666f6e742d66616d696c793d226d6f6e6f73706163652220666f9052607c81017f6e742d7765696768743d22626f6c64223e4167656e7420230000000000000000905281516020819301609483015e01603c01605881017f3c2f746578743e000000000000000000000000000000000000000000000000009052036058016018198101855260070161128f9085612797565b6112989061283b565b9b6008019b8c91604051809360208201937f4c762e0000000000000000000000000000000000000000000000000000000000855280516020819201602385015e8201602381017f2000000000000000000000000000000000000000000000000000000000000000905260240161130d91612a3c565b03601f198101845261131f9084612797565b611aaa576040519687916020830193518091855e8201602081017f207c200000000000000000000000000000000000000000000000000000000000905260230161136891612a3c565b7f207c20000000000000000000000000000000000000000000000000000000000081526003016080516003019061139e91612a3c565b03601f19810187526113b09087612797565b6040519586926020840194518091865e830190602082017f3c7465787420783d223230302220793d22333730222066696c6c3d22233535369052604082017f2220666f6e742d73697a653d2231302220746578742d616e63686f723d226d699052606082017f64646c652220666f6e742d66616d696c793d226d6f6e6f7370616365223e00009052518092607e83015e01602001605e81017f3c2f746578743e3c2f7376673e00000000000000000000000000000000000000905203605e017fffffffffffffffffffffffffffffffffffffffffffffffffffffffffffffffed81018552600d016114a19085612797565b6040519384926020840196518091885e83019060208201905f8252519283915e016020015f815203601f19810183526114da9083612797565b60405198848a95516020819201602088015e85019060208201905f8252519283915e01602001905f8252518092825e015f815203601f198101865261151f9086612797565b61152a60043561283b565b946115349061299a565b95835160ff166115439061283b565b94602085015160ff166115559061283b565b936040860151956003871015611a965760600151926005841015611a96575160ff166115809061283b565b905167ffffffffffffffff166115959061283b565b9260405196879660208801997f7b2274726169745f74797065223a22496e74656c6c6967656e6365222c2276618b52604089017f6c7565223a00000000000000000000000000000000000000000000000000000090528051602081920160458b015e880160458101611f4b60f21b9052604781017f7b2274726169745f74797065223a225370656564222c2276616c7565223a0000905281516020819301606583015e0160450160208101611f4b60f21b9052602281017f7b2274726169745f74797065223a225370656369616c697a6174696f6e222c229052604281017f76616c7565223a220000000000000000000000000000000000000000000000009052604a016116a291612a3c565b62089f4b60ea1b8152600381017f7b2274726169745f74797065223a2254616c656e7420526172697479222c22769052602381017f616c7565223a22000000000000000000000000000000000000000000000000009052602a01906003019061170a91612a3c565b62089f4b60ea1b8152600381017f7b2274726169745f74797065223a224c6576656c222c2276616c7565223a0000905281516020819301602183015e0160218101611f4b60f21b9052602381017f7b2274726169745f74797065223a2254696572222c2276616c7565223a220000905260410161178691612a3c565b62089f4b60ea1b8152600381017f7b2274726169745f74797065223a225850222c2276616c7565223a0000000000905281516020819301601e83015e01601e8101611f4b60f21b9052602081017f7b2274726169745f74797065223a22457870657269656e6365222c2276616c759052604081017f65223a2200000000000000000000000000000000000000000000000000000000905281516020819301604483015e7f227d00000000000000000000000000000000000000000000000000000000000060449290910191820152036026810182526118689060460182612797565b604051938493602085017f7b226e616d65223a224167656e74202300000000000000000000000000000000905280516020819201603087015e7f222c226465736372697074696f6e223a224167656e74466f726765204e4641206030918601918201527f2d204149204167656e74204964656e74697479222c000000000000000000000060508201527f22696d616765223a22646174613a696d6167652f7376672b786d6c3b6261736560658201527f36342c000000000000000000000000000000000000000000000000000000000060858201528151918290602001608883015e0160300190605882017f222c0000000000000000000000000000000000000000000000000000000000009052605a82017f2261747472696275746573223a5b0000000000000000000000000000000000009052518092606883015e01605801601081017f5d7d0000000000000000000000000000000000000000000000000000000000009052036010017fffffffffffffffffffffffffffffffffffffffffffffffffffffffffffffffe281018252600201611a069082612797565b611a0f9061299a565b6040518060208101927f646174613a6170706c69636174696f6e2f6a736f6e3b6261736536342c000000845280516020819201603d84015e8101603d81015f905203603d01601f1981018252611a659082612797565b60405191829160208352518091816020850152604084015e8082016040015f9052601f01601f191681010360400190f35b634e487b7160e01b5f52602160045260245ffd5b634e487b7160e01b5f52603260045260245ffd5b604051611acc602082612797565b5f81529461109b565b5f9350611ae4600b8401612aa6565b90610f96565b602560209384611bc794605a946040519784899551918291018587015e8401907f3c636972636c652063783d22323930222063793d2239302220723d2235222066848301526434b6361e9160d91b6040830152518092604583015e01017f222066696c7465723d2275726c2823672922206f7061636974793d222e35222f838201527f3e3c636972636c652063783d22323930222063793d2239302220723d2232222060458201527f66696c6c3d222366666622206f7061636974793d222e38222f3e00000000000060658201520301603a810184520182612797565b8b80610f29565b605b60286020939684611cc6946040519683889451918291018486015e8301907f3c636972636c652063783d22313330222063793d223238352220723d22342e35838301527f222066696c6c3d22000000000000000000000000000000000000000000000000604083015251908160c051604883015e01017f222066696c7465723d2275726c2823672922206f7061636974793d222e36222f838201527f3e3c636972636c652063783d22313330222063793d223238352220723d22322260488201527f2066696c6c3d222366666622206f7061636974793d222e38222f3e000000000060688201520301603b810184520182612797565b928e610f23565b94611daa605a6025602093846040519582879351918291018385015e82017f3c636972636c652063783d22323230222063793d2237352220723d2234222066828201526434b6361e9160d91b6040820152895190818c604583015e01017f222066696c7465723d2275726c2823672922206f7061636974793d222e37222f838201527f3e3c636972636c652063783d22323230222063793d2237352220723d2232222060458201527f66696c6c3d222366666622206f7061636974793d222e39222f3e00000000000060658201520301603a810184520182612797565b94610f1e565b611e8e919298506025605c9160206040519586925180918385015e82017f3c636972636c652063783d223832222063793d223136302220723d2235222066828201526434b6361e9160d91b60408201528851908160c051604583015e01017f222066696c7465723d2275726c2823672922206f7061636974793d222e36222f838201527f3e3c636972636c652063783d223832222063793d223136302220723d22322e3560458201527f222066696c6c3d222366666622206f7061636974793d222e38222f3e0000000060658201520301603c810184520182612797565b955f80610f17565b9c611f58606a602080936040519481869251918291018484015e81017f3c656c6c697073652063783d22323030222063793d22313835222072783d2239838201527f30222072793d22333022207374726f6b652d77696474683d222e3522206f706160408201527f636974793d222e3522207472616e73666f726d3d22726f746174652837352c3260608201527f30302c31383529222f3e0000000000000000000000000000000000000000000060808201520301604a810184520182612797565b9c610d94565b9b612020606c602080936040519481869251918291018484015e81017f3c656c6c697073652063783d22323030222063793d22313835222072783d2231838201527f3030222072793d22333222207374726f6b652d77696474683d222e3522206f7060408201527f61636974793d222e3622207472616e73666f726d3d22726f74617465282d353560608201527f2c3230302c31383529222f3e000000000000000000000000000000000000000060808201520301604c810184520182612797565b9b610d83565b6120e791929d506020606b916040519485915180918484015e81017f3c656c6c697073652063783d22323030222063793d22313835222072783d2231838201527f3130222072793d22343022207374726f6b652d77696474683d222e3622206f7060408201527f61636974793d222e3822207472616e73666f726d3d22726f746174652833352c60608201527f3230302c31383529222f3e00000000000000000000000000000000000000000060808201520301604b810184520182612797565b9a8d80610d70565b611aaa576120ff87600e01612aa6565b966108e4565b611aaa5761211586600b01612aa6565b6108c9565b61224c60db8380936040519481869251918291018484015e81017f3c67206f7061636974793d222e303422207374726f6b653d2223464644373030838201527f222066696c6c3d226e6f6e6522207374726f6b652d77696474683d2232223e3c60408201527f7061746820643d224d302c383020513130302c313230203230302c383020513360608201527f30302c3430203430302c3830222f3e3c7061746820643d224d302c323430205160808201527f3130302c323030203230302c32343020513330302c323830203430302c32343060a08201527f222f3e3c7061746820643d224d302c33323020513130302c323830203230302c60c08201527f33323020513330302c333630203430302c333230222f3e3c2f673e000000000060e0820152030160bb810184520182612797565b61087c565b6001036124545750506093600961244f9285604051918180840197805191829101895e8301907f3c7265637420783d22362220793d2236222077696474683d2233383822206865838301527f696768743d22333838222072783d223136222066696c6c3d226e6f6e652220736040830152663a3937b5b29e9160c91b60608301526123446021604786868551818701978189606783015e01017f22207374726f6b652d77696474683d223222206f7061636974793d222e36222f838201527f3e00000000000000000000000000000000000000000000000000000000000000606782015203016001810187520185612797565b6040519788945180918587015e8401907f3c672066696c6c3d22000000000000000000000000000000000000000000000084830152518092602983015e01017f22206f7061636974793d222e34223e3c636972636c652063783d223230222063838201527f793d2232302220723d2233222f3e3c636972636c652063783d2233383022206360298201527f793d2232302220723d2233222f3e3c636972636c652063783d2232302220637960498201527f3d223338302220723d2233222f3e3c636972636c652063783d2233383022206360698201527f793d223338302220723d2233222f3e3c2f673e00000000000000000000000000608982015203016073810184520182612797565b61086e565b6021919350604790858061244f956040519788945180918487015e8401907f3c7265637420783d22382220793d2238222077696474683d2233383422206865838301527f696768743d22333834222072783d223136222066696c6c3d226e6f6e652220736040830152663a3937b5b29e9160c91b6060830152805192839101606783015e01017f22207374726f6b652d77696474683d223222206f7061636974793d222e35222f838201527f3e00000000000000000000000000000000000000000000000000000000000000606782015203016001810184520182612797565b611aaa5761254488601401612aa6565b916102cf565b611aaa5761255a87601101612aa6565b90610284565b611aaa5761257086600b01612aa6565b610239565b5f9550612584600e8601612aa6565b610220565b9093503d805f833e61259b8183612797565b8101906020818303126100825780519067ffffffffffffffff8211610082570181601f82011215610082578051906125d2826127ee565b926125e06040519485612797565b8284526020838301011161008257815f9260208093018386015e8301015292846101e6565b6040513d5f823e3d90fd5b9391506020843d602011612648575b8161262c60209383612797565b81010312610082575f6126406024956127ba565b92945061019f565b3d915061261f565b90915060a0813d60a0116126fd575b8161266c60a09383612797565b81010312610082576040519060a0820182811067ffffffffffffffff8211176126e9576126dd916080916040526126a2816127c8565b84526126b0602082016127ba565b60208501526126c1604082016127dd565b60408501526126d2606082016127dd565b6060850152016127c8565b60808201529083610158565b634e487b7160e01b5f52604160045260245ffd5b3d915061265f565b90506080813d60801161278f575b8161272060809383612797565b8101031261008257604051906080820182811067ffffffffffffffff8211176126e95760405261274f816127ba565b825261275d602082016127ba565b602083015260408101519060038210156100825760609160408401520151600581101561008257606082015282610111565b3d9150612713565b90601f601f19910116810190811067ffffffffffffffff8211176126e957604052565b519060ff8216820361008257565b519067ffffffffffffffff8216820361008257565b519063ffffffff8216820361008257565b67ffffffffffffffff81116126e957601f01601f191660200190565b90612814826127ee565b6128216040519182612797565b828152601f1961283182946127ee565b0190602036910137565b805f917a184f03e93ff9f4daa797ed6e38ed64bf6a1f010000000000000000821015612972575b806d04ee2d6d415b85acef8100000000600a921015612957575b662386f26fc10000811015612943575b6305f5e100811015612932575b612710811015612923575b6064811015612915575b101561290a575b600a60216128c56001850161280a565b938401015b5f1901917f30313233343536373839616263646566000000000000000000000000000000008282061a835304801561290557600a90916128ca565b505090565b6001909101906128b5565b6064600291049301926128ae565b612710600491049301926128a4565b6305f5e10060089104930192612899565b662386f26fc100006010910493019261288c565b6d04ee2d6d415b85acef81000000006020910493019261287c565b50604091507a184f03e93ff9f4daa797ed6e38ed64bf6a1f0100000000000000008104612862565b604051612a01916129ac606083612797565b604082527f4142434445464748494a4b4c4d4e4f505152535455565758595a61626364656660208301527f6768696a6b6c6d6e6f707172737475767778797a303132333435363738392b2f6040830152612bbc565b90565b90600182811c92168015612a32575b6020831014612a1e57565b634e487b7160e01b5f52602260045260245ffd5b91607f1691612a13565b5f9291815491612a4b83612a04565b9260018116908115612a935750600114612a6457505050565b90919293505f5260205f205f905b838210612a7f5750500190565b600181602092548486015201910190612a72565b60ff191683525050811515909102019150565b9060405191825f825492612ab984612a04565b8084529360018116908115612b245750600114612ae0575b50612ade92500383612797565b565b90505f9291925260205f20905f915b818310612b08575050906020612ade928201015f612ad1565b6020919350806001915483858901015201910190918492612aef565b60209350612ade95925060ff1991501682840152151560051b8201015f612ad1565b60405190612b55604083612797565b600782527f23666664346135000000000000000000000000000000000000000000000000006020830152565b60405190612b90604083612797565b600782527f23666636623662000000000000000000000000000000000000000000000000006020830152565b919091805115612ce757805160028101809111612cd357600390048060021b907f3fffffffffffffffffffffffffffffffffffffffffffffffffffffffffffffff811603612cd357612c0d9061280a565b90602082019080815182019560208701908151925f83525b888110612c855750506003939495965052510680600114612c5557600214612c4b575090565b603d905f19015390565b507ffffffffffffffffffffffffffffffffffffffffffffffffffffffffffffffffe603d91825f19820153015390565b600360049199969901986001603f8b5182828260121c16870101518453828282600c1c16870101518385015382828260061c1687010151600285015316840101516003820153019497612c25565b634e487b7160e01b5f52601160045260245ffd5b509050604051612cf8602082612797565b5f81529056fea2646970667358221220768c92629e7449412b1f7f9626c613ae2f432ff1cc0b25f58f5a027475fcf35164736f6c63430008210033",
  "linkReferences": {},
  "deployedLinkReferences": {},
  "immutableReferences": {
    "7803": [
      {
        "length": 32,
        "start": 94
      },
      {
        "length": 32,
        "start": 174
      }
    ]
  },
  "inputSourceName": "project/contracts/AgentNFARenderer.sol",
  "devdoc": {
    "kind": "dev",
    "methods": {},
    "title": "AgentNFARenderer",
    "version": 1
  },
  "evm": {
    "gasEstimates": {
      "creation": {
        "codeDepositCost": "2314400",
        "executionCost": "infinite",
        "totalCost": "infinite"
      },
      "external": {
        "agentNFA()": "infinite",
        "constructTokenURI(uint256)": "infinite"
      },
      "internal": {
        "_buildAttributes(struct AgentNFA.AgentTraits memory,struct AgentNFA.AgentStats memory,uint8,string memory)": "infinite",
        "_buildSVG(uint256,struct AgentNFA.AgentTraits memory,struct AgentNFA.AgentStats memory,uint8)": "infinite",
        "_svgAuraAndOrb(string memory,uint8)": "infinite",
        "_svgBgAndFrame(string memory,string memory,uint8,bool)": "infinite",
        "_svgBody(uint8,uint8,bool)": "infinite",
        "_svgDefs(string memory,string memory,string memory)": "infinite",
        "_svgFoot(uint256,uint8,uint8,uint8,uint8,bool)": "infinite",
        "_svgHead(uint8,uint8,bool)": "infinite",
        "_svgLabel(uint256,uint8,uint8,uint8,uint8)": "infinite",
        "_svgOrbits(string memory,uint8)": "infinite",
        "_svgParticles(string memory,string memory,uint8)": "infinite"
      }
    }
  },
  "storageLayout": {
    "storage": [
      {
        "astId": 7807,
        "contract": "project/contracts/AgentNFARenderer.sol:AgentNFARenderer",
        "label": "_specNames",
        "offset": 0,
        "slot": "0",
        "type": "t_array(t_string_storage)3_storage"
      },
      {
        "astId": 7811,
        "contract": "project/contracts/AgentNFARenderer.sol:AgentNFARenderer",
        "label": "_rarityNames",
        "offset": 0,
        "slot": "3",
        "type": "t_array(t_string_storage)5_storage"
      },
      {
        "astId": 7815,
        "contract": "project/contracts/AgentNFARenderer.sol:AgentNFARenderer",
        "label": "_tierNames",
        "offset": 0,
        "slot": "8",
        "type": "t_array(t_string_storage)3_storage"
      },
      {
        "astId": 7819,
        "contract": "project/contracts/AgentNFARenderer.sol:AgentNFARenderer",
        "label": "_mainColor",
        "offset": 0,
        "slot": "11",
        "type": "t_array(t_string_storage)3_storage"
      },
      {
        "astId": 7823,
        "contract": "project/contracts/AgentNFARenderer.sol:AgentNFARenderer",
        "label": "_lightColor",
        "offset": 0,
        "slot": "14",
        "type": "t_array(t_string_storage)3_storage"
      },
      {
        "astId": 7827,
        "contract": "project/contracts/AgentNFARenderer.sol:AgentNFARenderer",
        "label": "_darkColor",
        "offset": 0,
        "slot": "17",
        "type": "t_array(t_string_storage)3_storage"
      },
      {
        "astId": 7831,
        "contract": "project/contracts/AgentNFARenderer.sol:AgentNFARenderer",
        "label": "_bgColor",
        "offset": 0,
        "slot": "20",
        "type": "t_array(t_string_storage)3_storage"
      },
      {
        "astId": 7835,
        "contract": "project/contracts/AgentNFARenderer.sol:AgentNFARenderer",
        "label": "_tierColor",
        "offset": 0,
        "slot": "23",
        "type": "t_array(t_string_storage)3_storage"
      },
      {
        "astId": 7839,
        "contract": "project/contracts/AgentNFARenderer.sol:AgentNFARenderer",
        "label": "_specSymbol",
        "offset": 0,
        "slot": "26",
        "type": "t_array(t_string_storage)3_storage"
      },
      {
        "astId": 7843,
        "contract": "project/contracts/AgentNFARenderer.sol:AgentNFARenderer",
        "label": "_specSymbolSize",
        "offset": 0,
        "slot": "29",
        "type": "t_array(t_string_storage)3_storage"
      },
      {
        "astId": 7847,
        "contract": "project/contracts/AgentNFARenderer.sol:AgentNFARenderer",
        "label": "_specSymbolFont",
        "offset": 0,
        "slot": "32",
        "type": "t_array(t_string_storage)3_storage"
      }
    ],
    "types": {
      "t_array(t_string_storage)3_storage": {
        "base": "t_string_storage",
        "encoding": "inplace",
        "label": "string[3]",
        "numberOfBytes": "96"
      },
      "t_array(t_string_storage)5_storage": {
        "base": "t_string_storage",
        "encoding": "inplace",
        "label": "string[5]",
        "numberOfBytes": "160"
      },
      "t_string_storage": {
        "encoding": "bytes",
        "label": "string",
        "numberOfBytes": "32"
      }
    }
  },
  "userdoc": {
    "kind": "user",
    "methods": {},
    "notice": "On-chain SVG renderer – energy orb style         Color by specialization, complexity by rarity, frame by tier",
    "version": 1
  },
  "argsData": "0x000000000000000000000000eec290cbfca23ceac33650d94b6a8086f259b357",
  "transaction": {
    "hash": "0x910eef15a619cf821edbaa984e65f612cb55632c7494b2d726da2f688a9cfa17",
    "nonce": "0x80f",
    "origin": "0xc3fa77c9d5cb9f1bb50d4c05a86d4a24cf4563e8"
  }
}