{
  "address": "0xe378ce5365314676a6bbc6f190741b1826203142",
  "abi": [
    {
      "inputs": [
        {
          "internalType": "address",
          "name": "_afgToken",
          "type": "address"
        },
        {
          "internalType": "address",
          "name": "_agentNFA",
          "type": "address"
        },
        {
          "internalType": "address",
          "name": "_problemManager",
          "type": "address"
        }
      ],
      "stateMutability": "nonpayable",
      "type": "constructor"
    },
    {
      "inputs": [],
      "name": "AlreadyCommitted",
      "type": "error"
    },
    {
      "inputs": [],
      "name": "AlreadyResolved",
      "type": "error"
    },
    {
      "inputs": [],
      "name": "AlreadyRevealed",
      "type": "error"
    },
    {
      "inputs": [],
      "name": "AlreadyStaked",
      "type": "error"
    },
    {
      "inputs": [],
      "name": "CannotUnstakeDuringVerification",
      "type": "error"
    },
    {
      "inputs": [],
      "name": "EnforcedPause",
      "type": "error"
    },
    {
      "inputs": [],
      "name": "ExpectedPause",
      "type": "error"
    },
    {
      "inputs": [],
      "name": "InsufficientStake",
      "type": "error"
    },
    {
      "inputs": [],
      "name": "InvalidReveal",
      "type": "error"
    },
    {
      "inputs": [],
      "name": "LevelTooLow",
      "type": "error"
    },
    {
      "inputs": [],
      "name": "NotCommitted",
      "type": "error"
    },
    {
      "inputs": [],
      "name": "NotElected",
      "type": "error"
    },
    {
      "inputs": [],
      "name": "NotEnoughVerifiers",
      "type": "error"
    },
    {
      "inputs": [],
      "name": "NotInVerifyPhase",
      "type": "error"
    },
    {
      "inputs": [],
      "name": "NotStaked",
      "type": "error"
    },
    {
      "inputs": [],
      "name": "NotTokenOwner",
      "type": "error"
    },
    {
      "inputs": [
        {
          "internalType": "address",
          "name": "owner",
          "type": "address"
        }
      ],
      "name": "OwnableInvalidOwner",
      "type": "error"
    },
    {
      "inputs": [
        {
          "internalType": "address",
          "name": "account",
          "type": "address"
        }
      ],
      "name": "OwnableUnauthorizedAccount",
      "type": "error"
    },
    {
      "inputs": [],
      "name": "ReentrancyGuardReentrantCall",
      "type": "error"
    },
    {
      "inputs": [],
      "name": "ZeroAddress",
      "type": "error"
    },
    {
      "anonymous": false,
      "inputs": [
        {
          "indexed": true,
          "internalType": "uint256",
          "name": "problemId",
          "type": "uint256"
        },
        {
          "indexed": false,
          "internalType": "bytes32",
          "name": "correctAnswer",
          "type": "bytes32"
        },
        {
          "indexed": false,
          "internalType": "uint256",
          "name": "agreeCount",
          "type": "uint256"
        }
      ],
      "name": "ConsensusReached",
      "type": "event"
    },
    {
      "anonymous": false,
      "inputs": [
        {
          "indexed": true,
          "internalType": "uint256",
          "name": "problemId",
          "type": "uint256"
        }
      ],
      "name": "OracleFallbackTriggered",
      "type": "event"
    },
    {
      "anonymous": false,
      "inputs": [
        {
          "indexed": true,
          "internalType": "address",
          "name": "previousOwner",
          "type": "address"
        },
        {
          "indexed": true,
          "internalType": "address",
          "name": "newOwner",
          "type": "address"
        }
      ],
      "name": "OwnershipTransferred",
      "type": "event"
    },
    {
      "anonymous": false,
      "inputs": [
        {
          "indexed": false,
          "internalType": "address",
          "name": "account",
          "type": "address"
        }
      ],
      "name": "Paused",
      "type": "event"
    },
    {
      "anonymous": false,
      "inputs": [
        {
          "indexed": false,
          "internalType": "address",
          "name": "account",
          "type": "address"
        }
      ],
      "name": "Unpaused",
      "type": "event"
    },
    {
      "anonymous": false,
      "inputs": [
        {
          "indexed": true,
          "internalType": "uint256",
          "name": "tokenId",
          "type": "uint256"
        },
        {
          "indexed": false,
          "internalType": "uint256",
          "name": "amount",
          "type": "uint256"
        }
      ],
      "name": "VerifierSlashed",
      "type": "event"
    },
    {
      "anonymous": false,
      "inputs": [
        {
          "indexed": true,
          "internalType": "uint256",
          "name": "tokenId",
          "type": "uint256"
        },
        {
          "indexed": false,
          "internalType": "uint256",
          "name": "amount",
          "type": "uint256"
        }
      ],
      "name": "VerifierStaked",
      "type": "event"
    },
    {
      "anonymous": false,
      "inputs": [
        {
          "indexed": true,
          "internalType": "uint256",
          "name": "tokenId",
          "type": "uint256"
        },
        {
          "indexed": false,
          "internalType": "uint256",
          "name": "amount",
          "type": "uint256"
        }
      ],
      "name": "VerifierUnstaked",
      "type": "event"
    },
    {
      "anonymous": false,
      "inputs": [
        {
          "indexed": true,
          "internalType": "uint256",
          "name": "problemId",
          "type": "uint256"
        },
        {
          "indexed": false,
          "internalType": "uint256[]",
          "name": "tokenIds",
          "type": "uint256[]"
        }
      ],
      "name": "VerifiersElected",
      "type": "event"
    },
    {
      "anonymous": false,
      "inputs": [
        {
          "indexed": true,
          "internalType": "uint256",
          "name": "problemId",
          "type": "uint256"
        },
        {
          "indexed": true,
          "internalType": "uint256",
          "name": "tokenId",
          "type": "uint256"
        }
      ],
      "name": "VoteCommitted",
      "type": "event"
    },
    {
      "anonymous": false,
      "inputs": [
        {
          "indexed": true,
          "internalType": "uint256",
          "name": "problemId",
          "type": "uint256"
        },
        {
          "indexed": true,
          "internalType": "uint256",
          "name": "tokenId",
          "type": "uint256"
        },
        {
          "indexed": false,
          "internalType": "bytes32",
          "name": "answerHash",
          "type": "bytes32"
        }
      ],
      "name": "VoteRevealed",
      "type": "event"
    },
    {
      "inputs": [],
      "name": "CONSENSUS_THRESHOLD",
      "outputs": [
        {
          "internalType": "uint256",
          "name": "",
          "type": "uint256"
        }
      ],
      "stateMutability": "view",
      "type": "function"
    },
    {
      "inputs": [],
      "name": "MIN_STAKE",
      "outputs": [
        {
          "internalType": "uint256",
          "name": "",
          "type": "uint256"
        }
      ],
      "stateMutability": "view",
      "type": "function"
    },
    {
      "inputs": [],
      "name": "MIN_VERIFIER_LEVEL",
      "outputs": [
        {
          "internalType": "uint8",
          "name": "",
          "type": "uint8"
        }
      ],
      "stateMutability": "view",
      "type": "function"
    },
    {
      "inputs": [],
      "name": "SLASH_BPS",
      "outputs": [
        {
          "internalType": "uint256",
          "name": "",
          "type": "uint256"
        }
      ],
      "stateMutability": "view",
      "type": "function"
    },
    {
      "inputs": [],
      "name": "VERIFIER_COUNT",
      "outputs": [
        {
          "internalType": "uint256",
          "name": "",
          "type": "uint256"
        }
      ],
      "stateMutability": "view",
      "type": "function"
    },
    {
      "inputs": [
        {
          "internalType": "uint256",
          "name": "",
          "type": "uint256"
        }
      ],
      "name": "activeVerificationCount",
      "outputs": [
        {
          "internalType": "uint256",
          "name": "",
          "type": "uint256"
        }
      ],
      "stateMutability": "view",
      "type": "function"
    },
    {
      "inputs": [],
      "name": "afgToken",
      "outputs": [
        {
          "internalType": "contract AFGToken",
          "name": "",
          "type": "address"
        }
      ],
      "stateMutability": "view",
      "type": "function"
    },
    {
      "inputs": [],
      "name": "agentNFA",
      "outputs": [
        {
          "internalType": "contract AgentNFA",
          "name": "",
          "type": "address"
        }
      ],
      "stateMutability": "view",
      "type": "function"
    },
    {
      "inputs": [
        {
          "internalType": "uint256",
          "name": "problemId",
          "type": "uint256"
        },
        {
          "internalType": "uint256",
          "name": "tokenId",
          "type": "uint256"
        },
        {
          "internalType": "bytes32",
          "name": "commitHash",
          "type": "bytes32"
        }
      ],
      "name": "commitVote",
      "outputs": [],
      "stateMutability": "nonpayable",
      "type": "function"
    },
    {
      "inputs": [
        {
          "internalType": "uint256",
          "name": "problemId",
          "type": "uint256"
        }
      ],
      "name": "electVerifiers",
      "outputs": [],
      "stateMutability": "nonpayable",
      "type": "function"
    },
    {
      "inputs": [
        {
          "internalType": "uint256",
          "name": "problemId",
          "type": "uint256"
        }
      ],
      "name": "getElectedVerifiers",
      "outputs": [
        {
          "internalType": "uint256[]",
          "name": "",
          "type": "uint256[]"
        }
      ],
      "stateMutability": "view",
      "type": "function"
    },
    {
      "inputs": [
        {
          "internalType": "uint256",
          "name": "problemId",
          "type": "uint256"
        }
      ],
      "name": "getHonestVerifiers",
      "outputs": [
        {
          "internalType": "uint256[]",
          "name": "",
          "type": "uint256[]"
        }
      ],
      "stateMutability": "view",
      "type": "function"
    },
    {
      "inputs": [
        {
          "internalType": "uint256",
          "name": "problemId",
          "type": "uint256"
        }
      ],
      "name": "getRevealCount",
      "outputs": [
        {
          "internalType": "uint256",
          "name": "",
          "type": "uint256"
        }
      ],
      "stateMutability": "view",
      "type": "function"
    },
    {
      "inputs": [],
      "name": "getVerifierPoolSize",
      "outputs": [
        {
          "internalType": "uint256",
          "name": "",
          "type": "uint256"
        }
      ],
      "stateMutability": "view",
      "type": "function"
    },
    {
      "inputs": [
        {
          "internalType": "uint256",
          "name": "problemId",
          "type": "uint256"
        },
        {
          "internalType": "uint256",
          "name": "tokenId",
          "type": "uint256"
        }
      ],
      "name": "getVerifierVote",
      "outputs": [
        {
          "internalType": "bool",
          "name": "committed",
          "type": "bool"
        },
        {
          "internalType": "bool",
          "name": "revealed",
          "type": "bool"
        },
        {
          "internalType": "bytes32",
          "name": "revealedAnswer",
          "type": "bytes32"
        }
      ],
      "stateMutability": "view",
      "type": "function"
    },
    {
      "inputs": [
        {
          "internalType": "uint256",
          "name": "",
          "type": "uint256"
        },
        {
          "internalType": "uint256",
          "name": "",
          "type": "uint256"
        }
      ],
      "name": "isElected",
      "outputs": [
        {
          "internalType": "bool",
          "name": "",
          "type": "bool"
        }
      ],
      "stateMutability": "view",
      "type": "function"
    },
    {
      "inputs": [
        {
          "internalType": "uint256",
          "name": "",
          "type": "uint256"
        }
      ],
      "name": "isInPool",
      "outputs": [
        {
          "internalType": "bool",
          "name": "",
          "type": "bool"
        }
      ],
      "stateMutability": "view",
      "type": "function"
    },
    {
      "inputs": [
        {
          "internalType": "uint256",
          "name": "problemId",
          "type": "uint256"
        }
      ],
      "name": "isVerificationResolved",
      "outputs": [
        {
          "internalType": "bool",
          "name": "",
          "type": "bool"
        }
      ],
      "stateMutability": "view",
      "type": "function"
    },
    {
      "inputs": [],
      "name": "owner",
      "outputs": [
        {
          "internalType": "address",
          "name": "",
          "type": "address"
        }
      ],
      "stateMutability": "view",
      "type": "function"
    },
    {
      "inputs": [],
      "name": "pause",
      "outputs": [],
      "stateMutability": "nonpayable",
      "type": "function"
    },
    {
      "inputs": [],
      "name": "paused",
      "outputs": [
        {
          "internalType": "bool",
          "name": "",
          "type": "bool"
        }
      ],
      "stateMutability": "view",
      "type": "function"
    },
    {
      "inputs": [],
      "name": "problemManager",
      "outputs": [
        {
          "internalType": "contract ProblemManager",
          "name": "",
          "type": "address"
        }
      ],
      "stateMutability": "view",
      "type": "function"
    },
    {
      "inputs": [],
      "name": "renounceOwnership",
      "outputs": [],
      "stateMutability": "nonpayable",
      "type": "function"
    },
    {
      "inputs": [
        {
          "internalType": "uint256",
          "name": "problemId",
          "type": "uint256"
        },
        {
          "internalType": "uint256",
          "name": "tokenId",
          "type": "uint256"
        },
        {
          "internalType": "bytes32",
          "name": "answerHash",
          "type": "bytes32"
        },
        {
          "internalType": "bytes32",
          "name": "salt",
          "type": "bytes32"
        }
      ],
      "name": "revealVote",
      "outputs": [],
      "stateMutability": "nonpayable",
      "type": "function"
    },
    {
      "inputs": [
        {
          "internalType": "address",
          "name": "_pm",
          "type": "address"
        }
      ],
      "name": "setProblemManager",
      "outputs": [],
      "stateMutability": "nonpayable",
      "type": "function"
    },
    {
      "inputs": [
        {
          "internalType": "uint256",
          "name": "tokenId",
          "type": "uint256"
        },
        {
          "internalType": "uint256",
          "name": "amount",
          "type": "uint256"
        }
      ],
      "name": "stake",
      "outputs": [],
      "stateMutability": "nonpayable",
      "type": "function"
    },
    {
      "inputs": [
        {
          "internalType": "uint256",
          "name": "problemId",
          "type": "uint256"
        }
      ],
      "name": "tallyAndResolve",
      "outputs": [],
      "stateMutability": "nonpayable",
      "type": "function"
    },
    {
      "inputs": [
        {
          "internalType": "address",
          "name": "newOwner",
          "type": "address"
        }
      ],
      "name": "transferOwnership",
      "outputs": [],
      "stateMutability": "nonpayable",
      "type": "function"
    },
    {
      "inputs": [],
      "name": "unpause",
      "outputs": [],
      "stateMutability": "nonpayable",
      "type": "function"
    },
    {
      "inputs": [
        {
          "internalType": "uint256",
          "name": "tokenId",
          "type": "uint256"
        }
      ],
      "name": "unstake",
      "outputs": [],
      "stateMutability": "nonpayable",
      "type": "function"
    },
    {
      "inputs": [
        {
          "internalType": "uint256",
          "name": "",
          "type": "uint256"
        }
      ],
      "name": "verifierPool",
      "outputs": [
        {
          "internalType": "uint256",
          "name": "",
          "type": "uint256"
        }
      ],
      "stateMutability": "view",
      "type": "function"
    },
    {
      "inputs": [
        {
          "internalType": "uint256",
          "name": "",
          "type": "uint256"
        }
      ],
      "name": "verifiers",
      "outputs": [
        {
          "internalType": "uint256",
          "name": "tokenId",
          "type": "uint256"
        },
        {
          "internalType": "uint256",
          "name": "stakedAmount",
          "type": "uint256"
        },
        {
          "internalType": "bool",
          "name": "active",
          "type": "bool"
        }
      ],
      "stateMutability": "view",
      "type": "function"
    }
  ],
  "contractName": "VerifierElection",
  "sourceName": "contracts/VerifierElection.sol",
  "bytecode": "0x60c03461019a57601f61245a38819003918201601f19168301916001600160401b0383118484101761019e5780849260609460405283398101031261019a57610047816101b2565b906100606040610059602084016101b2565b92016101b2565b903315610187575f8054336001600160a01b0319821681178355604051959290916001600160a01b0316907f8be0079c531659141344cd1fd0a4f28419497f9722a3daafe3b4186f6b6457e09080a3600180556001600160a01b031680158015610176575b8015610165575b610156576080526001600160a01b0390811660a052600280546001600160a01b0319169290911691909117905561229390816101c7823960805181818161085101528181610bf40152818161106a015281816117f10152611963015260a0518181816102d0015281816105620152818161073601528181610d2101528181610f3101526120390152f35b63d92e233d60e01b5f5260045ffd5b506001600160a01b038316156100cc565b506001600160a01b038216156100c5565b631e4fbdf760e01b5f525f60045260245ffd5b5f80fd5b634e487b7160e01b5f52604160045260245ffd5b51906001600160a01b038216820361019a5756fe6080806040526004361015610012575f80fd5b5f3560e01c90816312a43d02146113a05750806318a9137f146113845780631c9fce94146111ee5780632e17de7814610ef2578063307dcd8514610ce357806338076f61146105285780633cf05f7314610cb65780633f4ba83a14610c185780634bb7dd8214610bd557806353d3a2d714610bb8578063547cb80114610b895780635c975abb14610b6557806369362ca014610b335780636a67fc3714610ae8578063715018a614610a845780637b0472f01461070e5780638456cb59146106855780638da5cb5b14610660578063932bfbb61461063a578063933cd8de1461061e5780639b9ef585146105cc578063ac1eff6814610586578063af9ce20514610543578063bc30842414610528578063bca125f01461050d578063c9068cd6146104e7578063cb1c2b5c146104c3578063dc814b7e14610474578063e2513ab31461028e578063e49fc42214610256578063ed502e6d1461022c5763f2fde38b1461017c575f80fd5b34610228576020600319360112610228576004356001600160a01b038116809103610228576101a96121e8565b80156101fc576001600160a01b035f548273ffffffffffffffffffffffffffffffffffffffff198216175f55167f8be0079c531659141344cd1fd0a4f28419497f9722a3daafe3b4186f6b6457e05f80a3005b7f1e4fbdf7000000000000000000000000000000000000000000000000000000005f525f60045260245ffd5b5f80fd5b34610228576020600319360112610228576004355f526009602052602060405f2054604051908152f35b34610228576020600319360112610228576004356004548110156102285761027f60209161141e565b90549060031b1c604051908152f35b34610228576060600319360112610228576024356004356102ad612227565b6040516331a9108f60e11b81528260048201526020816024816001600160a01b037f0000000000000000000000000000000000000000000000000000000000000000165afa908115610469575f9161043a575b506001600160a01b033391160361041257805f52600860205260405f20825f5260205260ff60405f205416156103ea57805f52600760205260405f2060ff6003820154166103c257600190835f520160205260405f20600281019081549060ff821661039a57604435905560ff191660011790557fe5ddf00b115e164938fc12f8ee0f242f62689022241eee4c3f0301c62d77e8f25f80a3005b7fbfec5558000000000000000000000000000000000000000000000000000000005f5260045ffd5b7f6d5703c2000000000000000000000000000000000000000000000000000000005f5260045ffd5b7fea342f19000000000000000000000000000000000000000000000000000000005f5260045ffd5b7f59dc379f000000000000000000000000000000000000000000000000000000005f5260045ffd5b61045c915060203d602011610462575b610454818361145f565b810190611cd9565b83610300565b503d61044a565b6040513d5f823e3d90fd5b34610228576020600319360112610228576004356001600160a01b038116809103610228576104a16121e8565b73ffffffffffffffffffffffffffffffffffffffff1960025416176002555f80f35b34610228575f60031936011261022857602060405169021e19e0c9bab24000008152f35b34610228575f6003193601126102285760206001600160a01b0360025416604051908152f35b34610228575f60031936011261022857602060405160038152f35b34610228575f60031936011261022857602060405160058152f35b34610228575f6003193601126102285760206040516001600160a01b037f0000000000000000000000000000000000000000000000000000000000000000168152f35b34610228576020600319360112610228576004355f526003602052606060405f2080549060ff600260018301549201541690604051928352602083015215156040820152f35b34610228576105da366113cf565b905f526007602052600160405f2001905f52602052606060405f206001600282015491015460ff604051928181161515845260081c16151560208301526040820152f35b34610228575f6003193601126102285760206040516103e88152f35b3461022857602060031936011261022857610653612227565b61065e600435611d48565b005b34610228575f6003193601126102285760206001600160a01b035f5416604051908152f35b34610228575f6003193601126102285761069d6121e8565b6106a5612227565b740100000000000000000000000000000000000000007fffffffffffffffffffffff00ffffffffffffffffffffffffffffffffffffffff5f5416175f557f62e78cea01bee320cd4e420270b5ea74000d11b0c9f74754ebdbfc544b05a2586020604051338152a1005b346102285761071c366113cf565b6107246121af565b61072c612227565b6001600160a01b037f0000000000000000000000000000000000000000000000000000000000000000166040516331a9108f60e11b8152836004820152602081602481855afa908115610469575f91610a65575b506001600160a01b0333911603610412576020602491604051928380927f86481d400000000000000000000000000000000000000000000000000000000082528760048301525afa9081156104695760059160ff915f91610a36575b501610610a0e5769021e19e0c9bab240000081106109e657815f52600660205260ff60405f2054166109be576040517f23b872dd0000000000000000000000000000000000000000000000000000000081523360048201523060248201528160448201526020816064815f6001600160a01b037f0000000000000000000000000000000000000000000000000000000000000000165af1801561046957610987575b506040516060810181811067ffffffffffffffff8211176109735760405282815260026020820191838352604081019260018452855f52600360205260405f2091518255516001820155019051151560ff60ff198354169116179055600454825f52600560205260405f205560045468010000000000000000811015610973577f3d195a2a0f854ec62eb50efb1af9de4ad5b4527f402cf387cb99871e3e34f950916109508461093884600160209601600455600461144a565b90919082549060031b91821b915f19901b1916179055565b835f526006825260405f20600160ff19825416179055604051908152a260018055005b634e487b7160e01b5f52604160045260245ffd5b6020813d6020116109b6575b816109a06020938361145f565b81010312610228576109b190611497565b61087e565b3d9150610993565b7f0ae3514d000000000000000000000000000000000000000000000000000000005f5260045ffd5b7ff1bc94d2000000000000000000000000000000000000000000000000000000005f5260045ffd5b7fb61541f1000000000000000000000000000000000000000000000000000000005f5260045ffd5b610a58915060203d602011610a5e575b610a50818361145f565b810190611d2f565b856107dc565b503d610a46565b610a7e915060203d60201161046257610454818361145f565b84610780565b34610228575f60031936011261022857610a9c6121e8565b5f6001600160a01b03815473ffffffffffffffffffffffffffffffffffffffff1981168355167f8be0079c531659141344cd1fd0a4f28419497f9722a3daafe3b4186f6b6457e08280a3005b34610228576020600319360112610228576004355f526007602052610b2f610b1c610b2360405f2060405192838092611cf8565b038261145f565b604051918291826113e5565b0390f35b34610228576020600319360112610228576004355f526007602052602060ff600360405f200154166040519015158152f35b34610228575f60031936011261022857602060ff5f5460a01c166040519015158152f35b34610228576020600319360112610228576004355f526006602052602060ff60405f2054166040519015158152f35b34610228575f600319360112610228576020600454604051908152f35b34610228575f6003193601126102285760206040516001600160a01b037f0000000000000000000000000000000000000000000000000000000000000000168152f35b34610228575f60031936011261022857610c306121e8565b5f5460ff8160a01c1615610c8e577fffffffffffffffffffffff00ffffffffffffffffffffffffffffffffffffffff165f557f5db9ee0a495bf2e6ff9c91a7834c1ba4fdd244a5e8aa4e537bd38aeae4b073aa6020604051338152a1005b7f8dfc202b000000000000000000000000000000000000000000000000000000005f5260045ffd5b34610228576020600319360112610228576004355f5260076020526020600260405f200154604051908152f35b3461022857608060031936011261022857600435602435906044356040516331a9108f60e11b81528360048201526020816024816001600160a01b037f0000000000000000000000000000000000000000000000000000000000000000165afa908115610469575f91610ed3575b506001600160a01b033391160361041257815f52600860205260405f20835f5260205260ff60405f205416156103ea57815f52600760205260405f2060ff6003820154166103c257835f526001810160205260405f2091600283019283549260ff841615610eab5760ff8460081c16610e83576040516020810190848252606435604082015260408152610de660608261145f565b519020825403610e5b578260016002937f25c66dc5370838865b6000784e95089867b667bcf3d03c7f9beb9db549683876976101007fffffffffffffffffffffffffffffffffffffffffffffffffffffffffffff00ff60209916179055015501610e5081546115a4565b9055604051908152a3005b7f9ea6d127000000000000000000000000000000000000000000000000000000005f5260045ffd5b7fa89ac151000000000000000000000000000000000000000000000000000000005f5260045ffd5b7f81791cb4000000000000000000000000000000000000000000000000000000005f5260045ffd5b610eec915060203d60201161046257610454818361145f565b84610d51565b3461022857602060031936011261022857600435610f0e6121af565b6040516331a9108f60e11b81528160048201526020816024816001600160a01b037f0000000000000000000000000000000000000000000000000000000000000000165afa908115610469575f916111cf575b506001600160a01b033391160361041257805f52600660205260ff60405f205416156111a757805f52600960205260405f205461117f57805f52600360205260405f206001810190815491835f52600560205260405f20546004545f19810190811161116b5780820361113b575b50506004548015611127575f926002915f1901610feb8161141e565b81549087199060031b1b19169055600455858452600560205283604081205585845260066020526040842060ff1981541690550160ff1981541690555560405163a9059cbb60e01b81526020818061105d853360048401602090939291936001600160a01b0360408201951681520152565b03815f6001600160a01b037f0000000000000000000000000000000000000000000000000000000000000000165af18015610469576110c9575b5060207fccc06c87bcc10a47ba7fb33e6541343230b4f89e72140d0a5759e98cb026a77991604051908152a260018055005b6020813d60201161111f575b816110e26020938361145f565b81010312610228577fccc06c87bcc10a47ba7fb33e6541343230b4f89e72140d0a5759e98cb026a77991611117602092611497565b509150611097565b3d91506110d5565b634e487b7160e01b5f52603160045260245ffd5b6111449061141e565b90549060031b1c611158816109388461141e565b5f52600560205260405f20558480610fcf565b634e487b7160e01b5f52601160045260245ffd5b7f83492201000000000000000000000000000000000000000000000000000000005f5260045ffd5b7f039f2e18000000000000000000000000000000000000000000000000000000005f5260045ffd5b6111e8915060203d60201161046257610454818361145f565b82610f61565b3461022857602060031936011261022857600435805f52600760205260405f20906101006001600160a01b0360025416916024604051809481936286922360e11b835260048301525afa80156104695760c0915f91611355575b5001515f905f9280549260018201945b8481106112ee57506112699061155f565b935f915f5b8581106112835760405180610b2f89826113e5565b806112906001928461144a565b90549060031b1c805f528460205260ff600260405f20015460081c16806112d8575b6112be575b500161126e565b6112d16112ca876115a4565b968a611590565b52886112b7565b50805f5284602052868360405f200154146112b2565b6112f8818461144a565b90549060031b1c805f528660205260ff600260405f20015460081c16908161133d575b50611329575b600101611258565b906113356001916115a4565b919050611321565b90505f528560205283600160405f200154148761131b565b61137791506101003d811161137d575b61136f818361145f565b8101906114a4565b83611248565b503d611365565b346102285760206003193601126102285761065e6004356115bf565b34610228576020906113b1366113cf565b905f526008835260405f20905f52825260ff60405f20541615158152f35b6003196040910112610228576004359060243590565b60206040818301928281528451809452019201905f5b8181106114085750505090565b82518452602093840193909201916001016113fb565b6004548110156114365760045f5260205f2001905f90565b634e487b7160e01b5f52603260045260245ffd5b8054821015611436575f5260205f2001905f90565b90601f601f19910116810190811067ffffffffffffffff82111761097357604052565b519067ffffffffffffffff8216820361022857565b5190811515820361022857565b90816101009103126102285760405190610100820182811067ffffffffffffffff8211176109735761153f9160e091604052805184526114e660208201611482565b60208501526114f760408201611482565b604085015261150860608201611482565b606085015261151960808201611482565b608085015261152a60a08201611497565b60a085015260c081015160c085015201611497565b60e082015290565b67ffffffffffffffff81116109735760051b60200190565b9061156982611547565b611576604051918261145f565b828152601f196115868294611547565b0190602036910137565b80518210156114365760209160051b010190565b5f19811461116b5760010190565b9190820391821161116b57565b805f52600760205260405f2090600382019182549060ff82166103c2578054916003600283015410611c2d57505f935f926115f981611547565b91611607604051938461145f565b818352601f1961161683611547565b013660208501376116268261155f565b6001850193905f805b858210611b27575050505060038510611a5157805460ff1916600117905584939291905f5b818110611700575050507f2b6bc782c916fa763822f1e50c6db0f95dade36d6541a8a4cbe070735b8b226d9161168b604092612151565b8151908682526020820152a26001600160a01b036002541691823b156102285760445f928360405195869485937f09bf1362000000000000000000000000000000000000000000000000000000008552600485015260248401525af18015610469576116f45750565b5f6116fe9161145f565b565b909192939450611710818561144a565b90549060031b1c90815f528360205260405f2060028101908960ff835460081c169182611a42575b50506118cc575b5460081c60ff161561175b575b86959493929150600101611654565b815f526003602052600160405f2001546103e88102908082046103e8149015171561116b57614e20900491821515806118b3575b61179a575b5061174c565b805f526003602052600160405f20016117b48482546115b2565b90555f5460405163a9059cbb60e01b81526001600160a01b03909116600482015260248101849052602081806044810103815f6001600160a01b037f0000000000000000000000000000000000000000000000000000000000000000165af1801561046957611852575b507f4ab269848ad7c82e53a5920102e9ddf2ffbaf4fc6791d336e06cb171c44f3a586020600194604051908152a25f611794565b926020843d82116118ab575b8161186b6020938361145f565b810103126102285760207f4ab269848ad7c82e53a5920102e9ddf2ffbaf4fc6791d336e06cb171c44f3a58916118a2600196611497565b5094505061181e565b3d915061185e565b50805f52600360205282600160405f200154101561178f565b825f526003602052600160405f2001546103e88102908082046103e8149015171561116b5761271090049081151580611a29575b61190c575b905061173f565b835f526003602052600160405f20016119268382546115b2565b90555f5460405163a9059cbb60e01b81526001600160a01b03909116600482015260248101839052602081806044810103815f6001600160a01b037f0000000000000000000000000000000000000000000000000000000000000000165af19081156104695785916119c6575b507f4ab269848ad7c82e53a5920102e9ddf2ffbaf4fc6791d336e06cb171c44f3a58602060ff94604051908152a2611905565b90506020813d8211611a21575b816119e06020938361145f565b81010312610228577f4ab269848ad7c82e53a5920102e9ddf2ffbaf4fc6791d336e06cb171c44f3a58602060ff94611a188894611497565b50945050611993565b3d91506119d3565b50835f52600360205281600160405f2001541015611900565b6001015414159050895f611738565b9495505050905060246101006001600160a01b0360025416604051928380926286922360e11b82528860048301525afa9081156104695767ffffffffffffffff916080915f91611b08575b500151164211611ace577fca8be42d000000000000000000000000000000000000000000000000000000005f5260045ffd5b81600160ff19611ae2945416179055612151565b7f190405c3325ce607eef93c6240d9728b865e09aa174052e80e380f33d165c4f45f80a2565b611b2191506101003d811161137d5761136f818361145f565b5f611a9c565b611b31828961144a565b90549060031b1c5f528660205260405f2060ff600282015460081c1615611c2357600101545f5f5b838110611bb7575b5015611b75575b50906001905b019061162f565b80611b808387611590565b526001611b8d8386611590565b5289600111611ba9575b50611ba36001916115a4565b90611b68565b9a5060019850611ba3611b97565b82611bc28289611590565b5114611bd057600101611b59565b9050611be5611bdf8287611590565b516115a4565b611bef8287611590565b528a611bfb8287611590565b5111611c0b575b5060015f611b61565b909b50611c1a91995083611590565b51978a5f611c02565b5090600190611b6e565b929390915060246101006001600160a01b0360025416604051928380926286922360e11b82528960048301525afa9081156104695767ffffffffffffffff916080915f91611cba575b500151164211611ca8577fca8be42d000000000000000000000000000000000000000000000000000000005f5260045ffd5b600160ff19611ae29416179055612151565b611cd391506101003d811161137d5761136f818361145f565b5f611c76565b9081602091031261022857516001600160a01b03811681036102285790565b90602082549182815201915f5260205f20905f5b818110611d195750505090565b8254845260209093019260019283019201611d0c565b90816020910312610228575160ff811681036102285790565b6001600160a01b03600254166040516286922360e11b815282600482015261010081602481855afa9081156104695767ffffffffffffffff916040915f91612132575b5001511642111561210a57815f52600760205260405f2090815461210557600454611db58161155f565b905f925f5b828110611f8e575050506005821015611f8657815b8215611f5c575f19430143811161116b57604051602081019140825244604082015286606082015260608152611e0660808261145f565b519020905f5b848110611e56575050505050611e517f281c9414f5d64dac5fd8d4a4edc273335b89b1b45bcd4d02787e4017231e3f6e91604051918291602083526020830190611cf8565b0390a2565b611e6081836115b2565b8015611f4857830681019283821161116b576040516020810191825282604082015260408152611e9160608261145f565b51902092611e9f8186611590565b5190611eb6611eae8488611590565b519187611590565b52611ec18286611590565b52611ecc8185611590565b5190865468010000000000000000811015610973576001926109388285611ef694018b558a61144a565b875f52600860205260405f20611f0c8287611590565b515f5260205260405f208260ff19825416179055611f2a8186611590565b515f52600960205260405f20611f4081546115a4565b905501611e0c565b634e487b7160e01b5f52601260045260245ffd5b505050507f190405c3325ce607eef93c6240d9728b865e09aa174052e80e380f33d165c4f45f80a2565b600591611dcf565b611f978161141e565b90549060031b1c6040517ff1a6f8d3000000000000000000000000000000000000000000000000000000008152886004820152816024820152602081604481875afa908115610469575f916120cc575b5015806120b3575b611ffd575b50600101611dba565b6040517f86481d400000000000000000000000000000000000000000000000000000000081528160048201526020816024816001600160a01b037f0000000000000000000000000000000000000000000000000000000000000000165afa9081156104695760059160ff915f91612095575b501610611ff4578561208e916120886001949888611590565b526115a4565b9490611ff4565b6120ad915060203d8111610a5e57610a50818361145f565b5f61206f565b50805f52600360205260ff600260405f20015416611fef565b90506020813d82116120fd575b816120e66020938361145f565b81010312610228576120f790611497565b5f611fe7565b3d91506120d9565b505050565b7f6c79ceef000000000000000000000000000000000000000000000000000000005f5260045ffd5b61214b91506101003d811161137d5761136f818361145f565b5f611d8b565b5f5b81548110156121ab57612166818361144a565b90549060031b1c805f52600960205260405f2054612188575b50600101612153565b5f52600960205260405f2090815491821561116b576001925f190190559061217f565b5050565b6002600154146121c0576002600155565b7f3ee5aeb5000000000000000000000000000000000000000000000000000000005f5260045ffd5b6001600160a01b035f541633036121fb57565b7f118cdaa7000000000000000000000000000000000000000000000000000000005f523360045260245ffd5b60ff5f5460a01c1661223557565b7fd93c0665000000000000000000000000000000000000000000000000000000005f5260045ffdfea2646970667358221220e33c1c0eea41be8ffe10dede94131fe7bfc0710ed27f7d99f48f508fc8d820a564736f6c63430008210033",
  "linkReferences": {},
  "deployedLinkReferences": {},
  "immutableReferences": {
    "11325": [
      {
        "length": 32,
        "start": 2129
      },
      {
        "length": 32,
        "start": 3060
      },
      {
        "length": 32,
        "start": 4202
      },
      {
        "length": 32,
        "start": 6129
      },
      {
        "length": 32,
        "start": 6499
      }
    ],
    "11328": [
      {
        "length": 32,
        "start": 720
      },
      {
        "length": 32,
        "start": 1378
      },
      {
        "length": 32,
        "start": 1846
      },
      {
        "length": 32,
        "start": 3361
      },
      {
        "length": 32,
        "start": 3889
      },
      {
        "length": 32,
        "start": 8249
      }
    ]
  },
  "inputSourceName": "project/contracts/VerifierElection.sol",
  "devdoc": {
    "errors": {
      "EnforcedPause()": [
        {
          "details": "The operation failed because the contract is paused."
        }
      ],
      "ExpectedPause()": [
        {
          "details": "The operation failed because the contract is not paused."
        }
      ],
      "OwnableInvalidOwner(address)": [
        {
          "details": "The owner is not a valid owner account. (eg. `address(0)`)"
        }
      ],
      "OwnableUnauthorizedAccount(address)": [
        {
          "details": "The caller account is not authorized to perform an operation."
        }
      ],
      "ReentrancyGuardReentrantCall()": [
        {
          "details": "Unauthorized reentrant call."
        }
      ]
    },
    "events": {
      "Paused(address)": {
        "details": "Emitted when the pause is triggered by `account`."
      },
      "Unpaused(address)": {
        "details": "Emitted when the pause is lifted by `account`."
      }
    },
    "kind": "dev",
    "methods": {
      "commitVote(uint256,uint256,bytes32)": {
        "params": {
          "commitHash": "keccak256(abi.encodePacked(answerHash, salt))"
        }
      },
      "electVerifiers(uint256)": {
        "details": "Uses blockhash + prevrandao for randomness. Non-participants only."
      },
      "owner()": {
        "details": "Returns the address of the current owner."
      },
      "paused()": {
        "details": "Returns true if the contract is paused, and false otherwise."
      },
      "renounceOwnership()": {
        "details": "Leaves the contract without owner. It will not be possible to call `onlyOwner` functions. Can only be called by the current owner. NOTE: Renouncing ownership will leave the contract without an owner, thereby disabling any functionality that is only available to the owner."
      },
      "revealVote(uint256,uint256,bytes32,bytes32)": {
        "params": {
          "answerHash": "The answer hash they voted for",
          "salt": "The salt used in commit"
        }
      },
      "stake(uint256,uint256)": {
        "params": {
          "amount": "Amount of AFG to stake (must be >= MIN_STAKE)",
          "tokenId": "The NFA to register as verifier"
        }
      },
      "transferOwnership(address)": {
        "details": "Transfers ownership of the contract to a new account (`newOwner`). Can only be called by the current owner."
      }
    },
    "title": "VerifierElection",
    "version": 1
  },
  "evm": {
    "gasEstimates": {
      "creation": {
        "codeDepositCost": "1770200",
        "executionCost": "infinite",
        "totalCost": "infinite"
      },
      "external": {
        "CONSENSUS_THRESHOLD()": "681",
        "MIN_STAKE()": "725",
        "MIN_VERIFIER_LEVEL()": "659",
        "SLASH_BPS()": "571",
        "VERIFIER_COUNT()": "263",
        "activeVerificationCount(uint256)": "2981",
        "afgToken()": "infinite",
        "agentNFA()": "infinite",
        "commitVote(uint256,uint256,bytes32)": "infinite",
        "electVerifiers(uint256)": "infinite",
        "getElectedVerifiers(uint256)": "infinite",
        "getHonestVerifiers(uint256)": "infinite",
        "getRevealCount(uint256)": "2459",
        "getVerifierPoolSize()": "2454",
        "getVerifierVote(uint256,uint256)": "5051",
        "isElected(uint256,uint256)": "2428",
        "isInPool(uint256)": "2553",
        "isVerificationResolved(uint256)": "2603",
        "owner()": "2647",
        "pause()": "30042",
        "paused()": "2515",
        "problemManager()": "2824",
        "renounceOwnership()": "28346",
        "revealVote(uint256,uint256,bytes32,bytes32)": "infinite",
        "setProblemManager(address)": "27158",
        "stake(uint256,uint256)": "infinite",
        "tallyAndResolve(uint256)": "infinite",
        "transferOwnership(address)": "28787",
        "unpause()": "27718",
        "unstake(uint256)": "infinite",
        "verifierPool(uint256)": "7250",
        "verifiers(uint256)": "7052"
      },
      "internal": {
        "_releaseVerifiers(struct VerifierElection.ProblemVerification storage pointer)": "infinite"
      }
    }
  },
  "storageLayout": {
    "storage": [
      {
        "astId": 8,
        "contract": "project/contracts/VerifierElection.sol:VerifierElection",
        "label": "_owner",
        "offset": 0,
        "slot": "0",
        "type": "t_address"
      },
      {
        "astId": 2220,
        "contract": "project/contracts/VerifierElection.sol:VerifierElection",
        "label": "_paused",
        "offset": 20,
        "slot": "0",
        "type": "t_bool"
      },
      {
        "astId": 2330,
        "contract": "project/contracts/VerifierElection.sol:VerifierElection",
        "label": "_status",
        "offset": 0,
        "slot": "1",
        "type": "t_uint256"
      },
      {
        "astId": 11331,
        "contract": "project/contracts/VerifierElection.sol:VerifierElection",
        "label": "problemManager",
        "offset": 0,
        "slot": "2",
        "type": "t_contract(ProblemManager)10232"
      },
      {
        "astId": 11337,
        "contract": "project/contracts/VerifierElection.sol:VerifierElection",
        "label": "verifiers",
        "offset": 0,
        "slot": "3",
        "type": "t_mapping(t_uint256,t_struct(VerifierInfo)11300_storage)"
      },
      {
        "astId": 11341,
        "contract": "project/contracts/VerifierElection.sol:VerifierElection",
        "label": "verifierPool",
        "offset": 0,
        "slot": "4",
        "type": "t_array(t_uint256)dyn_storage"
      },
      {
        "astId": 11346,
        "contract": "project/contracts/VerifierElection.sol:VerifierElection",
        "label": "_verifierPoolIndex",
        "offset": 0,
        "slot": "5",
        "type": "t_mapping(t_uint256,t_uint256)"
      },
      {
        "astId": 11351,
        "contract": "project/contracts/VerifierElection.sol:VerifierElection",
        "label": "isInPool",
        "offset": 0,
        "slot": "6",
        "type": "t_mapping(t_uint256,t_bool)"
      },
      {
        "astId": 11357,
        "contract": "project/contracts/VerifierElection.sol:VerifierElection",
        "label": "_verifications",
        "offset": 0,
        "slot": "7",
        "type": "t_mapping(t_uint256,t_struct(ProblemVerification)11322_storage)"
      },
      {
        "astId": 11364,
        "contract": "project/contracts/VerifierElection.sol:VerifierElection",
        "label": "isElected",
        "offset": 0,
        "slot": "8",
        "type": "t_mapping(t_uint256,t_mapping(t_uint256,t_bool))"
      },
      {
        "astId": 11369,
        "contract": "project/contracts/VerifierElection.sol:VerifierElection",
        "label": "activeVerificationCount",
        "offset": 0,
        "slot": "9",
        "type": "t_mapping(t_uint256,t_uint256)"
      }
    ],
    "types": {
      "t_address": {
        "encoding": "inplace",
        "label": "address",
        "numberOfBytes": "20"
      },
      "t_array(t_uint256)dyn_storage": {
        "base": "t_uint256",
        "encoding": "dynamic_array",
        "label": "uint256[]",
        "numberOfBytes": "32"
      },
      "t_bool": {
        "encoding": "inplace",
        "label": "bool",
        "numberOfBytes": "1"
      },
      "t_bytes32": {
        "encoding": "inplace",
        "label": "bytes32",
        "numberOfBytes": "32"
      },
      "t_contract(ProblemManager)10232": {
        "encoding": "inplace",
        "label": "contract ProblemManager",
        "numberOfBytes": "20"
      },
      "t_mapping(t_uint256,t_bool)": {
        "encoding": "mapping",
        "key": "t_uint256",
        "label": "mapping(uint256 => bool)",
        "numberOfBytes": "32",
        "value": "t_bool"
      },
      "t_mapping(t_uint256,t_mapping(t_uint256,t_bool))": {
        "encoding": "mapping",
        "key": "t_uint256",
        "label": "mapping(uint256 => mapping(uint256 => bool))",
        "numberOfBytes": "32",
        "value": "t_mapping(t_uint256,t_bool)"
      },
      "t_mapping(t_uint256,t_struct(ProblemVerification)11322_storage)": {
        "encoding": "mapping",
        "key": "t_uint256",
        "label": "mapping(uint256 => struct VerifierElection.ProblemVerification)",
        "numberOfBytes": "32",
        "value": "t_struct(ProblemVerification)11322_storage"
      },
      "t_mapping(t_uint256,t_struct(VerifierInfo)11300_storage)": {
        "encoding": "mapping",
        "key": "t_uint256",
        "label": "mapping(uint256 => struct VerifierElection.VerifierInfo)",
        "numberOfBytes": "32",
        "value": "t_struct(VerifierInfo)11300_storage"
      },
      "t_mapping(t_uint256,t_struct(VerifierVote)11309_storage)": {
        "encoding": "mapping",
        "key": "t_uint256",
        "label": "mapping(uint256 => struct VerifierElection.VerifierVote)",
        "numberOfBytes": "32",
        "value": "t_struct(VerifierVote)11309_storage"
      },
      "t_mapping(t_uint256,t_uint256)": {
        "encoding": "mapping",
        "key": "t_uint256",
        "label": "mapping(uint256 => uint256)",
        "numberOfBytes": "32",
        "value": "t_uint256"
      },
      "t_struct(ProblemVerification)11322_storage": {
        "encoding": "inplace",
        "label": "struct VerifierElection.ProblemVerification",
        "members": [
          {
            "astId": 11312,
            "contract": "project/contracts/VerifierElection.sol:VerifierElection",
            "label": "electedVerifiers",
            "offset": 0,
            "slot": "0",
            "type": "t_array(t_uint256)dyn_storage"
          },
          {
            "astId": 11317,
            "contract": "project/contracts/VerifierElection.sol:VerifierElection",
            "label": "votes",
            "offset": 0,
            "slot": "1",
            "type": "t_mapping(t_uint256,t_struct(VerifierVote)11309_storage)"
          },
          {
            "astId": 11319,
            "contract": "project/contracts/VerifierElection.sol:VerifierElection",
            "label": "revealCount",
            "offset": 0,
            "slot": "2",
            "type": "t_uint256"
          },
          {
            "astId": 11321,
            "contract": "project/contracts/VerifierElection.sol:VerifierElection",
            "label": "resolved",
            "offset": 0,
            "slot": "3",
            "type": "t_bool"
          }
        ],
        "numberOfBytes": "128"
      },
      "t_struct(VerifierInfo)11300_storage": {
        "encoding": "inplace",
        "label": "struct VerifierElection.VerifierInfo",
        "members": [
          {
            "astId": 11295,
            "contract": "project/contracts/VerifierElection.sol:VerifierElection",
            "label": "tokenId",
            "offset": 0,
            "slot": "0",
            "type": "t_uint256"
          },
          {
            "astId": 11297,
            "contract": "project/contracts/VerifierElection.sol:VerifierElection",
            "label": "stakedAmount",
            "offset": 0,
            "slot": "1",
            "type": "t_uint256"
          },
          {
            "astId": 11299,
            "contract": "project/contracts/VerifierElection.sol:VerifierElection",
            "label": "active",
            "offset": 0,
            "slot": "2",
            "type": "t_bool"
          }
        ],
        "numberOfBytes": "96"
      },
      "t_struct(VerifierVote)11309_storage": {
        "encoding": "inplace",
        "label": "struct VerifierElection.VerifierVote",
        "members": [
          {
            "astId": 11302,
            "contract": "project/contracts/VerifierElection.sol:VerifierElection",
            "label": "commitHash",
            "offset": 0,
            "slot": "0",
            "type": "t_bytes32"
          },
          {
            "astId": 11304,
            "contract": "project/contracts/VerifierElection.sol:VerifierElection",
            "label": "revealedAnswer",
            "offset": 0,
            "slot": "1",
            "type": "t_bytes32"
          },
          {
            "astId": 11306,
            "contract": "project/contracts/VerifierElection.sol:VerifierElection",
            "label": "committed",
            "offset": 0,
            "slot": "2",
            "type": "t_bool"
          },
          {
            "astId": 11308,
            "contract": "project/contracts/VerifierElection.sol:VerifierElection",
            "label": "revealed",
            "offset": 1,
            "slot": "2",
            "type": "t_bool"
          }
        ],
        "numberOfBytes": "96"
      },
      "t_uint256": {
        "encoding": "inplace",
        "label": "uint256",
        "numberOfBytes": "32"
      }
    }
  },
  "userdoc": {
    "kind": "user",
    "methods": {
      "activeVerificationCount(uint256)": {
        "notice": "tokenId => count of active (unresolved) verifications [H-03]"
      },
      "commitVote(uint256,uint256,bytes32)": {
        "notice": "Verifier commits their answer hash"
      },
      "electVerifiers(uint256)": {
        "notice": "Elect verifiers for a problem. Called when reveal phase ends."
      },
      "isElected(uint256,uint256)": {
        "notice": "problemId => tokenId => is elected for this problem"
      },
      "isInPool(uint256)": {
        "notice": "tokenId => is in pool"
      },
      "revealVote(uint256,uint256,bytes32,bytes32)": {
        "notice": "Verifier reveals their vote"
      },
      "stake(uint256,uint256)": {
        "notice": "Stake AFG to become a verifier. Requires NFA Level >= MIN_VERIFIER_LEVEL."
      },
      "tallyAndResolve(uint256)": {
        "notice": "Tally votes and resolve if consensus reached. Anyone can call."
      },
      "unstake(uint256)": {
        "notice": "Unstake and exit verifier pool"
      },
      "verifierPool(uint256)": {
        "notice": "All staked verifier tokenIds (for random selection)"
      },
      "verifiers(uint256)": {
        "notice": "tokenId => verifier info"
      }
    },
    "notice": "Decentralized verifier system for AgentForge   Verifier eligibility: NFA Level ≥ MIN_VERIFIER_LEVEL + stake MIN_STAKE AFG   Election: random 5 non-participant NFAs per problem   Voting: commit-reveal, 3/5 consensus   Rewards: 8% of tier pool to honest verifiers   Slash: 10% of stake for dishonest votes   Oracle fallback: if < 3 verifiers vote, oracle resolves",
    "version": 1
  },
  "argsData": "0x000000000000000000000000b76e0ef9a6831fe74306e0d104f2df93304d7885000000000000000000000000eec290cbfca23ceac33650d94b6a8086f259b357000000000000000000000000de32e449462747eca044ef1081ba248a3f41ed3e",
  "transaction": {
    "hash": "0x3844f82202b0f3609d3e9c9620c4cea346bb151990267bbf87261e6c71882e34",
    "nonce": "0x83f",
    "origin": "0xc3fa77c9d5cb9f1bb50d4c05a86d4a24cf4563e8"
  }
}